:020000040800F2
:10000000D8070020E5010008EB320008552600085B
:100010007D32000895240008173A0008000000000F
:10002000000000000000000000000000E5350008AE
:100030009924000800000000893300087337000885
:10004000FF010008FF010008FF010008FF01000890
:10005000FF010008FF010008FF010008FF01000880
:10006000FF010008FF010008FF010008FF01000870
:10007000FF010008FF010008FF010008FF01000860
:10008000FF010008FF010008FF010008FF01000850
:10009000FF010008FF010008FF010008FF01000840
:1000A000FF010008FF010008FF010008FF01000830
:1000B000FF010008FF010008FF010008FF01000820
:1000C000FF010008FF010008FF010008FF01000810
:1000D000FF010008D5370008FF010008FF010008F4
:1000E000FF010008FF010008FF010008FF010008F0
:1000F000FF010008FF010008FF010008FF010008E0
:10010000FF010008FF010008FF010008FF010008CF
:10011000FF010008FF010008FF010008FF010008BF
:10012000FF010008FF010008FF010008FF010008AF
:1001300000F002F800F047F80AA090E8000C8244B2
:100140008344AAF10107DA4501D100F03CF8AFF28F
:10015000090EBAE80F0013F0010F18BFFB1A43F0A5
:10016000010318477054000090540000103A24BF57
:1001700078C878C1FAD8520724BF30C830C144BF0C
:1001800004680C607047000000230024002500264E
:10019000103A28BF78C1FBD8520728BF30C148BFEA
:1001A0000B607047662905F0D880002070471FB5A6
:1001B00000F0FAFA04000020002104F05BF9E0608E
:1001C0001FBD10B510BD00F009FC1146FFF7EFFF91
:1001D00004F050F800F027FC03B4FFF7F2FF03BC73
:1001E00003F093FC0948804709480047FEE7FEE713
:1001F000FEE7FEE7FEE7FEE7FEE7FEE7FEE7FEE7D7
:1002000004480549054A064B704700007537000849
:1002100031010008D8010020D8070020D8030020B1
:10022000D8030020704700000FB4044910B503AA9A
:10023000029800F0A7FA10BC5DF814FB70000020D3
:100240002DE9F0474FF0000A89460446C0F820A087
:100250002046E1688847002876D0252806D0D4E9D2
:1002600001219047206A401C2062F1E7E1682046A6
:1002700000258847C4F81CA006460027C4F818A02B
:100280002A2E09D0304603F039FC38B304EB870836
:10029000303EC8F8186019E059F8041B204604EBFA
:1002A00087029161E1688847012F064618D1E0690D
:1002B000002820DA25F020051DE0D8F8180000EB12
:1002C000800006EB40003038C8F818002046E1688E
:1002D0008847064603F012FC0028EED1012F0AD011
:1002E0002E2E08D12046E16888477F1C0646022F43
:1002F00045F02005C4DBA069002803DA404245F040
:100300000105A061E80701D025F01005B6B1A6F1FE
:100310004100192802D8203645F400654A46314686
:10032000204625604D46FFF73DFF58B1012806D015
:10033000ED1D25F0070000F1080989E704E005F14B
:10034000040985E730468AE7206ABDE8F0877047F0
:1003500070477047704710B500F02AFA006810BD6A
:1003600010B5044600F024FA046010BD70472DE972
:10037000FF4F0C461E464FF0FF378BB0D2E900010D
:10038000DDF860800A908A46C1F30A5505B93D46FA
:10039000002108464FF00000BAF1000F00F44000C1
:1003A00005DA00EB80004FF4400101EA50004FEA0B
:1003B0009059B9F1010F00DDB9460A9850EA4A0098
:1003C0000ED044F61050A5F2FF3545432F14B8F176
:1003D000000F1ED07542291E1EDDC9F100021CE06F
:1003E000B8F1010F4FF0000001D0302103E0F243DB
:1003F00005E02154401CB042FBDB304600220021C6
:1004000021540B99C1F80880C1E900200FB0BDE864
:10041000F08FBD1B6D1CDEE74A4600DA694206A874
:1004200000F068FA06AB93E8070003AB83E8070027
:1004300050460A9900F03EFB8DE80700A0F50050F9
:100440001F3800900398002D09DD42F21F014A4633
:10045000084403A90390684600F09DFD08E0A0F55C
:1004600000504A461F3803A90390684600F0A7FDD4
:100470008DE807000004000C03D04FF0FF30410866
:1004800000E01046B8F1000F03D00022009215469C
:100490001EE0751E05D400F08FF9303262556D1ED6
:1004A000F9D5B3460122084302D000227F1C04E0A4
:1004B0002078302801D100227F1E002A099786D09B
:1004C0001DE0112D07DA00F077F9303262556D1C0E
:1004D00050EA0102F5D1084302D00098C8B10EE0FD
:1004E0000021681E05E0235C625C63542254401EB8
:1004F000491C8142F7DBAB46A81B401E0990002037
:1005000004F80B000B98099AC0F80880C0E9002B8A
:100510007CE711264FF0000859E72DE9F04F884697
:100520000446D21D22F0070191B0D1E90001CDE9C6
:100530000A0103F072FA02460B98C00F01D02D2079
:1005400007E02068810701D52B2002E0202101EA85
:10055000C000032A099001D0072A05DB0346414663
:10056000204600F087F909E12078800601D5E0698E
:1005700000E00620B8F1650F814606D0B8F1660F9D
:1005800018D0B8F1670F70D131E00020B9F1110F28
:10059000009001DB112301E009F101030AAA01A97E
:1005A0000CA8FFF7E4FEDDE90C70002609F1010557
:1005B000834647E001204B4600904FF000470AAACF
:1005C00001A90CA8FFF7D3FEDDE90DB00C995D463B
:1005D000002610B909F101000D18B9EB050003D48C
:1005E000C0F1FF3609F10105A5EB09002BE0B9F1D7
:1005F000010F01DA4FF001090020B9F1110F00904D
:10060000484601DD112300E003460AAA01A90CA80F
:10061000FFF7ADFEDDE90C704D46002683462078DD
:1006200000070AD4AB4500DA5D4601A8012D04DDC0
:10063000411911F8011C302907D04F4502DA17F192
:10064000040F04DA012082460FE06D1EEEE7002F52
:1006500002DCED1B3E4403E0781CA84200DD7D1C5B
:10066000B81B00F1010A4FF000472078000703D4BF
:10067000AA4501DB4FF0FF3A0021B7F1004F0DF121
:1006800043088DF8431022D002202B23002F01DADB
:100690007F422D234FF00A0C011EA0F1010000DC67
:1006A00047B197FBFCF10CFB11720F46303208F892
:1006B000012DF1E7A8F1010003702188090501D59A
:1006C000452100E06521A0F1010800F8011C09980E
:1006D0000FA9A1EB0807FF1D00B10120411901EB93
:1006E000EA70A1693844081A401EA0612078C0064B
:1006F00002D42046AFF30080099828B1D4E9012143
:100700009047206A401C20622078C00622D52046EF
:10071000AFF300801EE0002E04DBB34502DD01A82C
:10072000805D00E03020D4E901219047206A401C20
:100730002062761CAAF101005FEA000A0AD100F0EB
:1007400033F8C0680168405CD4E901219047206A11
:10075000401C2062281EA5F10105DCDC07E0D4E97D
:10076000012118F8010B9047206A401C2062381EB6
:10077000A7F10107F3DC2046AFF30080022011B09F
:1007800045E60000074B70B50D467B4400F05FF86E
:100790000446284600F01AF910B14FF0FF3070BD42
:1007A000204670BD7F3A0000004870479801002045
:1007B000004870477801002030B5B0F10A024FEAD6
:1007C000900E71F100034EEA817EB0EB0E0061EBFA
:1007D00091014FEA101E4EEA017E10EB0E0041EB34
:1007E00011114FEA102E4EEA016E10EB0E0041EB94
:1007F00011214FEA104E4EEA014E10EB0E0041EB74
:100800001141401841F100014FEAD00040EA417027
:100810004FEAD10110EB80054FEA810444EA90745D
:1008200044EB01046D1944EB0404521BA3414FF047
:10083000000348BF0A3200D530BD401C41F1000121
:1008400030BD000001694A1C02610878704700B59C
:100850008FB0CDE901310021059105497944CDE9F9
:10086000031011466846FFF7EBFC0FB000BD000017
:10087000E5FFFFFF2DE9F0411F460446032601680E
:10088000072A01F4006004DB08B116A505E016A5EF
:1008900003E008B115A500E015A521F010002060C7
:1008A000A069C01EA0610FB1401EA0612046AFF339
:1008B00000804FB1D4E9012138469047206A401C9E
:1008C0002062C01C206206E0206AFAE7D4E9012118
:1008D00015F8010B9047761EF8D22046AFF3008042
:1008E000BDE8F0814E414E006E616E00494E4600FB
:1008F000696E66002DE9F047814616468AB0324897
:1009000078440DC88DE80D002F487844801C03AC56
:100910000DC884E80D0041F69B303722014491FB5D
:10092000F2F0A0F1800502FB10141B3C02D56442DA
:10093000012000E00020DFF890A080460027FA4464
:10094000AAF1BA0A0DE0E00709D03246684607EB83
:1009500047010AEB810100F032FB8DE807006410CB
:100960007F1C002CEFD1184F7F44A83F18E0E80708
:1009700014D007EB04100DF1180A90E80E008AE875
:100980000E00C068F04201D198190890324606A9BD
:1009900003A800F014FB03AB83E807006D10641C90
:1009A000002DE4D132466946B8F1000F03A802D009
:1009B00000F0F1FA01E000F002FBC9E90001C9F81A
:1009C00008200AB0BDE8F087B84C0000007B00F0BA
:1009D0008000704700487047780100207546FFF797
:1009E000F9FFAE4605006946534620F007008546EC
:1009F00018B020B5FFF704FCBDE820404FF000061A
:100A00004FF000074FF000084FF0000B21F00701F6
:100A1000AC46ACE8C009ACE8C009ACE8C009ACE839
:100A2000C0098D4670470446AFF300802046FFF7AB
:100A3000D3FB00004FF0013C50F8042B51F8043B6D
:100A40009A4221D1A2EB0C03934313EACC1317D1A2
:100A500050F8042B51F8043B9A4215D1A2EB0C0339
:100A6000934313EACC130BD150F8042B51F8043BF9
:100A70009A4209D1A2EB0C03934313EACC13DBD0C7
:100A80004FF00000704700BFD01A01BAB1FA81F1EF
:100A900001F0180122FA01F0CB40C1F12001DBB2D4
:100AA000C0B2C01A2CFA01F3D11A914311EAC31152
:100AB000E6D170475FEA400C08BF91F0000F4FEAA3
:100AC0008C234FEAC12243EA51514FEA1C5018BF10
:100AD00000F5F0404FEA300018BF41F000415FEAF6
:100AE0006C5C00F02980BCF1FF3F08BF40F0804003
:100AF0007047130C06BF12044FF0100C4FF0000C9F
:100B0000130E04BF12020CF1080C130F04BF1201E4
:100B10000CF1040C930F04BF92000CF1020CD30FE4
:100B200004BF52000CF1010C11464FF00002A0F17D
:100B30001F00A0EB0C00704711F0004F08BF70477A
:100B400031F000413FF4D5AF0B0C06BF09044FF064
:100B5000100C4FF0000C0B0E04BF09020CF1080C36
:100B60000B0F04BF09010CF1040C8B0F04BF8900AB
:100B70000CF1020CCB0F04BF49000CF1010CCCF1BD
:100B80002003A0EB0C0022FA03F302FA0CF241EA74
:100B9000030100F10100704720F07F4C80EA030060
:100BA00023F07F47ACEB070303F57C5300F00040D4
:100BB00003F1FF032DE980494FEA154B09B44FEAD1
:100BC000144325EA0B4E24EA03480FF2042606EBF1
:100BD000132749083E785FEA320203FB0667C7F530
:100BE000000707FB06F64FEA54374FEAD64606F1F0
:100BF000020607FB066CCCF1005C4FEA1C472CEAAE
:100C0000074C07FB06F40CFB06F504EB15464FEA10
:100C1000961634BF00204FF000404FEAD13706FB54
:100C200007FC4FEA1C4C0CFB0BF7D21B03FB0CF729
:100C300061EB07010CFB0EF7B0EB074072EB1742BC
:100C40000CFB08F734BFA2EB0742B2EB074261EBA3
:100C500017414FEA0C444FEA910706FB07FC4FEAA5
:100C60001C4C0CFB0BF7B0EBC74072EB573203FB8D
:100C70000CF734BFA2EBC742B2EBC74261EB57316E
:100C80000CFB0EF7B0EBC70072EB57720CFB08F7CA
:100C900034BFA2EBC702B2EBC70261EB5771039FEF
:100CA0004FEA816141EA921104EBCC044FEAD1375B
:100CB0004FEA826206FB07FC42EA90124FEA80602C
:100CC0004FEA1C4C0CFB0BF7D21B03FB0CF761EB40
:100CD00007010CFB0EF7B0EB074072EB17420CFB61
:100CE00008F734BFA2EB0742B2EB074261EB1741B2
:100CF0004FEA8C554FEA910704EB9C2406FB07FC56
:100D00004FEA1C4C0CFB0BF7B0EBC74072EB5732B1
:100D100003FB0CF734BFA2EBC742B2EBC74261EB57
:100D200057310CFB0EF7B0EBC70072EB57720CFBA0
:100D300008F734BFA2EBC702B2EBC70261EB5771F1
:100D400015EB4C254FEA816141EA92114FEA82622C
:100D50004FEAD13742EA901206FB07FC44F1000447
:100D60004FEA80604FEA1C4C0CFB0BF7D21B03FBD5
:100D70000CF761EB07010CFB0EF7B0EB074072EBD1
:100D800017420CFB08F734BFA2EB0742B2EB074255
:100D900061EB174115EB1C154FEA813141EA924195
:100DA0004FEA823242EA90424FEA80304FEA0C76B4
:100DB00044F1000448EA03434EEA0B484FF0000EAA
:100DC000B2EB080C71EB030724BF624639464EEBC9
:100DD0000E0E4FF0000B0018524149414BEB0B0B2C
:100DE000B2EB080C71EB03077BF1000B24BF6246EA
:100DF00039464EEB0E0E4FF0000B001852414941A0
:100E00004BEB0B0BB2EB080C71EB03077BF1000B08
:100E100024BF624639464EEB0E0E51EA020718BF58
:100E200046F0010616EB0E7655F1000254F1000172
:100E300003D5BDE88901BDE80088BDE88901B61980
:100E4000BDE80048524141EB0101A3F101037047A5
:100E500080807F7E7D7C7B7A7978777676757473F7
:100E6000727171706F6E6E6D6C6C6B6A6A696868B6
:100E7000676666656464636362616160605F5F5E4C
:100E80005E5D5D5C5C5B5B5A5A59595858575756C2
:100E90005655555554545353525252515150505027
:100EA0004F4F4F4E4E4D4D4D4C4C4C4B4B4B4A4A79
:100EB0004A494949484848474747474646464545BD
:100EC00045444444444343434342424242414141F6
:100ED000002B26D4770021D01CB54FEA370703B486
:100EE0004FF010004FF010014FF000000FBC0BF15D
:100EF000010BBDE81040BBF1010F08BF5FEA170707
:100F000022BF12F1010211F101014FF0004143F142
:100F1000000300F0004043EA00007047F9D357088F
:100F2000DAE746EA064613F1400F4FEA16461FDDA0
:100F300013F1200FDFBF16430A46002120335B4226
:100F4000C8D0C3F1200746EA064602FA07F74FEA7F
:100F5000164646EA0706C3F1200722FA03F201FA11
:100F600007F721FA03F14FF0000342EA0702B1E765
:100F700046EA020646EA06464FEA164646EA0106F1
:100F8000BCBF46EA0646360C4FF000034FF00002A5
:100F90004FF000019EE72DE9C048934630B491E838
:100FA000380007C831EA400C48BF34EA430C03D587
:100FB000FFF7F2FDFFF78CFFF0BCBDE800882DE9DC
:100FC000C048934630B491E8380007C810F0804F0D
:100FD00008BF13F0804F03D100F005F8FFF778FF4A
:100FE000F0BCBDE8008820F07F4780EA030023F0D2
:100FF0007F4C07EB0C03A3F57C5300F00040A3F1FA
:10100000FE0392F0000F00F0B38095F0000F00F0A7
:1010100077802DE901494FEA11404FEA144621EA51
:10102000004800FB06FC24EA064708FB06F607FB1F
:1010300008F800FB07F718EB06484CEB164C4FEA94
:10104000124B18EB07484FEA15464CEB174022EAC3
:101050000B4E0BFB06FC25EA06470EFB06F607FBCC
:101060000EFE0BFB07F71EEB064E4CEB164C4FF03B
:1010700000061EEB074E4CEB174B18EB0B0840F12C
:10108000000018EB0E0B58EB000840F100008F1A1F
:101090004FF000013CBFC943661B14BFB5EB040C05
:1010A00000213CBFC943F61B4FEA17444EEA8E0E9F
:1010B00027EA04454FEA1C4704FB07622CEA074C69
:1010C00005FB07F70CFB05F604FB0CFC16EB0746CB
:1010D00042EB174216EB0C4642EB1C421BEB06069A
:1010E00058EB0202414146EA9E0601D5BDE801895E
:1010F000B619524141EB0101A3F10103BDE8018999
:101100004FEA14454FEA114724EA054621EA074C05
:1011100005FB07F406FB07F70CFB06F105FB0CFCCF
:1011200011EB074144EB17444FEA124711EB0C4116
:1011300044EB1C4422EA074C05FB07F206FB07F7C9
:101140000CFB06F605FB0CFC16EB074642EB1742C0
:1011500016EB0C4642EB1C456A1854F1000148BFDF
:101160007047B619524141EB0101A3F101037047E9
:1011700095F0000F37D04FEA11424FEA144721EAA9
:10118000024624EA074C02FB07F106FB07F70CFBBB
:1011900006F402FB0CFC14EB074441EB17414FEA49
:1011A000154714EB0C4441EB1C4125EA074C02FBAC
:1011B00007F506FB07F70CFB06F602FB0CFC16EB2B
:1011C000074645EB174516EB0C4645EB1C4212193A
:1011D00051F1000148BF7047B619524141EB01017E
:1011E000A3F1010370474FEA14454FEA114724EA7F
:1011F000054621EA074C05FB07F106FB07F70CFB48
:1012000006F24FF0000605FB0CFC12EB074241EB27
:10121000174112EB0C4251EB1C4148BF704792182A
:1012200041EB0101A3F10103704700002DE9FC5FD0
:1012300001F0C0F97349B1F90010734AB2F9002006
:10124000881A03F067FB8046704A714B03F07AFB03
:101250000646704A704B03F075FB044603F020F914
:101260006E4908606749B1F90210674AB2F9022075
:10127000881A03F04FFB0646644A654B03F062FB95
:101280000446644A644B03F05DFB804603F008F9B2
:10129000624948605B49B1F904105B4AB2F9042025
:1012A000881A03F037FB8046584A594B03F04AFB33
:1012B0000646584A584B03F045FB044603F0F0F845
:1012C000564988605649B1F90010564AB2F90020D3
:1012D000881A03F01FFB80464C4A534B03F032FB45
:1012E000064603F0DDF8019003F006FE04464F4A7F
:1012F0004F4B03F027FB824603F0D2F84D490860BC
:101300004749B1F90210474AB2F90220881A03F09E
:1013100001FB3E4A444BCDE9000103F013FB0646B6
:1013200003F0BEF8824603F0E7FD04463F4A404B17
:1013300003F008FB804603F0B3F83E4948603849A3
:10134000B1F90410374AB2F90420881A03F0E2FA1E
:101350002E4A354BCDE9000103F0F4FA064603F0BE
:101360009FF8824603F0C8FD0446304A304B03F034
:10137000E9FA804603F094F82E4988602E49B1F9C5
:1013800000102E4AB2F90020881A03F083FE80462E
:1013900003F0B2FD06462A4A2A4B03F0D3FA04466C
:1013A00003F07EF8284908602349B1F90210234A66
:1013B000B2F90220881A03F06DFE804603F09CFD0E
:1013C00006461F4A1F4B03F0BDFA044603F068F8B7
:1013D0001D4948601849B1F90410184AB2F90420AF
:1013E000881A03F057FE804603F086FD0646144A2D
:1013F000144B03F0A7FA044603F052F81249886030
:10140000BDE8FC9F000000203A00002008AC1C5AF8
:10141000643BAF3FA835CD3B4ED1913F8C000020BF
:101420000600002034000020643BCF3F6EA301BCC7
:101430000512843F980000200C000020400000208E
:101440008D976E1283C0C23FA40000200FB5B3B0C9
:1014500000213A9803F0EAFD13D100213B9803F0F4
:10146000E5FD0ED100213C9803F0E0FD09D1DDE956
:101470003801CDE9000133A80FC801F021FB37B0D6
:1014800000BDFE483599006803F01CFE0E90FC4834
:101490003499006803F016FE0C90FA48006880F05A
:1014A00000400A90339903F00DFE0B900C9903F065
:1014B000DFFE0D900E9903F0DBFE4FF07C510F9094
:1014C00003F000FE2D90ED483499006803F0FAFD1A
:1014D0000E90EB483599006803F0F4FD0C90EA4853
:1014E0000168339803F0EEFD0B900C9903F030FD8A
:1014F0000D900E9903F0BCFE4FF07C510F9003F05D
:10150000E1FD2C90DD480168339803F0DBFD0E907F
:10151000DC483599006803F0D5FD0C90DA48349921
:10152000006803F0CFFD0B900C9903F0A1FE0D9025
:101530000E9903F00DFD4FF07C510F9003F0C2FDAA
:101540002B90CF480168339803F0BCFD0E90CD4836
:101550003499006803F0B6FD0C90CB4835990068CB
:1015600003F0B0FD0B900C9903F0F2FC0D900E9976
:1015700003F07EFE4FF07C510F9003F0A3FD2A9004
:101580000021369803F052FD09D10021389803F06C
:101590004DFD04D10021399803F048FD7ED03999E2
:1015A000084603F08FFD0E903899084603F08AFD37
:1015B0000C903699084603F085FD0B900C9903F0CA
:1015C000C7FC0D900E9903F0C3FC0F9002F02CFEA7
:1015D00032903299369803F075FD369032993898EA
:1015E00003F070FD38903299399803F06BFD399013
:1015F0003C99084603F066FD0E903B99084603F0BF
:1016000061FD0C903A99084603F05CFD0B900C9933
:1016100003F09EFC0D900E9903F09AFC0F9002F0DF
:1016200003FE329032993A9803F04CFD3A90329989
:101630003B9803F047FD3B9032993C9803F042FD04
:101640003C90914801684FF0804003F03BFD0F90C3
:101650003A9903F037FD27908B4801684FF080409E
:1016600003F030FD0F903B9903F02CFD2690864847
:1016700001684FF0804003F025FD0F903C9903F086
:1016800021FD25907F4801684FF0804003F01AFD4E
:101690000F903A9903F016FD249000E0FEE37A489B
:1016A00001684FF0804003F00DFD1F907548016800
:1016B0004FF0804003F006FD1E90714801684FF026
:1016C000804003F0FFFC1D906C4801684FF08040A3
:1016D00003F0F8FC1C906C4801684FF0804003F068
:1016E000F1FC0F90664801680F9803F0EBFC1B902B
:1016F000634801684FF0804003F0E4FC0F905F48BE
:1017000001680F9803F0DEFC1A905F4801680068DA
:1017100003F0D8FC19905B4801685B48006803F04F
:10172000D1FC1890564801685748006803F0CAFC7D
:101730001790524801685448006803F0C3FC1690A3
:1017400050480168006803F0BDFC15904C480168E2
:101750004C48006803F0B6FC1490484801684948BA
:10176000006803F0AFFC139045480168006803F07F
:10177000A9FC1290414801684148006803F0A2FCAE
:1017800011903E480168006803F09CFC109010998D
:101790003A9803F097FC0F9012993A9803F092FC54
:1017A0000D903C991E9803F08DFC09903348016818
:1017B000099803F087FC0B903B991E9803F082FC7C
:1017C00007902F480168079803F07CFC0990159951
:1017D0003A9803F077FC079029480168259803F0B0
:1017E00071FC059025480168269803F06BFC039076
:1017F00019993A9803F066FC0290039903F038FDBA
:101800000490059903F0A4FB0690079903F0A0FB50
:101810000890099903F09CFB0A900B9903F098FB40
:101820000C900D9903F024FD0E900F9903F020FD0C
:10183000299010993B9803F045FC0F903C991D9816
:1018400003F040FC0B900D4801680B9803F03AFC44
:101850000D9012993B9803F035FC0B9015993B982D
:1018600003F030FC099006480168249803F02AFC34
:10187000079004480168259808E000005C000020FB
:1018800058000020540000205000002003F01AFCF3
:10189000059019993B9803F015FC0390FE480168E8
:1018A000279803F00FFC0290039903F051FB04907A
:1018B000059903F0DDFC0690079903F049FB0890B9
:1018C000099903F0D5FC0A900B9903F041FB0C90A9
:1018D0000D9903F03DFB0E900F9903F0C9FC289081
:1018E0002899084603F0EEFB0A902999084603F070
:1018F000E9FB09900A9903F02BFB0B9003F0FCFA2B
:10190000CDE90C0102F04AFDCDE90E0102F0C8FD5F
:10191000239010993C9803F0D5FB0F9012993C98B6
:1019200003F0D0FB0D903B991D9803F0CBFB099081
:10193000D9480168099803F0C5FB0B9015993C98AC
:1019400003F0C0FB0990D4480168249803F0BAFB67
:10195000079019993C9803F0B5FB0590CF480168B2
:10196000269803F0AFFB0390279880F00040019089
:10197000CB480168019803F0A5FB0290039903F09E
:10198000E7FA0490059903F0E3FA0690079903F04B
:10199000DFFA0890099903F06BFC0A900B9903F0A9
:1019A000D7FA0C900D9903F063FC0E900F9903F099
:1019B000CFFA22904FF08040239903F083FB2190CF
:1019C0004FF08040229903F07DFB20904FF07C5037
:1019D000159903F04DFC0790129903F049FC08900B
:1019E000229903F06FFB0A901399179803F0B0FA4D
:1019F0000890239903F066FB09900A9903F0A8FA6E
:101A00000B903C9903F034FC0D90A5480168239895
:101A100003F058FB0C900D9903F054FB0F901199B3
:101A2000189803F095FA0690229903F04BFB089062
:101A30001699149803F01CFC0690239903F042FBBE
:101A40000790089903F084FA09903B9903F010FC81
:101A50000B9092480168229803F034FB0990239878
:101A600080F0004007908C480168079803F02AFB3B
:101A70000890099903F06CFA0A900B9903F022FB85
:101A80000D901799139803F0F3FB0490229903F03B
:101A900019FB06904FF07C50129903F0E9FB03907C
:101AA000109903F0E5FB0490239903F00BFB0590DC
:101AB000069903F04DFA07903A9903F0D9FB099083
:101AC00077480168229803F0FDFA0890099903F01D
:101AD000F9FA0B904FF08040189903F0F3FA059053
:101AE0001A9903F035FA0690389903F0C1FB079074
:101AF0001E9903F0E7FA09904FF08040139903F024
:101B0000E1FA04901B9903F0B3FB0590369903F0BA
:101B1000AFFB07901D9880F000400690079903F0F6
:101B2000D1FA0890099903F013FA0A900B9903F07F
:101B30009FFB0C900D9903F00BFA0E900F9903F098
:101B400007FA31904FF07C50159903F091FB079004
:101B5000129903F08DFB0890229903F0B3FA0A90D2
:101B60001399179803F0F4F90890239903F0AAFA4F
:101B700009900A9903F0ECF90B903C9903F078FB7B
:101B80000D9046480168209803F09CFA0B9042485B
:101B90000168239803F096FA0A900B9903F068FB0A
:101BA0000C900D9903F08EFA0F901199189803F08C
:101BB000CFF90690229903F085FA089016991498A7
:101BC00003F056FB0690239903F07CFA07900899DE
:101BD00003F0BEF909903B9903F04AFB0B903148A2
:101BE0000168229803F06EFA09902D480168239845
:101BF00003F068FA0890099903F0AAF90A900B9982
:101C000003F060FA0D901799139803F031FB0490DC
:101C1000229903F057FA06904FF07C50129903F086
:101C200027FB0390109903F023FB0490239903F002
:101C300049FA0590069903F08BF907903A9903F059
:101C400017FB099014480168229803F03BFA0890AA
:101C5000099903F037FA0B904FF08040129903F086
:101C600031FA04904FF08040159903F02BFA4FF0B1
:101C70007E51029003F0F2FA0390049903F0F8FA0F
:101C80000590399903F0F4FA0790044801684FF081
:101C9000814003F017FA07E05C00002054000020A8
:101CA00058000020500000200690079903F00AFA1F
:101CB00009904FF08040189903F004FA03901A99A4
:101CC00003F046F90490389903F0D2FA05901F9971
:101CD00003F0F8F907904FF08040139903F0F2F900
:101CE00003901B9903F0C4FA0490369903F0C0FAEC
:101CF00005901C9903F0E6F90690079903F028F97E
:101D00000890099903F0B4FA0A900B9903F020F9AE
:101D10000C900D9903F01CF90E900F9903F018F92F
:101D200030904FF07C50159903F0A2FA0790129969
:101D300003F09EFA0890229903F0C4F90A901399CF
:101D4000179803F005F90890239903F0BBF909905F
:101D50000A9903F0FDF80B903C9903F089FA0D9075
:101D6000FE480168209803F0ADF90B90FC4801682B
:101D7000239803F0A7F90A900B9903F079FA0C90D5
:101D80000D9903F09FF90F901199189803F0E0F85E
:101D90000690229903F096F908901699149803F08A
:101DA00067FA0690239903F08DF90790089903F0DC
:101DB000CFF809903B9903F05BFA0B90E948016872
:101DC000229803F07FF90990E7480168239803F00F
:101DD00079F90890099903F0BBF80A900B9903F080
:101DE00071F90D901799139803F042FA0490229913
:101DF00003F068F906904FF07C50129903F038FA1E
:101E00000390109903F034FA0490239903F05AF9DF
:101E10000590069903F09CF807903A9903F028FA88
:101E20000990CF480168229803F04CF90790219857
:101E300080F000400590C9480168059803F042F918
:101E40000690079903F014FA0890099903F03AF9FB
:101E50000B904FF08040129903F034F904904FF04A
:101E60008040159903F02EF94FF07E51029003F057
:101E7000F5F90390049903F0FBF90590399903F003
:101E8000F7F90790B54801684FF0814003F01AF95F
:101E90000690079903F016F9099000E06BE14FF006
:101EA0008040189903F00EF903901A9903F050F846
:101EB0000490389903F0DCF905901C9903F002F9BD
:101EC00007904FF08040139903F0FCF802901B99A3
:101ED00003F0CEF90390369903F0CAF905901F98E4
:101EE00080F000400490059903F0ECF80690079903
:101EF00003F02EF80890099903F0BAF90A900B99AB
:101F000003F026F80C900D9903F022F80E900F992B
:101F100003F01EF82F904FF07C50159903F0A8F9AC
:101F20000790129903F0A4F90890229903F0CAF8D7
:101F30000A901399179803F00BF80890239903F06F
:101F4000C1F809900A9903F003F80B903C9903F04B
:101F50008FF90D9084480168239803F0B3F80C9032
:101F60000D9903F0AFF80F901199189802F0F0FF57
:101F70000690229903F0A6F808901699149803F099
:101F800077F90690239903F09DF80790089902F0DD
:101F9000DFFF09903B9903F06BF90B906F480168E4
:101FA000229803F08FF80990239880F00040079062
:101FB0006B480168079803F085F80890099902F0CA
:101FC000C7FF0A900B9903F07DF80D9017991398AD
:101FD00003F04EF90490229903F074F806904FF044
:101FE0007C50129903F044F90390109903F040F9E2
:101FF0000490239903F066F80590069902F0A8FF73
:1020000007903A9903F034F90990574801682298EB
:1020100003F058F80790219880F00040059051484F
:102020000168059803F04EF80690079902F090FFBA
:102030000890099903F046F80B904FF080401899EA
:1020400003F040F805901A9902F082FF0690389943
:1020500003F00EF907901D9903F034F809904FF042
:102060008040139903F02EF805901B9903F000F9B6
:102070000690369903F0FCF807901E9903F022F8B9
:102080000890099902F064FF0A900B9902F060FF32
:102090000C900D9902F05CFF0E900F9902F058FF22
:1020A0002E902E99084603F00DF80E902F990846B1
:1020B00003F008F80C903099084603F003F80A90F2
:1020C0003199084602F0FEFF09900A9902F040FF9C
:1020D0000B900C9902F03CFF0D900E9902F038FF26
:1020E0000F9002F0A1F83290DDE9310102F0EAFF31
:1020F00031903299309802F0E5FF309032992F9864
:1021000002F0E0FF2F9032992E9802F0DBFF2E9024
:1021100016483199006802F0D5FF0F902D9903F011
:102120009DF82D9011483099006802F0CBFF0F9078
:102130002C9903F093F82C900C482F99006802F02A
:10214000C1FF0F902B9903F089F82B9007482E9927
:10215000006802F0B7FF0F902A9909E058000020AC
:10216000500000205C000020540000204C000020A3
:1021700003F074F82A90A3492D9802F0A3FF0F9062
:10218000A14801680F9802F0E3FE9F4908609D494D
:102190002C9802F097FF0F909C4801680F9802F06E
:1021A000D7FE9A49086097492B9802F08BFF0F9051
:1021B000974801680F9802F0CBFE95490860914955
:1021C0002A9802F07FFF0F90924801680F9802F062
:1021D000BFFE9049086008460168006802F072FF7F
:1021E0000E908B480168006802F06CFF0C908748E5
:1021F0000168006802F066FF0A9083480168006881
:1022000002F060FF09900A9902F0A2FE0B900C996F
:1022100002F09EFE0D900E9902F09AFE0F9002F0D1
:1022200003F8329078483299006802F04BFF764903
:10223000086076483299006802F044FF73490860EC
:1022400073483299006802F03DFF71490860714897
:102250003299006802F036FF6E4908606B480168E9
:102260004FF0804002F02EFF04906A480168049805
:1022700002F028FF0690644801684FF0804002F0A9
:1022800021FF049062480168049802F01BFF05904A
:10229000069902F0EDFF079002F02EFECDE908014D
:1022A00001F036FC5C4A5D4BCDE90A0102F0DAF937
:1022B00000225B4BCDE90C0102F044FBCDE90E019D
:1022C00002F0EEF8574908604FF08040129902F092
:1022D000F9FE04904FF08040159902F0F3FE4FF0A4
:1022E0007E51029002F0BAFF0390049902F0C0FF01
:1022F000059002F001FECDE908014FF080401199F0
:1023000002F0E0FE04904FF08040189902F0DAFEEF
:102310000390049902F01CFE059002F0EDFDCDE95A
:102320000601DDE9082301F043FE3B4A3B4BCDE9C2
:102330000A0102F097F90022394BCDE90C0102F0B5
:1023400001FBCDE90E0102F0ABF8374908603148D6
:1023500001684FF0804002F0B5FE02902D48016800
:10236000029802F0AFFE0490294801684FF08040C7
:1023700002F0A8FE019026480168019802F0A2FE32
:102380004FF07E51029002F069FF0390049902F031
:102390006FFF059002F0B0FDCDE908011B48016810
:1023A0004FF0804002F08EFE0290194801680298BA
:1023B00002F088FE04904FF08040169902F082FEF1
:1023C0000390049902F0C4FD059002F095FDCDE95B
:1023D0000601DDE9082301F0EBFD0F4A0F4BCDE9C3
:1023E0000A0102F03FF900220D4BCDE90C0102F089
:1023F000A9FACDE90E0102F053F80C49086000BFBC
:10240000FFF73DB80AD7A33C50000020540000203D
:10241000580000205C0000201F85EB51B81E0940C9
:102420000080664014000020180000201C000020DE
:102430002DE9F0410026C824002700254FF00008B0
:1024400000BF12E000F0B6F81048B0F900000744F1
:102450000E48B0F9020005440C48B0F9040080446D
:10246000022001F087FE701CC6B2A642EADB97FB91
:10247000F4F000B20649088095FBF4F000B2488001
:1024800095FBF4F000B28880BDE8F08106000020E2
:102490003400002000BFFEE770472DE9F0410246FE
:1024A00000250026002000230024002791F803C007
:1024B0000CF00F0591F803C00CF0100CBCF1000FEC
:1024C00003D091F802C04CEA050591F800C0BCF1B8
:1024D000000F31D0146800202BE04FF0010C0CFAF3
:1024E00000F3B1F800C00CEA03069E4220D183003D
:1024F0004FF00F0C0CFA03F7BC4305FA03FC4CEA4F
:10250000040491F803C0BCF1280F06D14FF0010C70
:102510000CFA00FCC2F814C00AE091F803C0BCF148
:10252000480F05D14FF0010C0CFA00FCC2F810C0A6
:10253000401C0828D1D31460B1F800C0BCF1FF0FD3
:1025400034DD546800202EE000F1080C4FF0010843
:1025500008FA0CF3B1F800C00CEA03069E4221D140
:1025600083004FF00F0C0CFA03F7BC4305FA03FC91
:102570004CEA040491F803C0BCF1280F05D100F126
:10258000080C08FA0CF8C2F8148091F803C0BCF1EA
:10259000480F07D100F1080C4FF0010808FA0CF8B9
:1025A000C2F81080401C0828CED35460BDE8F081EA
:1025B0000161704710B5094A911E881E00F087FF1F
:1025C000074A911E881E00F05BFF064A911E881E76
:1025D00000F0A4FF044800F0D9FF10BD0400002063
:1025E0000A00002010000020480000202DE9F041E2
:1025F0004FF00008C82400250026002700BF14E083
:10260000FFF7D8FF1148B0F9000005440F48B0F9B2
:10261000020006440D48B0F904000744022001F00E
:10262000A9FD08F1010000F0FF08A045E8DB95FBDB
:10263000F4F000B20649088096FBF4F000B248803E
:1026400097FBF4F000B28880BDE8F0810000002024
:102650003A00002000BFFEE710B500200F490860D7
:102660000F48406820F470400D49486008464068B3
:1026700040F44050486000200A49C1F8AC010220F3
:1026800001F09EFD012005490860022001F098FD3F
:1026900000200449C1F8B00110BD0000B001224281
:1026A000001001400000224208B50121102000F076
:1026B0006DFE4FF4C050ADF8000010208DF80300FF
:1026C00003208DF8020069460448FFF7E6FE01206A
:1026D000034908600349C1F8AC0108BD001001407E
:1026E000B00122420000224210B500200F490860CC
:1026F0000F48406820F470400D4948600846406823
:1027000040F44050486001200A49C1F8AC01022061
:1027100001F056FD012005490860022001F050FD3E
:1027200000200449C1F8B00110BD0000B0012242F0
:10273000001001400000224270B5054600241748F1
:10274000406820F47040154948600846406840F4ED
:1027500000404860002616E0002011490860022071
:1027600001F02EFD01200F49C1F8B0016006040EF2
:102770000B488438006808B1601CC4B2012001F025
:102780001FFD701CC6B2082EE6DB15B9FFF7ACFFC3
:1027900001E0FFF761FF204670BD0000001001401E
:1027A000B00122420000224270B50446154840683C
:1027B00020F47040134948600846406840F4405097
:1027C0004860002010490860002517E0E0090E4924
:1027D000091F08606006040E022001F0F1FC0120D0
:1027E0000A49C1F8B001022001F0EAFC00200649C4
:1027F0000860022001F0E4FC681CC5B2082DE5DB8E
:1028000070BD000000100140B001224200002242D1
:1028100010B50F48406820F470400D4948600846E4
:10282000406840F44050486001200A4908600A4965
:10283000C1F8B001042001F0C3FC00200549086084
:10284000042001F0BDFC00200349C1F8B00110BD17
:1028500000100140AC0122420000224210B50F4896
:10286000406820F470400D4948600846406840F4D4
:102870004050486000200A4908600A49C1F8AC018C
:10288000042001F09DFC0120054908600549C1F8BC
:10289000AC01042001F094FC10BD000000100140C8
:1028A000B00122420000224210B5002414484068C2
:1028B00020F47040124948600846406840F40040E7
:1028C000486001200F49086001F07AFC01200E49A0
:1028D000C1F8B00101F074FC07E0601CC4B2FA2C2E
:1028E00003DDFFF7BBFF012010BD064880380068FC
:1028F0000028F2D10349091D086000BFF4E7000079
:1029000000100140AC0122420000224210B580229A
:102910006B21D02000F0FBFE642001F02BFC002294
:102920006B21D02000F0F3FE032000F084F8022099
:1029300000F078F8642000F0A5F800223821D020BB
:1029400000F0E5FE00226A21D02000F0E0FE002227
:102950002321D02000F0DBFE80223721D02000F0A0
:10296000D6FE7521D02000F0B3FE0446712C11D1A3
:102970000BA0FDF759FC01226B21D02000F0C7FE0F
:1029800000226C21D02000F0C2FE322000F07AF844
:10299000002010BD09A0FDF747FC0120F9E7000069
:1029A0004D50553932353020496E69742053756366
:1029B000636573732E2E2E0A000000004D505539AA
:1029C00032353020496E6974204661696C2E2E2E96
:1029D0000A00000008B50121242000F0D7FC4FF4C4
:1029E0008070ADF8000010208DF8030003208DF8F2
:1029F000020069460948FFF750FD4FF4807107480F
:102A0000FFF7D6FD0120ADF8000069460448FFF746
:102A100044FD01210248FFF7CBFD08BD000801403D
:102A20000014014010B50446E006020E1C21D0201F
:102A300000F06DFE10BD10B50446E006020E1B212D
:102A4000D02000F064FE10BD70B504460025B82CFF
:102A500001DB012510E05C2C01DB02250CE0292CB8
:102A600001DB032508E0142C01DB042504E00A2C1B
:102A700001DB052500E006252A461A21D02000F0BA
:102A800046FE70BD70B50446B4F57A7F01DD4FF4A3
:102A90007A74042C00DA04244FF47A7090FBF4F07A
:102AA000401EC5B22A461921D02000F030FE05464E
:102AB000264604EBD671C1F34F00FFF7C5FF70BD8A
:102AC0000FB5ADB0FE482F99006802F0FBFA0E90EA
:102AD000FC482E99006802F0F5FA0C90FA4800685C
:102AE00080F000400A902D9902F0ECFA0B900C99BE
:102AF00002F0BEFB0D900E9902F0BAFB4FF07C5134
:102B00000F9002F0DFFA2690ED482E99006802F04F
:102B1000D9FA0E90EB482F99006802F0D3FA0C9086
:102B2000EA4801682D9802F0CDFA0B900C9902F05A
:102B30000FFA0D900E9902F09BFB4FF07C510F9015
:102B400002F0C0FA2590DE4801682D9802F0BAFA2A
:102B50000E90DD482F99006802F0B4FA0C90DB4823
:102B60002E99006802F0AEFA0B900C9902F080FBEF
:102B70000D900E9902F0ECF94FF07C510F9002F09D
:102B8000A1FA2490CF4801682D9802F09BFA0E908C
:102B9000CD482E99006802F095FA0C90CB482F99F9
:102BA000006802F08FFA0B900C9902F0D1F90D90A9
:102BB0000E9902F05DFB4FF07C510F9002F082FA0B
:102BC00023900021309802F031FA09D10021329887
:102BD00002F02CFA04D10021339802F027FA7DD0BC
:102BE0003399084602F06EFA0E903299084602F0C8
:102BF00069FA0C903099084602F064FA0B900C992F
:102C000002F0A6F90D900E9902F0A2F90F9001F0D2
:102C10000BFB2B902B99309802F054FA30902B99A3
:102C2000329802F04FFA32902B99339802F04AFA18
:102C30003390A64801684FF0804002F043FA22909A
:102C4000A14801684FF0804002F03CFA21909D4875
:102C500001684FF0804002F035FA209098480168F2
:102C60004FF0804002F02EFA1F90984801684FF014
:102C7000814002F027FA1E90934801684FF081408E
:102C800002F020FA1D908F4801684FF0814002F059
:102C900019FA1C908C4801684FF0824002F012FA39
:102CA0001B90884801684FF0824002F00BFA1A909E
:102CB00086480168006802F005FA199082480168A8
:102CC000006802F0FFF918907E480168006802F081
:102CD000F9F917907A480168006800E06FE102F0A6
:102CE000F1F91690784801687848006802F0EAF92E
:102CF0001590744801687548006802F0E3F9149073
:102D00006F4801687148006802F0DCF913906D4863
:102D100001686D48006802F0D5F9129068480168B2
:102D20006948006802F0CEF911906548016865486D
:102D3000006802F0C7F910903299219802F0C2F9A8
:102D40000F9018991E9802F0BDF90D9030992098B7
:102D500002F0B8F90B9017991E9802F0B3F90A9097
:102D60000B9902F0F5F80C900D9902F0F1F80E9025
:102D70000F9902F07DFA2A9033991D9802F0A2F97A
:102D80000F9017991B9802F09DF90D9018991B98B8
:102D900002F098F90B903299229802F093F908907A
:102DA0004FF08140199902F08DF90490464801686E
:102DB000049802F087F9069030991F9802F082F982
:102DC000049016991D9802F07DF90390049902F081
:102DD0004FFA0590069902F0BBF80790089902F0A7
:102DE00047FA09901D9902F043FA0A900B9902F0F4
:102DF000AFF80C900D9902F0ABF80E900F9902F01D
:102E0000A7F8299033991C9802F05CF90F90179954
:102E10001A9802F057F90D9018991A9802F052F981
:102E20000B9032991F9802F04DF9089016991C9852
:102E300002F048F906903099229802F043F9049084
:102E40004FF08140199902F03DF902901D48016848
:102E5000029802F037F90390049902F079F805908E
:102E6000069902F075F80790089902F001FA0990A6
:102E70001C9902F0FDF90A900B9902F069F80C9088
:102E80000D9902F065F80E900F9902F061F8289004
:102E90003299209802F016F90F904FF0814017995F
:102EA00002F010F90B90064801680B9802F00AF93D
:102EB0000D903099219802F005F90B9008E0000080
:102EC0005C0000205800002054000020500000202A
:102ED0004FF08140189902F0F5F80990DB4801683D
:102EE000099802F0EFF80A900B9902F0C1F90C90E2
:102EF0000D9902F02DF80E900F9902F0B9F9279074
:102F00002799084602F0DEF80E902899084602F04C
:102F1000D9F80C902999084602F0D4F80A902A9919
:102F2000084602F0CFF809900A9902F011F80B90C8
:102F30000C9902F00DF80D900E9902F009F80F901F
:102F400001F072F92B90DDE92A0102F0BBF82A901A
:102F50002B99299802F0B6F829902B99289802F01D
:102F6000B1F828902B99279802F0ACF82790B84830
:102F70002A99006802F0A6F80F90269902F06EF9DF
:102F80002690B3482999006802F09CF80F90259983
:102F900002F064F92590AE482899006802F092F892
:102FA0000F90249902F05AF92490A94827990068B3
:102FB00002F088F80F90239902F050F92390A54968
:102FC000269802F07FF80F90A34801680F9801F04F
:102FD000BFFFA14908609F49259802F073F80F9040
:102FE0009E4801680F9801F0B3FF9C490860994919
:102FF000249802F067F80F90994801680F9801F043
:10300000A7FF974908609349239802F05BF80F9057
:103010008E4801680F9801F09BFF8C4908600846B4
:103020000168006802F04EF80E908D480168006853
:1030300002F048F80C9089480168006802F042F8F4
:103040000A9085480168006802F03CF809900A99E6
:1030500001F07EFF0B900C9901F07AFF0D900E9914
:1030600001F076FF0F9001F0DFF82B907A482B9952
:10307000006802F027F87849086078482B990068C2
:1030800002F020F87549086075482B99006802F035
:1030900019F8734908606D482B99006802F012F81E
:1030A0006A4908606D4801684FF0804002F00AF8F4
:1030B000049066480168049802F004F80690664897
:1030C00001684FF0804001F0FDFF04906448016802
:1030D000049801F0F7FF0590069902F0C9F80790EF
:1030E00001F00AFFCDE9080100F012FD5D4A5E4BD8
:1030F000CDE90A0101F0B6FA00225C4BCDE90C01E2
:1031000001F020FCCDE90E0101F0CAF95849086030
:103110004FF08040179901F0D5FF04904FF08040A8
:10312000189901F0CFFF4FF07E51029002F096F80F
:103130000390049902F09CF8059001F0DDFECDE9C2
:1031400008014FF08040109901F0BCFF04904FF04F
:103150008040159901F0B6FF0390049901F0F8FE44
:10316000059001F0C9FECDE90601DDE9082300F074
:103170001FFF3C4A3C4BCDE90A0101F073FA0022E3
:103180003A4BCDE90C0101F0DDFBCDE90E0101F078
:1031900087F9384908602D4801684FF0804001F0F8
:1031A00091FF029029480168029801F08BFF04907A
:1031B0002B4801684FF0804001F084FF01902848BF
:1031C0000168019801F07EFF4FF07E51029002F0FD
:1031D00045F80390049902F04BF8059001F08CFE3D
:1031E000CDE908011D4801684FF0804001F06AFFF9
:1031F00002901B480168029801F064FF04904FF0B0
:103200008040139901F05EFF0390049901F0A0FE45
:10321000059001F071FECDE90601DDE9082300F01B
:10322000C7FE104A104BCDE90A0101F01BFA00223B
:103230000E4BCDE90C0101F085FBCDE90E0101F04B
:103240002FF90D49086031B000BD00005C0000207E
:103250004C0000200AD7A33C50000020540000205E
:10326000580000201F85EB51B81E094000806640C1
:1032700014000020180000201C00002000BFFEE702
:103280002DE9F04106460F4614461D46FFF7C0FAE9
:103290003046FFF789FAFFF707FB20B1FFF7DEFAA8
:1032A0000120BDE8F0813846FFF77EFAFFF7FCFA0F
:1032B000FFF7AEFA711CC8B2FFF776FAFFF7F4FA1F
:1032C0000DE0012C04D10020FFF736FA287003E04E
:1032D0000120FFF731FA2870601EC4B26D1C002C6B
:1032E000EFD1FFF7BBFA0020DBE7704738B50446A3
:1032F0004FF4A06000F03EF8012C02D1009800F0DD
:10330000ADFA38BD70B5002100230F22C47804B394
:10331000154C246804F4E064C4F5E064210AC1F1AA
:103320000403CA40447804FA03F18478144021432A
:1033300009010E4C0678A155047804F01F050124FC
:10334000AC4005786D11AD0005F1E025C5F80041F0
:1033500009E0047804F01F050124AC40044D067810
:10336000761145F8264070BD0CED00E000E400E069
:1033700080E100E002490143024A11607047000009
:103380000000FA050CED00E07047000029B1064A84
:1033900092690243044B9A6104E0034A92698243B2
:1033A000014B9A61704700000010024030B50021C7
:1033B0000022002400232D4D6D6805F00C0121B181
:1033C000042905D0082923D105E0294D056022E014
:1033D000274D05601FE0254D6D6805F47012234DE3
:1033E0006D6805F48034022505EB92421CB9214D2D
:1033F000554305600BE01D4D6D6805F400351DB1AA
:103400001C4D5543056002E0194D5543056002E02F
:10341000174D056000BF00BF144D6D6805F0F00149
:103420000909154D6B5C0568DD4045600F4D6D6801
:1034300005F4E061090A104D6B5C4568DD4085606C
:103440000A4D6D6805F46051C90A0B4D6B5C456807
:10345000DD40C560054D6D6805F44041890B074DA1
:103460006B5CC568B5FBF3F5056130BD001002402B
:1034700000127A0000093D0076000020860000203E
:103480007CB504460D4616466B4606223B21D020ED
:10349000FFF7F6FE08B101207CBD9DF801009DF804
:1034A000001040EA012000B220809DF803009DF842
:1034B000021040EA012000B228809DF805009DF826
:1034C000041040EA012000B230800020E4E77CB51F
:1034D00004460D4616466B4606224321D020FFF7D0
:1034E000CFFE08B101207CBD9DF801009DF80010C1
:1034F00040EA012000B220809DF803009DF80210F0
:1035000040EA012000B228809DF805009DF80410D3
:1035100040EA012000B230800020E4E77CB5044698
:103520000D46164602223721D02000F0F0F80A207E
:1035300000F020FE01220A21182000F0E8F80A20FD
:1035400000F018FE6B46062203211820FFF798FEB4
:1035500008B101207CBD9DF800009DF8011040EAF3
:10356000012000B220809DF802009DF8031040EA7F
:10357000012000B228809DF804009DF8051040EA63
:10358000012000B230800020E4E700002DE9F84F70
:1035900082466B4602224121D020FFF771FE9DF842
:1035A00001009DF8001040EA01200FFA80FB584608
:1035B00001F0B0F98046084A084B01F053F806467E
:1035C0000022074B00F09EFF044600F069FFCAF896
:1035D00000000020BDE8F88F52B81E85EBDD744076
:1035E00000003540704710B500F002F810BD000033
:1035F0000CB50020019000903348006840F4803002
:103600003149086000BF3048006800F40030009085
:103610000198401C0190009818B90198B0F5A06F6E
:10362000F1D12948006800F4003010B10120009069
:1036300001E0002000900098012843D12348006851
:1036400040F01000214908600846006820F003009F
:1036500008600846006840F0020008601A484068A8
:10366000194948600846406848600846406840F488
:10367000806048600846406820F47C104860084636
:10368000406840F4E81048600846006840F08070E8
:10369000086000BF0C48006800F000700028F9D0F6
:1036A0000948406820F00300074948600846406820
:1036B00040F00200486000BF0348406800F00C0082
:1036C0000828F9D10CBD0000001002400020024083
:1036D00070B504460D46FFF79BF82046FFF764F8E7
:1036E000FFF7E2F82846FFF75FF8FFF7DDF8FFF78E
:1036F0008FF8611CC8B2FFF757F8FFF7D5F8002024
:10370000FFF71AF80646FFF7A9F8304670BD70B506
:1037100006460C461546FFF77BF83046FFF744F89F
:10372000FFF7C2F818B1FFF799F8012070BD2046E5
:10373000FFF73AF8FFF7B8F82846FFF735F8FFF734
:10374000B3F8FFF78BF80020F0E7042808D14FF01A
:10375000E021096941F004014FF0E022116107E026
:103760004FF0E021096921F004014FF0E0221161DE
:103770007047704710B51348006840F001001149C8
:10378000086008464068104908400E4948600846ED
:1037900000680E4908400B4908600846006820F49C
:1037A000802008600846406820F4FE0048604FF41E
:1037B0001F008860FFF717FF4FF0006004490860A2
:1037C00010BD0000001002400000FFF8FFFFF6FEF1
:1037D00008ED00E010B540F225511D4800F05AF800
:1037E00010B31B4800F012F9C4B21A48008800F464
:1037F0000040C8B91748008800F4804060B10A2C26
:1038000003D000201349088020E01248008840F4CB
:1038100000401049088019E00D2C06D10D480088A1
:1038200040F480400B49088010E00A480088C0F34B
:103830000D0009490C5407480088401C05490880C0
:1038400008460088C72801DD0020088010BD000060
:103850000038014074000020B000002001B5252090
:103860008DF8000003208DF801008DF80200012082
:103870008DF803006846FFF745FD08BD21B1828938
:1038800042F40052828104E082894DF6FF731A40AF
:103890008281704770B50246002400230025002075
:1038A00040F66A16B14200D100BFC1F3421501F0E3
:1038B0001F03012606FA03F3012D02D19689334036
:1038C00006E0022D02D1168A334001E0968A334089
:1038D0000C12012606FA04F41688344013B10CB118
:1038E000012000E0002070BDF0B503460024002652
:1038F0000025002040F66A17B94200D100BF1846E3
:10390000C1F3421401F01F06012707FA06F5012C46
:1039100001D10C3004E0022C01D1103000E0143051
:103920001AB107682F43076002E00768AF430760DA
:10393000F0BD00002DE9F04786B005460E46002494
:10394000A24600BFA1460027B08900B100BF2F46A4
:103950002C8A4CF6FF700440F08804432C82AC891A
:103960004EF6F3100440B08831890843718908434A
:103970000443AC81AC8A4FF6FF400440B089044355
:10398000AC8201A8FFF712FD1F48874202D1DDF883
:1039900010A001E0DDF80CA0A88900F4004040B1BF
:1039A0000AEBCA0000EB0A1031684900B0FBF1F8DD
:1039B00007E00AEBCA0000EB0A1031688900B0FB8F
:1039C000F1F86420B8FBF0F004012009642101FB48
:1039D0001089A88900F4004040B1322000EBC900F2
:1039E000B0FBF1F000F00700044308E0322000EBE8
:1039F00009106421B0FBF1F000F00F0004432C81AA
:103A000006B0BDE8F0870000003801400146888814
:103A1000C0F30800704700BFFEE7490050EAC1202C
:103A200018BF04204A0D18BF40F0010040F2FF7299
:103A3000B2EB515F08BF40F00200012808BF05202B
:103A400070472DE9F0414F1E00EBC7010446D1E954
:103A5000000115461E4637F006020DD02A463346B1
:103A600000F070FF7F1E04EBC703D3E9002300F0D2
:103A700049FD37F00602F1D1022F25D0042F13D0D3
:103A8000062F18BFBDE8F0812A46334600F05AFFE2
:103A9000D4E90A2300F036FD2A46334600F052FFEF
:103AA000D4E9082300F02EFD2A46334600F04AFFF1
:103AB000D4E9062300F026FD2A46334600F042FFF3
:103AC000D4E9042300F01EFD2A46334600F03AFFF5
:103AD000D4E9022300F016FD2A46334600F032FFF7
:103AE000D4E90023BDE8F04100F00CBD024A0020FB
:103AF000110701F066BC000001FDFFFF30380A2805
:103B000001D20120704700207047014600BF704776
:103B10002DE9F04D904F21F0004A86B005460C4645
:103B2000BA4530DBAAEB070028430CD08B4882450E
:103B300001DC1CD1DDB106B02846BDE8F04D4FF0E8
:103B4000010201F03EBC864A864B284600F0FAFE90
:103B500007460E46844A854B2846214600F0F2FE71
:103B600006B03A463346BDE8F04D00F0CBBC01202C
:103B7000FCF7F6FB06B00022BDE8F04D13461046F8
:103B8000114600F06FBD7A48824542DABAF1795F9A
:103B90000BDA2846FFF741FF042808BFFFF7A6FF0E
:103BA000284606B02146BDE8F08D2A460B46104651
:103BB00000F0C8FE834602466E480E460B460621BC
:103BC0007844FFF73EFF5A46334600F0BBFE80467E
:103BD00069488A465A46334604217844FFF731FF44
:103BE0005A46334600F0AEFE00223B4600F08AFC07
:103BF00002460B464046514600F034FD2A46234615
:103C000000F0A0FE06B02A462346BDE8F04D00F0C5
:103C100079BC284624F0004100223D463B4600F096
:103C20008FFF4FF0FF3201F0CCFB064602465348AF
:103C30000F460B4606217844FFF703FF32463B460A
:103C400000F080FECDE900014D4832463B4604219C
:103C50007844FFF7F6FE32463B4600F073FE002242
:103C60002B4600F04FFC834602913046394600F067
:103C700095FB804643480D46504517DCDDE90001C1
:103C80005A46029B00F0EEFC42462B4600F05AFEDC
:103C900042462B4600F036FC012201F092FB304AEE
:103CA000304B01F03FF8304A304B4CE04FF0000A07
:103CB00052460B46404600F025FCCDE90310524623
:103CC0002B461046194600F03DFE32463B4600F0BA
:103CD00037FFDDE9033200F0C5FC06460F46DDE99B
:103CE00000015A46029B00F0BDFC83460091012270
:103CF0003046394601F065FB194A1A4B00F020FFA7
:103D000006460F4601224046294601F05AFB5A4614
:103D1000009B00F017FE32463B4601F003F80746D1
:103D20000E4601225046294601F04BFB0E4DDFF8AE
:103D300058802A46434600F003FF3A46334600F0D7
:103D4000FFFE2A46434600F0FBFE002CD8BF81F060
:103D5000004106B0BDE8F08D0000F03F0000F07FAC
:103D6000075C143326A6913C182D4454FB21F93FDF
:103D70000000E03F8C180000A21800001618000098
:103D80002C1800003333EF3FFB21E93F2DE9F84FBA
:103D900004460D4621F0004000917449814213DC35
:103DA0007349884201DC08D13CB120462946BDE870
:103DB000F84F4FF0010201F004BB6E48002DCCBF5C
:103DC0006D496E49BDE8F88F6D49814211DD6D493D
:103DD0008142D8BF4FF0FF366DDD20462946FFF700
:103DE0001CFE042808BFFFF781FE20462946BDE8D7
:103DF000F88F6549654F25F00045814233DD644900
:103E0000814219DD002632464FF080432046294684
:103E100000F078FB80468A4601222046294601F0C0
:103E2000D0FA00223B4600F07DFF4246534600F0A8
:103E300019FC04460D463EE001260022BA463B46E8
:103E40002046294600F05EFB80460F46002253467E
:103E50002046294600F066FF42463B4600F002FC41
:103E600004460D4627E04B4981421BDDDFF82881DF
:103E70000226002243462046294600F063FD002228
:103E80003B4600F03FFB07468A4600224346204659
:103E9000294600F047FF3A46534600F0E3FB04464C
:103EA0000D4608E0032622462B4600203B4900F041
:103EB000D9FB04460D4622462B461046194600F013
:103EC00041FD8B46824602460B4600F03BFD07460D
:103ED0000246334888460B4606217844FFF7B1FD79
:103EE00052465B4600F02EFD82462E488B463A46EF
:103EF000434605217844FFF7A4FD3A46434600F0C7
:103F000021FD02460B46002E504659460CDA00F0C1
:103F1000F9FA22462B4600F015FD01B022462B4649
:103F2000BDE8F04F00F00CBE00F0ECFA22462B4644
:103F300000F008FD1C4A7A4402EBC603D3E90023D3
:103F400000F0F0FE22462B4600F0ECFE174A7A44C1
:103F500002EBC603D3E9002300F0F2FD009A002A29
:103F6000B8BF81F00041BDE8F88F000000001044A8
:103F70000000F07F182D4454FB21F93FFB21F9BFCD
:103F80000000DC3F0000203E0000F33F0000F03F57
:103F90000000E63F008003400000F83F0000F0BF53
:103FA0002A160000E8150000861500004E150000D6
:103FB0002DE9F04D9446CCF1000423F000464CEA84
:103FC0000404524F46EAD4749A46884621F00042CF
:103FD000BC4206D8454240EA050442EAD474BC42D9
:103FE00004D9BDE8F04D624600F08CBAAAF1405504
:103FF000A5F17F6555EA0C040BD0022404EAAA74EB
:10400000434DDFF810E144EAD87452EA000B04D0C3
:104010000CE0BDE8F04DFFF7B9BE002C14BF012C39
:10402000BDE8F08D022C30D0032C32D056EA0C0BB8
:104030000AD0BE4220D1BA4209D126F0804622F0F1
:1040400080423346114617E000291ADB25E0DFF8ED
:10405000C8B0FB44002C04BFDBE90001BDE8F08DD3
:10406000012C02BFDBE9000181F00041BDE8F08DC9
:10407000022C0AD0032C0CD0BA4212D1B8F1000F96
:104080000BDA23482549BDE8F08D28462449BDE8D0
:10409000F08D28467146BDE8F08D1D482149BDE8E8
:1040A000F08D921B12153C2AC4BF19481D490EDC25
:1040B000BAF1000FBEBF12F13C0F0020014606DB33
:1040C000624600F0CFFA21F00041FFF75FFE002CBE
:1040D00008BFBDE8F08D012C04BF81F00041BDE8B0
:1040E000F08D114A114B022C07D000F01BFE2A461E
:1040F000BDE8F04D0A4B00F015BE00F013FE2A4655
:10410000BDE8F04D064B00F01BBD00000000F07F45
:10411000182D4454FB2109C0E2140000FB21F9BF13
:10412000FB210940FB21F93F075C143326A6A13C83
:1041300010B56FF00400FFF708FB0A4800680A4951
:10414000B0FBF1F0094908700846007800EB400127
:10415000C1EBC0104FF6FF7101EAC00004490880AE
:1041600010BD00002000002000127A006C0000202A
:104170006E0000200146114A12884A434FF0E023A6
:104180005A6100229A611A46126942F001021A61CC
:1041900000BF4FF0E022106900F001021AB100F4F4
:1041A0008032002AF5D04FF0E022126922F001029D
:1041B0004FF0E0231A6100229A6170476E000020E0
:1041C0000146114A12784A434FF0E0235A61002217
:1041D0009A611A46126942F001021A6100BF4FF05B
:1041E000E022106900F001021AB100F48032002AC6
:1041F000F5D04FF0E022126922F001024FF0E023E7
:104200001A6100229A6170476C00002000BF054AC5
:10421000128802F04002002AF9D0C2B2014B1B1DE5
:104220001A807047003801402DE9F04704464FF0EE
:104230007C51204600F046FF814625462E460C481C
:10424000A0EB660635462946484600F03BFF82460D
:10425000294600F037FF80464FF07F5100F0FEFF07
:104260000746294600F02EFF05462846BDE8F087A0
:10427000DF59375F86B0FFF75BFF4FF4E13000F0A6
:10428000B3F8FEF7A7FBFEF70FFAFEF73FFBFEF7CA
:10429000ADF9FEF7CDF8FEF7A9F927A0FBF7C4FFAB
:1042A00048E0641CFCF7C2FF284880682749496839
:1042B000264A1268264B9B68CDE90132CDE90310EE
:1042C00023484068224D00902B68224DAA686968F7
:1042D0002868FDF7BBF8142094FBF0F100FB1140B7
:1042E000002820D11C48006800F006FE05462A463A
:1042F0000B461AA0FBF798FF1C48006800F0FCFD75
:1043000005462A460B461AA0FBF78EFF1C4800689C
:1043100000F0F2FD05462A460B461AA0FBF784FF83
:104320001CA0FBF781FF0A20FFF724FF1A488442F4
:1043300000DD0024B5E700007374617274207275AB
:104340006E696E672E2E2E0A00000000A400002069
:10435000980000208C000020140000205069746335
:10436000683A252E326620200D000000180000203B
:10437000526F6C6C3A252E32662020200D00000012
:104380001C0000205961773A252E3266202020201B
:104390000D0000000D0A0000A08601002DE9F0418B
:1043A00006460F4600F0D8FB04000D4618BF01205A
:1043B000284320F00040C0F17F6000F1E040C00FD2
:1043C0000ED0301C18BF0120384320F00040C0F14F
:1043D0007F6000F1E040C00F04BF0120FBF7C0FF89
:1043E00020462946BDE8F08110B586B0044601217B
:1043F00044F20400FEF7CAFF4FF40070ADF8140059
:1044000003208DF8160018208DF8170005A917480D
:10441000FEF743F84FF48060ADF8140004208DF8E7
:10442000170005A91148FEF738F80120FEF75EFFD6
:1044300001940020ADF80800ADF80A00ADF80C00BA
:10444000ADF810000C20ADF80E0001A90848FFF7E8
:1044500071FA012240F225510548FFF745FA012182
:104460000348FFF70BFA06B010BD0000000801403A
:104470000038014010B500290AD00878002807D07C
:1044800005487844FCF7D6FA002801D0002010BD7A
:104490000248784410BD0000721100006A1100004B
:1044A00021F00042A2F16052B2F5801F01F00043FA
:1044B00028BFD2F17F6C0BD95FEA001C43EAC2022D
:1044C00042EB507018BF704728BF20F001007047C2
:1044D000B2F5801FBCBF184670474FEA410C1CF56F
:1044E000001F02D2084600F0B4BE70B500F0D4FA46
:1044F00000000089FFF7F6BF4FF00040A0F58000F4
:104500007047000010B591EA030F48BF83F00043E5
:1045100000F11084841A71EB030C05D2121943EBDD
:104520000C03001B61EB0C01DFF824E14FEA11548E
:10453000A4EB135C1EEA430F18BF9EEA445F73D0DE
:1045400023EA0E03DCF1200E21EA045143F4801328
:1045500032D322FA0CFE10EB0E0023FA0CFE41EBD4
:104560000E01CCF1200E03FA0EFE10EB0E0051F1FD
:104570000001B1F5801FCCF1200E32D201EB0451C5
:1045800012FA0EF2BDE8104058BF7047401C38BF09
:104590005FEA420218BF7047002814BF20F00100F4
:1045A00041F100014FEA410313F5001F38BF704786
:1045B000A1F1C04100F0BEBA012A43EB0302ACF105
:1045C000200CDCF11F0E32BF4FF0000E23FA0CF36B
:1045D00010EB030041EB0451B4EB115FD0D0A1EB21
:1045E000045101F5801149085FEA300001EB0451E4
:1045F0000ED350F1000038BF12FA0EFE08D1BDE80C
:104600001040C9E7401C38BF5FEA4202CAD1C3E785
:10461000BDE810404FEA410313F5001F38BF704753
:10462000A1F1C04100F086BA9EEA445F08D011EAC9
:104630005E0FBDE8104004BF01F00041002070474C
:10464000BDE8104070B500F027FA00BF64FBBE3E25
:104650000000E0FF02494FF0000000F080BE00BF04
:104660000000F87F2DE9C04130B4DFF8A0C23CEA79
:10467000111418BF3CEA131400F0EC8081EA030522
:104680001CEA111444EAD57418BF1CEA131500F093
:10469000C780A4EB05044FF0004545EAC12145EA77
:1046A000C32341EA505143EA525304F17F749942C3
:1046B00004F500344FEAC0204FEAC22208BF9042FE
:1046C00000F09C804FEA13650FF24016765D4FEACA
:1046D000134506FB05F7C7F1807706FB07F74FEA9E
:1046E000D737A7FB03687642C8F58038A7FB06CE0C
:1046F00038BFA8F1010807FB08E64FF0000EA6FB43
:10470000028CE6FB03CEDCF1000CCEF1004E38BF8C
:10471000AEF1010EA6FB0C584FF000074FF000055C
:10472000E6FB0E87A1FB08C6A0FB07CE16EB0E0624
:1047300045F10005E1FB076515F1E04E7EBFA4F5EC
:1047400080345FEA46066D4116F1800745F10005A9
:104750004FEA17274FEA066647EA0567A6F1DE46E5
:10476000B6F1805F4FEA15251FD9384624F0010CB9
:1047700005EBC471BCF1FE6F01EB0C1102D8F0BC6B
:10478000BDE8008124425CBF01F5801E9EEAC47F23
:1047900002D4F0BCBDE80081244238D4F0BCA1F1C1
:1047A000C041BDE8004100F0C5B94FEAD22242EA5B
:1047B00043524FEAD323A7FB02864FEAD02040EAB8
:1047C000415007FB03661EEA0E0F4FEAD12105FB9D
:1047D000026658BFA6EB0056B6EB00564FEA520EE3
:1047E0004EEAC37E18EB0E0E56EB530EBDD518EBFA
:1047F00002085E417F1C55F10005B6E74FF48015B5
:104800004FF000074FF000064FF00008ADE7F0BC96
:104810004FF0000001F1C04101F00041BDE800810E
:1048200011EA0C1F0CEA131500D00CE013EA0C1F60
:1048300000F025804FF00000F0BC81EA030101F098
:104840000041BDE80081F0BC81EA0301BDE8004100
:1048500000F070B9F0BCBDE8004170B500F01CF983
:10486000097EFC3E00F007B881EA03014FF000002A
:1048700001F00041704781EA030100F05BB9F0BC30
:104880004FF000002249BDE800417047FFFDFBF9F1
:10489000F7F5F4F2F0EEEDEBE9E8E6E4E3E1E0DE73
:1048A000DDDBDAD8D7D5D4D3D1D0CFCDCCCBCAC8E5
:1048B000C7C6C5C4C2C1C0BFBEBDBCBBBAB9B8B70C
:1048C000B6B5B4B3B2B1B0AFAEADACABAAA9A8A8FF
:1048D000A7A6A5A4A3A3A2A1A09F9F9E9D9C9C9BCD
:1048E0009A99999897979695959493939291919078
:1048F0008F8F8E8E8D8C8C8B8B8A89898888878709
:104900008685858484838382828181800000FF077D
:104910000000F87F10F0004248BF4042B0FA80F338
:1049200010FA03F10AD0C3F11D0303F580634FEAC7
:10493000415002EB035202EBD12170474FF00000CF
:1049400070470000DFF848C170B51CEA111E1EBF99
:104950001CEA13159EEA0C0F95EA0C0F00F06F800D
:1049600081EA030423EA4C134EEAD47E21EA4C1177
:1049700041F4801143F48013AE44A1FB024CA0FB30
:104980000365AEF17F7E361955EB0C05A1FB034C98
:104990004CF10003A0FB021C16EB0C06654153F121
:1049A0000003094218BF46F0010613F4007F0BD143
:1049B0004FEA03314FEA0530340341EA155140EA2A
:1049C00016506FF003020AE04FEAC3214FEAC520F8
:1049D000F40241EA555140EA56506FF0020202EBF0
:1049E0002E4201EB025585EACE710AD05FEA440CF3
:1049F00018BF24F0004450F1000041F1000120EA0A
:104A0000D47040F2FE7C624500D270BDA84214BF53
:104A10004FF080444FF04044002E08BF0024BEF108
:104A2000806FA8BFA1F1C041BDE8704080F28280D4
:104A30004FF0000001F1C04101F0004170479EEAD3
:104A40000C0F0CEA131518BF95EA0C0F06D04FF0A7
:104A5000000081EA030E0EF0004170BD00F01CF86A
:104A60008900013E00F007B800F009B84FEA430C96
:104A70005FEA5C5C08D081EA030100F05BB84FEAB2
:104A8000410C5FEA5C5CF6D14FF0000001497047D1
:104A90000000FF070000F87F0EF1020E2EF0030E5B
:104AA0005EF8046B364205D4012A43EB030515F585
:104AB000001F12D8012841EB010C1CF5001F0CD877
:104AC0000ED14FEAD17C15F5001F0CEB4C0C0CF10C
:104AD000020C08BF4CEBD37C04E04FF0080C01E063
:104AE0004FEAD37C0CEB4C0526FA05F606F00706D8
:104AF000B6F1040C06D20EEB860CBDE870404CF00B
:104B0000010C6047DFE80CF0090B02024FF0004196
:104B10004FF00000A1F5002170BD19461046012894
:104B200051EB010418BFD4F5001484BF002001F03C
:104B3000004170BD0808A0F500114FEA310170472F
:104B400091EA030F10B581F000413FF5E3AC83F02B
:104B5000004300F0EFB800002DE9F04101F5801CA2
:104B6000BCF5001FC0F2C3804FEA115C21EA0C5172
:104B70000CF1FD0C41F480115FEA5C0C0CF5C07C7B
:104B800001D3400049413DA4890241EA9051870286
:104B90008E0E0A0CA45D04FB04F602FB06F6C6F1B9
:104BA0004046A4FB0662F60D46EA422606FB06F4E2
:104BB000A4FB01235242C3F1404338BF5B1EA6FB56
:104BC00002420024E6FB0324D20B42EA4446A6FB41
:104BD0000623A1FB02E2A3FB07E4A4184FF00002A6
:104BE00052F10002E3FB01426442C2F1404E38BF81
:104BF000AEF1010EA6FB04234FF00002E6FB0E32DD
:104C0000A2FB03464FF00004B61954F10004E2FB86
:104C10000264A1FB06E6A4FB07E816EB08064FF0CA
:104C2000000858F10008E4FB01687642C8F14058DA
:104C300038BFA8F10108A2FB06E4A3FB08E52D1983
:104C40004FF0000454F10004E2FB0854A1FB05E618
:104C5000A7FB04E818EB06084FF0000656F1000623
:104C6000E1FB048618F1200556F10006A809A8F119
:104C70001B08B10908F03F08B8F10A0F40EA866046
:104C80001CD901EB0C51BDE8F08100BFFCF5EEE84A
:104C9000E2DDD8D3CFCBC7C3C0BDB9B6B4B1AEACDB
:104CA000A9A7A5A3A19F9D9B9A9896959392908F53
:104CB0008D8C8B898887868584838281A0FB0068A0
:104CC00000FB01F208EB4208B8EB872807D534183F
:104CD00058EB0104D5D5401C51F10001D1E7341A3D
:104CE00078EB0104CDD4401E71F10001C9E75FEA01
:104CF0004C0C5FEA9C5C0DD105D34FF0000001F035
:104D00000041BDE8F081BDE8F04170B5FFF7C4FE99
:104D10006DDBFFBEBDE8F0414FF000000049704779
:104D20000000F87F10B591EA030F48BF83F00043FD
:104D30003FF5F0AB841A71EB030C07D212198CF01B
:104D4000004C43EB0C03001B61EB0C01DFF8A4E10A
:104D50004FEA1154A4EB135C1EEA430F18BF9EEAFE
:104D6000445F00F0B08023EA6E03524221EA04510E
:104D7000C3EB6E0338BF5B1EDCF1200E25D322FA95
:104D80000CFE10EB0E0043FA0CFE41EB0E01CCF1D1
:104D9000200E03FA0EFE10EB0E0051F10001CCF1D3
:104DA000200E29D412FA0EF201EB0451BDE8104096
:104DB00058BF7047401C1CBFB2F1004F704700281D
:104DC0000CBF491C20F00100704712EB020E43EBB0
:104DD000030218BF4FF0010E4EEA4202ACF1200C64
:104DE000DCF11E0E54D943FA0CFE10EB0E0051F10B
:104DF000FF31CCF11E0ED5D50EF1010E12FA0EFECA
:104E0000404141EB010101EB445C5FEA5C5C10D97D
:104E100010EBDE7001EB045138BFBEF1004FBDE86E
:104E2000104018BF704700280CBF491C20F001003B
:104E3000704730D24FEAD42C11F5001124F40064ED
:104E40001BD0B1FA81F20B3AA41AA41ED2F12003AE
:104E5000914030FA03F31943904001EBCC71002CE0
:104E600001EB0451BDE81040A8BF704701F1C041FB
:104E70004FF0000001F000417047B0FA80F310FAE3
:104E800003F100D110BDE41A173C4805C90AE4E754
:104E900001EB045110BD491001EB0451BDE8104075
:104EA0004FEA300002E04FF0000170474A0008BFAF
:104EB0000042F8D0B2F5001F28BF704701F0004152
:104EC0004FF0000070479EEA445F07D011EA5E0F82
:104ED000BDE8104004BF002100207047BDE810402D
:104EE00070B5FFF7D9FD00BF40DFF63E83F000410B
:104EF000104670470000E0FF43004FEAD30C4FEA32
:104F00003C0C43401FBF40070CF1605113F0FE4FB3
:104F100070471CF0006F03D100200CF00041704777
:104F20000CF0004343EA507010B540EACC0000F0AA
:104F30004AF900BF000000924FEA0001FFF7FABDF6
:104F40004FF000414FF00000A1F500217047000034
:104F500090EA010F48BF81F0004100F19081421AB0
:104F60003CBF801A89184FEAD0524FF07F4C1CEAA0
:104F7000410FA2EBD15318BF9CEA026F00F03B80B7
:104F80004FF0004C4CEA00204CEA012121FA03FCCE
:104F900010EB0C0C1ED202F1FF325FEA1C2040EB3A
:104FA000C25038BF70471CF07F0F4FEA400C18BF4B
:104FB000BCF17F4F38BF7047C3F12003994008BF51
:104FC00020F00100BCF17F4F38BF7047A0F1C04016
:104FD00000F03FB94FEA3C00000A40EBC25028BF46
:104FE0001CF0FF0F4FEA400CE6D018BFBCF17F4F1A
:104FF00038BF7047EAE79CEA026F05D010EA5C0F01
:1050000008BF00F00040704710B500F0DCF800BFAA
:1050100064FBBE3E401058BFC0F14040491058BF2D
:10502000C1F140418142EFF30080704750EA010C2A
:1050300000F113801CF5000F58BFBCF5000F01D420
:105040008842704707D710F5000F58BF11F5000FC1
:1050500015D488427047894270471CF5000F04D56B
:10506000BCF5000FF7D5814270474FF0807C1CEBF8
:10507000400F38BF1CEB410F01D28142704710B581
:1050800000F0A1F8922449004FF000504FF08051F9
:10509000FFF7C0BF10F0004148BF4042B0FA80F3B4
:1050A00010FA03F2C3F19D030BD051EAC35101EB97
:1050B0001220530638BF704700F1010008BF20F0EE
:1050C000010070474FF47F0C1CEAD0121EBF1CEA8F
:1050D000D11392EA0C0F93EA0C0F00F0478090EA8C
:1050E000010F48BF42F480724FF0004C4CEA0020A0
:1050F0004CEA012102EB0302A0FB0113A2F500021E
:10510000002918BF43F001035B0028BF4FEA3303B7
:1051100042EB22425FEA132C4CEBC2502EBFBCEB99
:10512000436FB2F57C0F70474FEA036CBCF1004F40
:1051300008BF20F00100B2F57C0F38BF70470BD5D7
:1051400082F0FF0212F5803FC8BF704700F1C040F7
:10515000D8BF00F00040704700F5000C5FEA4C0C2F
:1051600048BF7047B0F1C04000F073B890EA010F3B
:105170000CEAD11348BF42F48072624538BF6345E0
:1051800004D280EA010000F00040704710B500F042
:105190001AF800BF8900013E00F007B800F009B816
:1051A0005FEA410C5FEA1C6C08D080EA010000F065
:1051B00050B85FEA400C5FEA1C6CF6D14FF000403B
:1051C000A0F5800070470EF1020E2EF0030E5EF87F
:1051D000044B244204D44FEA4102B2F17F4F11D86C
:1051E0004FEA4003B3F17F4F0CD80ED14FEAD07C89
:1051F000B2F17F4F0CEB4C0C0CF1020C08BF4CEBE6
:10520000D17C04E04FF0080C01E04FEAD17C0CEBBC
:105210004C0324FA03F404F00704B4F1040C06D29E
:105220000EEB840CBDE810404CF0010C6047DFE849
:105230000CF0070802024FF00040A0F5800010BDFE
:105240000846420018BFD2F1807288BF00F00040CB
:1052500010BDFF2141EAD050C005704780F00040EA
:1052600090EA010F7FF57BAE81F0004100F007B8B6
:1052700090EA010F48BF81F000413FF570AE421A3D
:1052800004D882F00042A0EB020011444FEAD05251
:105290004FF07F4C1CEA410FA2EBD15318BF9CEAA0
:1052A000026F4AD04FF0004C4CEA00204CEA01213A
:1052B00021FA03FCB0EB0C0C0FD412F0FE0F36D029
:1052C0005FEA4C001DD5001240EBC25038BF70475A
:1052D0001CF03F0F18BF70470BE0A2F101025FEA1C
:1052E0001C2040EBC25038BF70471CF07F0F18BF26
:1052F0007047C3F12003994014BF401E20F0010005
:10530000704780084FEA122308BF7047B0FA80FC4C
:10531000A2EB0C02CCF1280C60FA0CF093EA122FED
:1053200004BF00EBC25070474FEAC3707047130AC6
:105330005FEADC1008BF7047F6E79CEA026F04D012
:1053400010EA5C0F08BF0020704710B5FFF73BFF65
:1053500040DFF63E81F000407047FBF7DEB80CF00E
:105360000F03092B08BF082000F059800A2B0BD02F
:10537000082B18BF704708BF1CF0400F0AD04FF031
:1053800000004FF0000170471CF0400F18BF4FF0B5
:10539000004070471CF0100F08D020F0704300F060
:1053A0007F4242EAD3014FEA4370704700F0604009
:1053B00021F07F4242EA000201F07F4040EA727031
:1053C00070474FF0FF0C4CF4E06C1CEA11531CBF0B
:1053D0009CEA030C9445C2BFDA4201EB02517047CC
:1053E000002B0DD0BCF1000F0FD0002A01F00041BE
:1053F000A4BF41F0E04141F07F614FF000007047F1
:1054000001F000414FF00000704750EA01334FF0C7
:105410009B0C18BF4CF0806C7FF41CA970471CF4E7
:10542000801F11D01CF4E02F03D06FEACC3149006B
:1054300070474FF04050EFF3008222F0704242EA92
:10544000000282F3008870474FF0000070470000B0
:10545000555555555555C53F7D6FEB0312D6D4BFF5
:105460005544880E55C1C93F3B8F68B52882A4BFFB
:1054700088B20175E0EF493F09F7FD0DE13D023FBC
:105480004B2D8A1C273A03C0C88A599CE52A004044
:1054900059018D1B6C06E6BF82922EB1C5B8B33F91
:1054A0004FBB610567ACDD3F182D4454FB21E93F3C
:1054B0009BF681D20B73EF3F182D4454FB21F93F2B
:1054C000E2652F227F2B7A3C075C143326A6813CB1
:1054D000BDCBF07A8807703C075C143326A6913C5C
:1054E000C4EB98999999C9BF711623FEC671BCBFC8
:1054F0006D9A74AFF2B0B3BF9AFDDE522DDEADBF30
:105500002F6C6A2C44B4A2BF0D5555555555D53F47
:10551000FF8300922449C23F6E204CC5CD45B73F62
:10552000513DD0A0660DB13FEB0D76244B7BA93FDA
:1055300011DA22E33AAD903F0000000000000000C5
:1055400002400000000000A0000000000540000034
:10555000000000C8000000000C4000000000409C5B
:1055600000000000194000000020BCBE0000000048
:1055700034400000BFC91B8E00000004B54000008D
:10558000504BCFD06607E2CF010000006C41000015
:105590003E8251AADFEEA73401000000D94200008C
:1055A000DCB5A0E23A301F97FFFFFFFFB4450000D3
:1055B000FD25A0C8E9A3C14FFFFFFFFFFF3F00008B
:1055C0000000008000000000FF3F0000000000809D
:1055D0000000000010560008000000208C000000B1
:1055E0006C0100089C5600088C0000204C0700004D
:1055F000880100081C00000043000000F8FFFFFFC6
:105600000C0000000E0000000F0000002E00000043
:10561000000000000000000000000000000000008A
:10562000000000000000000000000000000000007A
:1056300000A24A0400000000000000000102030470
:10564000060708090000000000000000000000003C
:10565000000000000000000000000000CDCCCC3DA8
:105660000000803F0000000000000000000000007B
:10567000000000000000000000000000000000002A
:10568000000000000000000000000102030401020D
:0C569000030406070809020406080000D5
:0400000508000131BD
:00000001FF
