:020000040800F2
:1000000010080020E501000889180008871500087D
:100010008518000867140008DB1D000800000000B8
:10002000000000000000000000000000211A00088D
:100030006B1400080000000029190008351B000897
:10004000FF010008FF010008FF010008FF01000890
:10005000FF010008FF010008FF010008FF01000880
:10006000FF010008FF010008FF010008FF01000870
:10007000FF010008FF010008FF010008FF01000860
:10008000FF010008FF010008FF010008FF01000850
:10009000FF010008FF010008FF010008FF01000840
:1000A000FF010008FF010008FF010008FF01000830
:1000B000FF010008FF010008FF010008FF01000820
:1000C000FF010008FF010008FF010008FF01000810
:1000D000FF010008991B0008FF010008FF0100084C
:1000E000FF010008FF010008FF010008FF010008F0
:1000F000FF010008FF010008FF010008FF010008E0
:10010000FF010008FF010008FF010008FF010008CF
:10011000FF010008FF010008FF010008FF010008BF
:10012000FF010008FF010008FF010008FF010008AF
:1001300000F002F800F047F80AA090E8000C8244B2
:100140008344AAF10107DA4501D100F03CF8AFF28F
:10015000090EBAE80F0013F0010F18BFFB1A43F0A5
:10016000010318477071000090710000103A24BF1D
:1001700078C878C1FAD8520724BF30C830C144BF0C
:1001800004680C607047000000230024002500264E
:10019000103A28BF78C1FBD8520728BF30C148BFEA
:1001A0000B607047662906F02A81002070471FB552
:1001B00000F0ECFB04000020002105F0FDF8E060F9
:1001C0001FBD10B510BD00F025FD1146FFF7EFFF74
:1001D00003F01EFB00F043FD03B4FFF7F2FF03BC86
:1001E00001F081FE0948804709480047FEE7FEE725
:1001F000FEE7FEE7FEE7FEE7FEE7FEE7FEE7FEE7D7
:1002000004480549054A064B70470000391B0008A1
:100210003101000810020020100800201004002006
:1002200010040020704710B54C1084EA530404D524
:100230004042C1F1000138BF491E1B4204D5524261
:10024000C3F1000338BF5B1E00F0DDF814F0804FEF
:1002500004D04042C1F1000138BF491E14F0004FE4
:1002600004D05242C3F1000338BF5B1E10BD000032
:100270000FB4044910B503AA029800F053FB10BC58
:100280005DF814FB9C0000202DE9F0474FF0000AB8
:1002900089460446C0F820A02046E1688847002827
:1002A00076D0252806D0D4E901219047206A401C49
:1002B0002062F1E7E168204600258847C4F81CA0C9
:1002C00006460027C4F818A02A2E09D0304601F0AF
:1002D00003FE38B304EB8708303EC8F8186019E015
:1002E00059F8041B204604EB87029161E1688847B6
:1002F000012F064618D1E069002820DA25F02005F4
:100300001DE0D8F8180000EB800006EB4000303804
:10031000C8F818002046E1688847064601F0DCFD71
:100320000028EED1012F0AD02E2E08D12046E168F8
:1003300088477F1C0646022F45F02005C4DBA069D4
:10034000002803DA404245F00105A061E80701D02A
:1003500025F01005B6B1A6F14100192802D82036C3
:1003600045F400654A463146204625604D46FFF774
:1003700019FF58B1012806D0ED1D25F0070000F146
:10038000080989E704E005F1040985E730468AE7B2
:10039000206ABDE8F08740EA010310B59B070FD142
:1003A000042A0DD310C808C9121F9C42F8D020BAE5
:1003B00019BA884201D9012010BD4FF0FF3010BD9D
:1003C0001AB1D30703D0521C07E0002010BD10F86B
:1003D000013B11F8014B1B1B07D110F8013B11F831
:1003E000014B1B1B01D1921EF1D1184610BD02F02A
:1003F000FF0343EA032242EA024200F0A7BA704731
:1004000070477047704753EA020C00F069802DE98D
:10041000F04B4FF00006002B1FBFB3FA83F503FA31
:1004200005F424FA05F65E4012BF1643B2FA82F5CF
:1004300002FA05F4C5F120051EBF22FA05FC44EAC4
:100440000C04203556EA044C4FEA144418BF641CCF
:100450004FF000084FF00009904271EB030C39D3C4
:10046000002919BFB1FA81F701FA07F6B0FA80F74F
:1004700000FA07F6C7F120071EBF20FA07FC46EA7C
:100480000C062037B6FBF4FCA7EB0507103F07F07E
:100490001F0BCBF120060CFA0BFB2CFA06F644BF1F
:1004A000B3460026202FA4BF5E464FF0000B5BEA48
:1004B000060C08BF4FF0010B19EB0B09ABFB027CDC
:1004C00048EB0608C01B06FB02CC0BFB03CC71EB10
:1004D0000C01C1E70B46024641464846BDE8F08B99
:1004E00013B54FF000004FF00001AFF30080BDE8FE
:1004F0001C40704710B500F04DFA006810BD10B5F3
:10050000044600F047FA046010BD70472DE9FF4F24
:100510000C461E464FF0FF378BB0D2E90001DDF8E4
:1005200060800A908A46C1F30A5505B93D4600210C
:1005300008464FF00000BAF1000F00F4400005DA61
:1005400000EB80004FF4400101EA50004FEA90595F
:10055000B9F1010F00DDB9460A9850EA4A000ED001
:1005600044F61050A5F2FF3545432F14B8F1000FA3
:100570001ED07542291E1EDDC9F100021CE0B8F133
:10058000010F4FF0000001D0302103E0F24305E0FD
:100590002154401CB042FBDB304600220021215494
:1005A0000B99C1F80880C1E900200FB0BDE8F08FB9
:1005B000BD1B6D1CDEE74A4600DA694206A800F062
:1005C0008BFA06AB93E8070003AB83E807005046BD
:1005D0000A9900F08DFB8DE80700A0F500501F3848
:1005E00000900398002D09DD42F21F014A4608449D
:1005F00003A90390684600F0ECFD08E0A0F5005068
:100600004A461F3803A90390684600F0F6FD8DE8BE
:1006100007000004000C03D04FF0FF30410800E059
:100620001046B8F1000F03D00022009215461EE0DC
:10063000751E05D400F0B2F9303262556D1EF9D541
:10064000B3460122084302D000227F1C04E0207838
:10065000302801D100227F1E002A099786D01DE094
:10066000112D07DA00F09AF9303262556D1C50EA0C
:100670000102F5D1084302D00098C8B10EE0002174
:10068000681E05E0235C625C63542254401E491CD2
:100690008142F7DBAB46A81B401E0990002004F8FE
:1006A0000B000B98099AC0F80880C0E9002B7CE782
:1006B00011264FF0000859E72DE9F04F884604460F
:1006C000D21D22F0070191B0D1E90001CDE90A0164
:1006D00001F085FB02460B98C00F01D02D2007E0EA
:1006E0002068810701D52B2002E0202101EAC0000B
:1006F000032A099001D0072A05DB0346414620461C
:1007000000F0AAF90BE12078800601D5E06900E04D
:100710000620B8F1650F814606D0B8F1660F18D0F3
:10072000B8F1670F70D131E00020B9F1110F0090DE
:1007300001DB112301E009F101030AAA01A90CA8B8
:10074000FFF7E4FEDDE90C70002609F101058346A0
:1007500047E001204B4600904FF000470AAA01A94C
:100760000CA8FFF7D3FEDDE90DB00C995D4600261D
:1007700010B909F101000D18B9EB050003D4C0F15F
:10078000FF3609F10105A5EB09002BE0B9F1010FD6
:1007900001DA4FF001090020B9F1110F009048462D
:1007A00001DD112300E003460AAA01A90CA8FFF706
:1007B000ADFEDDE90C704D4600268346207800072B
:1007C0000AD4AB4500DA5D4601A8012D04DD4119CC
:1007D00011F8011C302907D04F4502DA17F1040F38
:1007E00004DA012082460FE06D1EEEE7002F02DCE6
:1007F000ED1B3E4403E0781CA84200DD7D1CB81BC5
:1008000000F1010A4FF000472078000703D4AA4501
:1008100001DB4FF0FF3A0021B7F1004F0DF1430823
:100820008DF8431024D002202B23002F01DA7F42C1
:100830002D230A21021EA0F1010000DC5FB197FB0D
:10084000F1FC97FBF1F201FB1C7C17460CF1300C1C
:1008500008F801CDEEE7A8F1010003702188090531
:1008600001D5452100E06521A0F1010800F8011C37
:1008700009980FA9A1EB0807FF1D00B1012041193C
:1008800001EBEA70A1693844081A401EA061207883
:10089000C00602D42046AFF30080099828B1D4E9FD
:1008A00001219047206A401C20622078C00622D592
:1008B0002046AFF300801EE0002E04DBB34502DDCE
:1008C00001A8805D00E03020D4E901219047206A32
:1008D000401C2062761CAAF101005FEA000A0AD1DE
:1008E00000F054F8C0680168405CD4E901219047E9
:1008F000206A401C2062281EA5F10105DCDC07E00F
:10090000D4E9012118F8010B9047206A401C2062AD
:10091000381EA7F10107F3DC2046AFF30080032067
:1009200011B043E6074B70B50D467B4400F081F8EB
:100930000446284600F03EF910B14FF0FF3070BD7C
:10094000204670BDC32800004FF000020429C0F00B
:10095000128010F0030C00F03381CCF1040CBCF1D8
:10096000020F18BF00F8012BA8BF20F8022BA1EB43
:100970000C0100F025B95FEAC17C24BF00F8012B0F
:1009800000F8012B48BF00F8012B70470048704762
:10099000D001002000487047B001002030B5B0F110
:1009A0000A024FEA900E71F100034EEA817EB0EB2D
:1009B0000E0061EB91014FEA101E4EEA017E10EB32
:1009C0000E0041EB11114FEA102E4EEA016E10EBB2
:1009D0000E0041EB11214FEA104E4EEA014E10EB92
:1009E0000E0041EB1141401841F100014FEAD000E7
:1009F00040EA41704FEAD10110EB80054FEA8104D3
:100A000044EA907444EB01046D1944EB0404521B56
:100A1000A3414FF0000348BF0A3200D530BD401C4F
:100A200041F1000130BD000001694A1C02610878F3
:100A3000704700B58FB0CDE901310021059105491E
:100A40007944CDE9031011466846FFF71DFC0FB04D
:100A500000BD0000E5FFFFFF2DE9F0411F46044601
:100A600003260168072A01F4006004DB08B116A51B
:100A700005E016A503E008B115A500E015A521F0D5
:100A800010002060A069C01EA0610FB1401EA061CF
:100A90002046AFF300804FB1D4E90121384690479A
:100AA000206A401C2062C01C206206E0206AFAE72F
:100AB000D4E9012115F8010B9047761EF8D22046A3
:100AC000AFF30080BDE8F0814E414E006E616E00D4
:100AD000494E4600696E66002DE9F047814616468C
:100AE0008AB0334878440DC88DE80D00304878440A
:100AF000801C03AC0DC884E80D0041F69B3008440F
:100B0000372190FBF1F290FBF1F5A5F1800501FB97
:100B100012041B3C02D56442012000E00020DFF8F3
:100B200090A080460027FA44AAF1BE0A0DE0E00733
:100B300009D03246684607EB47010AEB810100F015
:100B40005CFB8DE8070064107F1C002CEFD1184F70
:100B50007F44AC3F18E0E80714D007EB04100DF118
:100B6000180A90E80E008AE80E00C068F04201D131
:100B700098190890324606A903A800F03EFB03AB83
:100B800083E807006D10641C002DE4D132466946ED
:100B9000B8F1000F03A802D000F01BFB01E000F049
:100BA0002CFBC9E90001C9F808200AB0BDE8F087AC
:100BB000D4670000007B00F0800070474FF0000217
:100BC00000B5134694469646203922BFA0E80C5043
:100BD000A0E80C50B1F12001BFF4F7AF090728BF1E
:100BE000A0E80C5048BF0CC05DF804EB890028BF9A
:100BF00040F8042B08BF704748BF20F8022B11F0C3
:100C0000804F18BF00F8012B704700000048704764
:100C1000B00100207546FFF7F9FFAE4605006946B2
:100C2000534620F00700854618B020B5FFF7E8FAD4
:100C3000BDE820404FF000064FF000074FF00008DD
:100C40004FF0000B21F00701AC46ACE8C009ACE85E
:100C5000C009ACE8C009ACE8C0098D46704710B5C2
:100C60000446AFF300802046BDE81040FFF7B4BA59
:100C70004FF0013C50F8042B51F8043B9A4221D12B
:100C8000A2EB0C03934313EACC1317D150F8042BB7
:100C900051F8043B9A4215D1A2EB0C03934313EA9B
:100CA000CC130BD150F8042B51F8043B9A4209D1D4
:100CB000A2EB0C03934313EACC13DBD04FF00000FC
:100CC000704700BFD01A01BAB1FA81F101F01801E2
:100CD00022FA01F0CB40C1F12001DBB2C0B2C01A50
:100CE0002CFA01F3D11A914311EAC311E6D17047EE
:100CF0005FEA400C08BF91F0000F4FEA8C234FEAE7
:100D0000C12243EA51514FEA1C5018BF00F5F04090
:100D10004FEA300018BF41F000415FEA6C5C00F020
:100D20002980BCF1FF3F08BF40F080407047130CA2
:100D300006BF12044FF0100C4FF0000C130E04BF4E
:100D400012020CF1080C130F04BF12010CF1040C79
:100D5000930F04BF92000CF1020CD30F04BF52009A
:100D60000CF1010C11464FF00002A0F11F00A0EBA6
:100D70000C00704711F0004F08BF704731F0004180
:100D80003FF4D5AF0B0C06BF09044FF0100C4FF029
:100D9000000C0B0E04BF09020CF1080C0B0F04BF72
:100DA00009010CF1040C8B0F04BF89000CF1020C3B
:100DB000CB0F04BF49000CF1010CCCF12003A0EBD8
:100DC0000C0022FA03F302FA0CF241EA030100F1EB
:100DD0000100704720F07F4C80EA030023F07F473A
:100DE000ACEB070303F57C5300F0004003F1FF0375
:100DF0002DE980494FEA154B09B44FEA144325EA1F
:100E00000B4E24EA03480FF2042606EB1327490889
:100E10003E785FEA320203FB0667C7F5000707FB6F
:100E200006F64FEA54374FEAD64606F1020607FBAC
:100E3000066CCCF1005C4FEA1C472CEA074C07FB20
:100E400006F40CFB06F504EB15464FEA961634BF84
:100E500000204FF000404FEAD13706FB07FC4FEA75
:100E60001C4C0CFB0BF7D21B03FB0CF761EB0701CF
:100E70000CFB0EF7B0EB074072EB17420CFB08F7C8
:100E800034BFA2EB0742B2EB074261EB17414FEAD6
:100E90000C444FEA910706FB07FC4FEA1C4C0CFB85
:100EA0000BF7B0EBC74072EB573203FB0CF734BFC4
:100EB000A2EBC742B2EBC74261EB57310CFB0EF716
:100EC000B0EBC70072EB57720CFB08F734BFA2EB14
:100ED000C702B2EBC70261EB5771039F4FEA816112
:100EE00041EA921104EBCC044FEAD1374FEA826217
:100EF00006FB07FC42EA90124FEA80604FEA1C4C66
:100F00000CFB0BF7D21B03FB0CF761EB07010CFB8F
:100F10000EF7B0EB074072EB17420CFB08F734BF3B
:100F2000A2EB0742B2EB074261EB17414FEA8C5547
:100F30004FEA910704EB9C2406FB07FC4FEA1C4C8C
:100F40000CFB0BF7B0EBC74072EB573203FB0CF70F
:100F500034BFA2EBC742B2EBC74261EB57310CFB87
:100F60000EF7B0EBC70072EB57720CFB08F734BFFB
:100F7000A2EBC702B2EBC70261EB577115EB4C2530
:100F80004FEA816141EA92114FEA82624FEAD1371A
:100F900042EA901206FB07FC44F100044FEA80602D
:100FA0004FEA1C4C0CFB0BF7D21B03FB0CF761EB5D
:100FB00007010CFB0EF7B0EB074072EB17420CFB7E
:100FC00008F734BFA2EB0742B2EB074261EB1741CF
:100FD00015EB1C154FEA813141EA92414FEA82320A
:100FE00042EA90424FEA80304FEA0C7644F1000426
:100FF00048EA03434EEA0B484FF0000EB2EB080CF0
:1010000071EB030724BF624639464EEB0E0E4FF0DC
:10101000000B0018524149414BEB0B0BB2EB080C93
:1010200071EB03077BF1000B24BF624639464EEBA0
:101030000E0E4FF0000B0018524149414BEB0B0BC9
:10104000B2EB080C71EB03077BF1000B24BF624687
:1010500039464EEB0E0E51EA020718BF46F0010664
:1010600016EB0E7655F1000254F1000103D5BDE8F0
:101070008901BDE80088BDE88901BDE80048B619CE
:10108000524141EB0101A3F10103704780807F7E53
:101090007D7C7B7A797877767675747372717170EE
:1010A0006F6E6E6D6C6C6B6A6A69686867666665A0
:1010B0006464636362616160605F5F5E5E5D5D5C2E
:1010C0005C5B5B5A5A59595858575756565555559F
:1010D0005454535352525251515050504F4F4F4EFF
:1010E0004E4D4D4D4C4C4C4B4B4B4A4A4A4949494D
:1010F000484848474747474646464545454444448F
:10110000444343434342424242414141002B26D49F
:10111000770021D01CB54FEA370703B44FF0100019
:101120004FF010014FF000000FBCBDE810400BF174
:10113000010BBBF1010F08BF5FEA170722BF12F1D5
:10114000010211F101014FF0004143F1000300F0F1
:10115000004043EA00007047F9D35708DAE746EA4F
:10116000064613F1400F4FEA16461FDD13F1200F1C
:10117000DFBF16430A46002120335B42C8D0C3F1CB
:10118000200746EA064602FA07F74FEA164646EAFD
:101190000706C3F1200722FA03F201FA07F721FA42
:1011A00003F14FF0000342EA0702B1E746EA020604
:1011B00046EA06464FEA164646EA0106BCBF46EA3C
:1011C0000646360C4FF000034FF000024FF00001CE
:1011D0009EE72DE9C048934630B491E8380007C82F
:1011E00031EA400C48BF34EA430C03D5FFF7F2FD67
:1011F000FFF78CFFF0BCBDE800882DE9C04893469E
:1012000030B491E8380007C810F0804F08BF13F0E1
:10121000804F03D100F005F8FFF778FFF0BCBDE880
:10122000008820F07F4780EA030023F07F4C07EB23
:101230000C03A3F57C5300F00040A3F1FE0392F0F1
:10124000000F00F0B38095F0000F00F077802DE9DB
:1012500001494FEA11404FEA144621EA004800FBD9
:1012600006FC24EA064708FB06F607FB08F800FB25
:1012700007F718EB06484CEB164C4FEA124B18EBED
:1012800007484FEA15464CEB174022EA0B4E0BFB82
:1012900006FC25EA06470EFB06F607FB0EFE0BFBD7
:1012A00007F71EEB064E4CEB164C4FF000061EEBFC
:1012B000074E4CEB174B18EB0B0840F1000018EBF6
:1012C0000E0B58EB000840F100008F1A4FF00001A0
:1012D0003CBFC943661B14BFB5EB040C00213CBFE7
:1012E000C943F61B4FEA17444EEA8E0E27EA04451F
:1012F0004FEA1C4704FB07622CEA074C05FB07F783
:101300000CFB05F604FB0CFC16EB074642EB174200
:1013100016EB0C4642EB1C421BEB060658EB020296
:10132000414146EA9E0601D5BDE80189B619524100
:1013300041EB0101A3F10103BDE801894FEA144526
:101340004FEA114724EA054621EA074C05FB07F45A
:1013500006FB07F70CFB06F105FB0CFC11EB074144
:1013600044EB17444FEA124711EB0C4144EB1C4489
:1013700022EA074C05FB07F206FB07F70CFB06F613
:1013800005FB0CFC16EB074642EB174216EB0C462E
:1013900042EB1C456A1854F1000148BF7047B6196A
:1013A000524141EB0101A3F10103704795F0000F99
:1013B00037D04FEA11424FEA144721EA024624EAA5
:1013C000074C02FB07F106FB07F70CFB06F402FBD8
:1013D0000CFC14EB074441EB17414FEA154714EBA3
:1013E0000C4441EB1C4125EA074C02FB07F506FBC8
:1013F00007F70CFB06F602FB0CFC16EB074645EB69
:10140000174516EB0C4645EB1C42121951F1000131
:1014100048BF7047B619524141EB0101A3F10103E6
:1014200070474FEA14454FEA114724EA054621EA7E
:10143000074C05FB07F106FB07F70CFB06F24FF024
:10144000000605FB0CFC12EB074241EB174112EBC7
:101450000C4251EB1C4148BF7047921841EB01010F
:10146000A3F10103704700BFFEE770472DE9F0418B
:10147000024600250026002000230024002791F8C2
:1014800003C00CF00F0591F803C00CF0100CBCF178
:10149000000F03D091F802C04CEA050591F800C096
:1014A000BCF1000F31D0146800202BE04FF0010C8C
:1014B0000CFA00F3B1F800C00CEA03069E4220D1FA
:1014C00083004FF00F0C0CFA03F7BC4305FA03FC42
:1014D0004CEA040491F803C0BCF1280F06D14FF088
:1014E000010C0CFA00FCC2F814C00AE091F803C029
:1014F000BCF1480F05D14FF0010C0CFA00FCC2F80A
:1015000010C0401C0828D1D31460B1F800C0BCF151
:10151000FF0F34DD546800202EE000F1080C4FF07E
:10152000010808FA0CF3B1F800C00CEA03069E4269
:1015300021D183004FF00F0C0CFA03F7BC4305FADE
:1015400003FC4CEA040491F803C0BCF1280F05D158
:1015500000F1080C08FA0CF8C2F8148091F803C0E6
:10156000BCF1480F07D100F1080C4FF0010808FA50
:101570000CF8C2F81080401C0828CED35460BDE897
:10158000F0810161704700BFFEE7000010B5002048
:101590000F4908600F48406820F470400D494860CA
:1015A0000846406840F44050486000200A49C1F8AD
:1015B000AC01022001F01CF801200549086002205E
:1015C00001F016F800200449C1F8B00110BD000078
:1015D000B0012242001001400000224208B5012162
:1015E000102000F0A3F94FF4C050ADF80000102017
:1015F0008DF8030003208DF8020069460448FFF7C8
:1016000035FF0120034908600349C1F8AC0108BD5A
:1016100000100140B00122420000224210B500201B
:101620000F4908600F48406820F470400D49486039
:101630000846406840F44050486001200A49C1F81B
:10164000AC01022000F0D4FF01200549086002200F
:1016500000F0CEFF00200449C1F8B00110BD000029
:10166000B0012242001001400000224270B506463F
:1016700000241448406820F470401249486008462D
:10168000406840F400404860002516E000200E4904
:101690000860022000F0ACFF01200C49C1F8B00145
:1016A0006006040E08488438006808B1601CC4B2A3
:1016B000012000F09DFF681CC5B2082DE6DB204626
:1016C00070BD000000100140B00122420000224223
:1016D00070B504461548406820F4704013494860CE
:1016E0000846406840F440504860002010490860B7
:1016F000002517E0E0090E49091F08606006040E86
:10170000022000F075FF01200A49C1F8B001022053
:1017100000F06EFF002006490860022000F068FF1C
:10172000681CC5B2082DE5DB70BD0000001001404B
:10173000B00122420000224210B50F48406820F458
:1017400070400D4948600846406840F44050486089
:1017500001200A4908600A49C1F8B001042000F0DC
:1017600047FF002005490860042000F041FF0020E9
:101770000349C1F8B00110BD00100140AC01224284
:101780000000224210B50F48406820F470400D4917
:1017900048600846406840F44050486000200A49CC
:1017A00008600A49C1F8AC01042000F021FF0120C3
:1017B000054908600549C1F8AC01042000F018FF94
:1017C00010BD000000100140B00122420000224282
:1017D00010B500241448406820F470401249486055
:1017E0000846406840F40040486001200F49086006
:1017F00000F0FEFE01200E49C1F8B00100F0F8FE35
:1018000007E0601CC4B2FA2C03DDFFF7BBFF012028
:1018100010BD0648803800680028F2D10349091D30
:10182000086000BFF4E7000000100140AC01224254
:101830000000224208B50121242000F077F84FF47F
:101840008070ADF8000010208DF8030003208DF8A3
:10185000020069460948FFF709FE4FF48071074806
:10186000FFF78FFE0120ADF8000069460448FFF73E
:10187000FDFD01210248FFF784FE08BD000801407C
:101880000014014000BFFEE7704738B504464FF42E
:10189000A06000F03FF8012C02D1009800F0C0F9E0
:1018A00038BD000070B5002100230F22C47804B3B6
:1018B000154C246804F4E064C4F5E064210AC1F125
:1018C0000403CA40447804FA03F1847814402143A5
:1018D00009010E4C0678A155047804F01F05012477
:1018E000AC4005786D11AD0005F1E025C5F800416B
:1018F00009E0047804F01F050124AC40044D06788B
:10190000761145F8264070BD0CED00E000E400E0E3
:1019100080E100E002490143024A11607047000083
:101920000000FA050CED00E07047000029B1064AFE
:1019300092690243044B9A6104E0034A926982432C
:10194000014B9A61704700000010024030B5002141
:101950000022002400232D4D6D6805F00C0121B1FB
:10196000042905D0082923D105E0294D056022E08E
:10197000274D05601FE0254D6D6805F47012234D5D
:101980006D6805F48034022505EB92421CB9214DA7
:10199000554305600BE01D4D6D6805F400351DB124
:1019A0001C4D5543056002E0194D5543056002E0AA
:1019B000174D056000BF00BF144D6D6805F0F001C4
:1019C0000909154D6B5C0568DD4045600F4D6D687C
:1019D00005F4E061090A104D6B5C4568DD408560E7
:1019E0000A4D6D6805F46051C90A0B4D6B5C456882
:1019F000DD40C560054D6D6805F44041890B074D1C
:101A00006B5CC568B5FBF3F5056130BD00100240A5
:101A100000127A0000093D00A2000020B200002060
:101A2000704710B500F002F810BD00000CB50020A2
:101A3000019000903348006840F4803031490860DC
:101A400000BF3048006800F4003000900198401C4E
:101A50000190009818B90198B0F5A06FF1D129480C
:101A6000006800F4003010B10120009001E0002077
:101A700000900098012843D12348006840F01000EE
:101A8000214908600846006820F003000860084605
:101A9000006840F0020008601A4840681949486030
:101AA0000846406848600846406840F480604860E6
:101AB0000846406820F47C1048600846406840F4BE
:101AC000E81048600846006840F08070086000BF79
:101AD0000C48006800F000700028F9D00948406800
:101AE00020F00300074948600846406840F00200C3
:101AF000486000BF0348406800F00C000828F9D196
:101B00000CBD00000010024000200240042808D153
:101B10004FF0E021096941F004014FF0E02211612A
:101B200007E04FF0E021096921F004014FF0E022C5
:101B3000116170477047000010B51348006840F00D
:101B400001001149086008464068104908400E49E4
:101B50004860084600680E4908400B49086008467E
:101B6000006820F4802008600846406820F4FE00E9
:101B700048604FF41F008860FFF753FF4FF000608C
:101B80000449086010BD0000001002400000FFF88A
:101B9000FFFFF6FE08ED00E010B540F225511D48AC
:101BA00000F05AF810B31B4800F012F9C4B21A48FA
:101BB000008800F40040C8B91748008800F480404D
:101BC00060B10A2C03D000201349088020E012489D
:101BD000008840F400401049088019E00D2C06D11F
:101BE0000D48008840F480400B49088010E00A4806
:101BF0000088C0F30D0009490C5407480088401CB8
:101C00000549088008460088C72801DD00200880B3
:101C100010BD000000380140A0000020E8000020B6
:101C200001B525208DF8000003208DF801008DF806
:101C3000020001208DF803006846FFF733FE08BD5F
:101C400021B1828942F40052828104E082894DF6FA
:101C5000FF731A408281704770B50246002400234A
:101C60000025002040F66A16B14200D100BFC1F342
:101C7000421501F01F03012606FA03F3012D02D1DC
:101C80009689334006E0022D02D1168A334001E0E6
:101C9000968A33400C12012606FA04F41688344062
:101CA00013B10CB1012000E0002070BDF0B5034677
:101CB000002400260025002040F66A17B94200D112
:101CC00000BF1846C1F3421401F01F06012707FAAE
:101CD00006F5012C01D10C3004E0022C01D11030AA
:101CE00000E014301AB107682F43076002E007686C
:101CF000AF430760F0BD00002DE9F04786B0054610
:101D00000E460024A24600BFA1460027B08900B1BC
:101D100000BF2F462C8A4CF6FF700440F088044325
:101D20002C82AC894EF6F3100440B0883189084308
:101D3000718908430443AC81AC8A4FF6FF400440EC
:101D4000B0890443AC8201A8FFF700FE1F48874218
:101D500002D1DDF810A001E0DDF80CA0A88900F4A4
:101D6000004040B10AEBCA0000EB0A10316849009C
:101D7000B0FBF1F807E00AEBCA0000EB0A1031688B
:101D80008900B0FBF1F86420B8FBF0F004012009F1
:101D9000642101FB1089A88900F4004040B1322081
:101DA00000EBC900B0FBF1F000F00700044308E0CD
:101DB000322000EB09106421B0FBF1F000F00F00BD
:101DC00004432C8106B0BDE8F087000000380140D4
:101DD00001468888C0F30800704700BFFEE749004D
:101DE00050EAC12018BF04204A0D18BF40F001007E
:101DF00040F2FF72B2EB515F08BF40F002000128D1
:101E000008BF052070472DE9F0414F1E00EBC701C8
:101E10000446D1E9000115461E4637F006020DD0F2
:101E20002A46334603F018FD7F1E04EBC703D3E9AF
:101E3000002303F009FB37F00602F1D1022F25D071
:101E4000042F13D0062F18BFBDE8F0812A46334671
:101E500003F002FDD4E90A2303F0F6FA2A463346DA
:101E600003F0FAFCD4E9082303F0EEFA2A463346DD
:101E700003F0F2FCD4E9062303F0E6FA2A463346DF
:101E800003F0EAFCD4E9042303F0DEFA2A463346E1
:101E900003F0E2FCD4E9022303F0D6FA2A463346E3
:101EA00003F0DAFCD4E90023BDE8F04103F0CCBA3A
:101EB000012204F0D8BA03F0C7BA00221346104634
:101EC000114603F071BB0000024A0020110704F024
:101ED000CABA000001FDFFFF30380A2801D20120F4
:101EE000704700207047014600BF70472DE9F04D54
:101EF0008D4F21F0004A86B005460C46BA452ADBD4
:101F0000AAEB070028430AD08848824501DC1AD191
:101F1000CDB106B02846BDE8F04DFFF7C9BF844AF1
:101F2000844B284603F098FC07460E46824A834BB2
:101F30002846214603F090FC06B03A463346BDE8F9
:101F4000F04D03F081BA0120FEF7D9FA06B0BDE8E2
:101F5000F04DFFF7B2BF7A48824542DABAF1795FB5
:101F60000BDA2846FFF73BFF042808BFFFF7ACFF5A
:101F7000284606B02146BDE8F08D2A460B4610469D
:101F800003F06AFC834602466E480E460B46062165
:101F90007844FFF738FF5A46334603F05DFC80462D
:101FA00069488A465A46334604217844FFF72BFF96
:101FB0005A46334603F050FC00223B4603F044FAF5
:101FC00002460B464046514603F0EEFA2A462346A7
:101FD00003F042FC06B02A462346BDE8F04D03F06C
:101FE00033BA284624F0004100223D463B4603F028
:101FF00031FD4FF0FF3204F036FA064602465348F0
:102000000F460B4606217844FFF7FDFE32463B465D
:1020100003F022FCCDE900014D4832463B46042145
:102020007844FFF7F0FE32463B4603F015FC0022F1
:102030002B4603F009FA834602913046394603F0F5
:1020400035F9804643480D46504517DCDDE900016F
:102050005A46029B03F0A8FA42462B4603F0FCFBCB
:1020600042462B4603F0F0F9012204F0FCF9304A15
:10207000304B03F0E1FD304A304B4CE04FF0000AAA
:1020800052460B46404603F0DFF9CDE903105246B5
:102090002B461046194603F0DFFB32463B4603F061
:1020A000D9FCDDE9033203F07FFA06460F46DDE98D
:1020B00000015A46029B03F077FA83460091012201
:1020C0003046394604F0CFF9194A1A4B03F0C2FCE6
:1020D00006460F4601224046294604F0C4F95A46F6
:1020E000009B03F0B9FB32463B4603F0A5FD0646D4
:1020F0000F4601225046294604F0B5F90E4DDFF88F
:1021000058802A46434603F0A5FC32463B4603F07E
:10211000A1FC2A46434603F09DFC002CD8BF81F069
:10212000004106B0BDE8F08D0000F03F0000F07FF8
:10213000075C143326A6913C182D4454FB21F93F2B
:102140000000E03FBC510000D251000046510000A9
:102150005C5100003333EF3FFB21E93F2DE9F84F9D
:1021600004460D4621F0004000917349814211DC84
:102170007249884201DC06D12CB120462946BDE8CF
:10218000F84FFFF795BE6E48002DCCBF6D496E49E4
:10219000BDE8F88F6D49814211DD6D498142D8BF9C
:1021A0004FF0FF366DDD20462946FFF718FE042864
:1021B00008BFFFF789FE20462946BDE8F88F65492C
:1021C000654F25F00045814233DD6449814219DDC8
:1021D000002632464FF080432046294603F034F96A
:1021E00080468A4601222046294604F03CF9002216
:1021F0003B4603F021FD4246534603F0D5F9044621
:102200000D463EE001260022BA463B4620462946BE
:1022100003F01AF980460F4600225346204629460D
:1022200003F00AFD42463B4603F0BEF904460D4664
:1022300027E04B4981421BDDDFF828A1022600225E
:1022400053462046294603F007FB00223B4603F095
:10225000FBF880460F46002253462046294603F0ED
:10226000EBFC42463B4603F09FF904460D4608E06E
:10227000032622462B4600203B4903F095F90446ED
:102280000D4622462B461046194603F0E5FA8B46CA
:10229000824602460B4603F0DFFA07460246334801
:1022A00088460B4606217844FFF7ADFD52465B4653
:1022B00003F0D2FA82462E488B463A464346052121
:1022C0007844FFF7A0FD3A46434603F0C5FA0246BC
:1022D0000B46002E504659460CDA03F0B5F822465C
:1022E0002B4603F0B9FA01B022462B46BDE8F04F69
:1022F00003F0B0BB03F0A8F822462B4603F0ACFA7B
:102300001C4A7A4402EBC603D3E9002303F094FC91
:1023100022462B4603F090FC174A7A4402EBC60390
:10232000D3E9002303F096FB009A002AB8BF81F09E
:102330000041BDE8F88F0000000010440000F07F6D
:10234000182D4454FB21F93FFB21F9BF0000DC3F6D
:102350000000203E0000F33F0000F03F0000E63F99
:10236000008003400000F83F0000F0BF5E4F000017
:102370001C4F0000BA4E0000824E00002DE9F04DC7
:102380009446CCF1000423F000464CEA0404524F7A
:1023900046EAD4749A46884621F00042BC4206D8E8
:1023A000454240EA050442EAD474BC4204D9BDE87F
:1023B000F04D6246FFF77FBDAAF14055A5F17F655C
:1023C00055EA0C040BD0022404EAAA74434DDFF84A
:1023D00010E144EAD87452EA000B04D00CE0BDE8E6
:1023E000F04DFFF7BBBE002C14BF012CBDE8F08DF3
:1023F000022C30D0032C32D056EA0C0B0AD0BE424D
:1024000020D1BA4209D126F0804622F080423346DC
:10241000114617E000291ADB25E0DFF8C8B0FB44BD
:10242000002C04BFDBE90001BDE8F08D012C02BFE8
:10243000DBE9000181F00041BDE8F08D022C0AD0FB
:10244000032C0CD0BA4212D1B8F1000F0BDA23489A
:102450002549BDE8F08D28462449BDE8F08D284681
:102460007146BDE8F08D1D482149BDE8F08D921BF5
:1024700012153C2AC4BF19481D490EDCBAF1000FE1
:10248000BEBF12F13C0F0020014606DB624603F09E
:102490008BF821F00041FFF761FE002C08BFBDE87A
:1024A000F08D012C04BF81F00041BDE8F08D114A90
:1024B000114B022C07D003F0BFFB2A46BDE8F04DBC
:1024C0000A4B03F0B9BB03F0B7FB2A46BDE8F04D59
:1024D000064B03F0BFBA00000000F07F182D4454F3
:1024E000FB2109C0164E0000FB21F9BFFB2109406A
:1024F000FB21F93F075C143326A6A13C2DE9F041EE
:102500000446E07800F0C006E07800F03F0560780F
:1025100000F0010098B1EF102846E91705EB517162
:10252000C910A5EBC101491C01F0FF080B48006868
:1025300020B10A48414602683846904700BF60789B
:1025400000F0080030B10548406818B1B011034AE6
:10255000516888470020BDE8F0810000D8000020C5
:1025600010B56FF00400FFF7D1FA0A4800680A4975
:10257000B0FBF1F0094908700846007800EB400113
:10258000C1EBC0104FF6FF7101EAC000044908809A
:1025900010BD00004C00002000127A0098000020BE
:1025A0009A0000200146114A12884A434FF0E02366
:1025B0005A6100229A611A46126942F001021A61B8
:1025C00000BF4FF0E022106900F001021AB100F4E0
:1025D0008032002AF5D04FF0E022126922F0010289
:1025E0004FF0E0231A6100229A6170479A000020A0
:1025F0000146114A12784A434FF0E0235A61002203
:102600009A611A46126942F001021A6100BF4FF046
:10261000E022106900F001021AB100F48032002AB1
:10262000F5D04FF0E022126922F001024FF0E023D2
:102630001A6100229A6170479800002038B504465C
:1026400064B120208DF8000028208DF80100302092
:102650008DF8020038208DF8030004E0A322042145
:102660006846FDF7C4FE6A46042140F69E2002F04B
:10267000F9FB01F093FF38BD3EB5044602208DF80A
:102680000000CA208DF80100E3208DF80200092027
:102690008DF803006A460421682002F0E3FBA320C2
:1026A0008DF8000004F0400048B1C0208DF8010012
:1026B000C8208DF80200C2208DF8030006E0A32098
:1026C0008DF801008DF802008DF8030004F4C0704D
:1026D00048B1C4208DF80400CC208DF80500C62038
:1026E0008DF8060006E0A3208DF804008DF80500A3
:1026F0008DF80600A3208DF807008DF808008DF8EE
:1027000009006A460A2140F6A72002F0ABFB04F05C
:10271000030018B120208DF8000002E0D8208DF8C9
:1027200000006A46012140F6B62002F09BFB04F04F
:10273000200018B1012000F0ADF802E0002000F008
:10274000A9F804F4C07008B304F4807060B1B2203A
:102750008DF800008B208DF80100B6208DF8020066
:102760009B208DF803000BE0B0208DF80000802046
:102770008DF80100B4208DF8020090208DF8030040
:102780006A46042140F6A22002F06CFB04F001002E
:1027900020B3F8208DF800006A4601214FF40B6049
:1027A00002F060FBFA21072000F02CFC072000F06B
:1027B000F3FB012000F013FC642000F0F3FC4FF465
:1027C000FA7000F002FDC821304800F0A3FB282079
:1027D00000F0BCFB0A2000F0CCFB08E0D8208DF80C
:1027E00000006A4601214FF40B6002F03BFB04F04D
:1027F000020018B1D9208DF8000002E0D8208DF831
:1028000000006A46012140F23D7002F02BFB04F00B
:10281000040018B1012000F069F802E0002000F087
:1028200065F804F0100018B10120FFF707FF02E07F
:102830000020FFF703FF44F008001549488101F02C
:10284000ADFE00201249887304F0400018B108461C
:10285000807B801D887304F4C07020B10C48807B9D
:10286000801D0B49887304F0140020B10848807B58
:1028700010300749887304F0030020B10448807BBE
:10288000001D0349887300203EBD000009E3CA0211
:10289000D80000203EB504466CB10EA1D1E900205D
:1028A0008968CDE9002002916A4609214FF49760BA
:1028B00002F0D8FA3EBD0AA2D2E900109268CDE932
:1028C000010200916A4609214FF4976002F0CAFAAA
:1028D000F0E70000B8AAB38DB4980D355D00000094
:1028E000B8AAAAAAB088C3C5C700000038B5044674
:1028F00064B1C0208DF80000C2208DF80100C42012
:102900008DF80200C6208DF8030004E08B2204211C
:102910006846FDF76CFD6A46042140F6982002F0F7
:10292000A1FA01F03BFE38BD10B5C8234FF4806218
:10293000024940F6F63001F0A7FC10BD54650008CE
:102940002DE9F04F8DB00746884615469946DDE9DA
:10295000166B0024002030806B49887B5A4605A9FD
:1029600001F07CFD18B1601E0DB0BDE8F08F664827
:10297000807A00F01400002867D09DF8140000064B
:102980009DF8151040EA01409DF8161040EA01201C
:102990009DF81710084328609DF8180000069DF860
:1029A000191040EA01409DF81A1040EA01209DF8F4
:1029B0001B10084368609DF81C0000069DF81D1060
:1029C00040EA01409DF81E1040EA01209DF81F10CA
:1029D0000843A8609DF8200000069DF8211040EAF9
:1029E00001409DF8221040EA01209DF82310084381
:1029F000E86004F11000C4B228680014019068680F
:102A000000140290A86800140390E8680014049071
:102A100001984043029901FB0100039901FB010069
:102A2000049901FB010ABAF1706F02DBBAF1885F09
:102A300005DD01F0B3FD00203080401E94E7B6F9BB
:102A4000000040F48070308000BF2F48807A00F092
:102A5000400020B305A9601C085C095D40EA012024
:102A600000B2A8F8000005A9E01C095C05AAA01C9A
:102A7000105C41EA002000B2A8F8020005A9601D20
:102A8000095C201D105C41EA002000B2A8F8040097
:102A9000A01DC4B2B6F9000040F0080030801A480A
:102AA000408900F4C07008B305A9601C085C095D8A
:102AB00040EA012000B2388005A9E01C095C05AAA3
:102AC000A01C105C41EA002000B2788005A9601DBE
:102AD000095C201D105C41EA002000B2B880A01DF6
:102AE000C4B2B6F9000040F0700030800648807A29
:102AF00000F0030018B105A90819FFF7FFFC4846CC
:102B000001F01CFA00202FE7D800002070B588B033
:102B1000064601A801F072FABDF804000021C903BD
:102B200041EA5045C4034448007A00F0030056F8D7
:102B3000200005904048007A00F0040010B105988C
:102B4000404205903C48007AC0F3C10056F820008E
:102B500006903948007A00F0200010B106984042F3
:102B600006903548007AC0F3811056F8200007908F
:102B70003148008900F4807010B1079840420790F6
:102B80000598C117A0FB042301FB043100FB0510CD
:102B9000810041EA927005900698C117A0FB0423BA
:102BA00001FB043100FB0510810041EA92700690A0
:102BB0000798C117A0FB042301FB043100FB05109B
:102BC000810041EA927007900598000E8DF8080088
:102BD0000598000C8DF809000598000A8DF80A0088
:102BE0000598C0B28DF80B000698000E8DF80C0009
:102BF0000698000C8DF80D000698000A8DF80E005E
:102C00000698C0B28DF80F000798000E8DF81000DE
:102C10000798000C8DF811000798000A8DF8120033
:102C20000798C0B28DF8130002AA0C214FF425704A
:102C300002F018F908B070BDD800002030B585B09A
:102C4000044616A207CA02AB07C3C82C03DD4FF027
:102C5000FF3005B030BDC82090FBF4F0401E85B2B7
:102C6000280A8DF80000E8B28DF801006A460221BA
:102C700040F2162002F0F6F810B14FF0FF30E8E70E
:102C800002AA0C2140F6C12002F0ECF810B14FF07E
:102C9000FF30DEE7044884810020DAE7FEF2ABC4AF
:102CA000AAF1DFDFBBAFDFDFD80000201FB504468D
:102CB0004848007A00F0030054F82000019045488D
:102CC000007A00F0040010B10198404201904148A0
:102CD000007AC0F3C10054F8200002903D48007A09
:102CE00000F0200010B10298404202903948007A6A
:102CF000C0F3811054F8200003903648008900F496
:102D0000807010B10398404203903349019880FBD2
:102D10000101800F40EA810001902F49029880FB59
:102D20000110820042EA917002902B49039880FBC7
:102D30000110820042EA917003900198000E8DF814
:102D400000000198000C8DF801000198000A8DF830
:102D500002000198C0B28DF803006A4604214FF4C6
:102D6000747002F07FF818B14FF0FF3004B010BD5E
:102D70000298000E8DF800000298000C8DF80100FA
:102D80000298000A8DF802000298C0B28DF8030084
:102D90006A4604214FF4757002F064F810B14FF0E8
:102DA000FF30E3E70398000E8DF800000398000C55
:102DB0008DF801000398000A8DF802000398C0B254
:102DC0008DF803006A4604214FF4767002F04AF849
:102DD000CCE70000D800002009E3CA0210B586B095
:102DE000044647A00068039046A00068029046A0F1
:102DF0000068019045A00068009004F0030003A95A
:102E0000085C8DF8140003A8C4F3C101405C8DF880
:102E1000150003A8C4F38111405C8DF8160004F07E
:102E2000030002A9085C8DF8100002A8C4F3C101D8
:102E3000405C8DF8110002A8C4F38111405C8DF84C
:102E4000120005AA032140F2264002F00BF818B147
:102E50004FF0FF3006B010BD04AA032140F22A4013
:102E600002F000F810B14FF0FF30F3E70198059041
:102E70000098049004F0040058B19DF8140040F04C
:102E800001008DF814009DF8100040F001008DF84D
:102E9000100004F0200058B19DF8150040F001002A
:102EA0008DF815009DF8110040F001008DF811001B
:102EB00004F4807058B19DF8160040F001008DF8C0
:102EC00016009DF8120040F001008DF8120005AACE
:102ED00003214FF4886001F0C5FF10B14FF0FF30BF
:102EE000B8E704AA032140F2314001F0BBFF10B162
:102EF0004FF0FF30AEE7064804810020AAE700004B
:102F00004CCD6C000CC92C00365676002646660067
:102F1000D8000020F8B505460E464FF47A7095FBB0
:102F2000F0F000FB06F4200E8DF80000200C8DF868
:102F30000100200A8DF80200E0B28DF803006A4615
:102F400004214FF4AE7001F08DFFF8BD38B5044692
:102F5000052094FBF0F084B220128DF80000E0B25E
:102F60008DF801006A4602214FF4AD7001F07AFF3E
:102F700038BD38B50446052094FBF0F084B2201229
:102F80008DF80000E0B28DF801006A4602214FF48E
:102F9000AC7001F067FF38BD38B5044600200090E2
:102FA00004F0010020B19DF8000040F030000090D6
:102FB00004F0020020B19DF8000040F00C000090E9
:102FC00004F0040020B19DF8000040F003000090E0
:102FD0006A4601214FF4A47001F044FF38BD38B5B2
:102FE0000446012C01DA012402E0042C00DD042453
:102FF000601EC0B200906A46012140F24F1001F0FD
:1030000031FF38BD2DE9FC4706460F4606F00700A4
:1030100010B1B7F5C86F03DD4FF0FF30BDE8FC8796
:10302000384603F097F88146594902F07DFF804603
:10303000684600F0BDFF9DF80000022806D0042875
:1030400016D0082826D0102848D135E04FF08D4101
:10305000404603F093F8814603F044F884B24D49AA
:10306000404603F08BF8814603F03CF885B238E027
:103070004FF08C41404603F081F8814603F032F86E
:1030800084B24549404603F079F8814603F02AF8B6
:1030900085B226E04FF08B41404603F06FF8814641
:1030A00003F020F884B23D49404603F067F88146BA
:1030B00003F018F885B214E04FF08A41404603F05F
:1030C0005DF8814603F00EF884B23549404603F0BE
:1030D00055F8814603F006F885B202E04FF0FF3064
:1030E0009CE700BF20128DF80400E0B28DF80500C7
:1030F00028128DF80600E8B28DF8070006F00100EE
:10310000A0B101AA02214FF4EA7001F0ABFE10B1A8
:103110004FF0FF3082E70DF1060202214FF492706A
:1031200001F0A0FE10B14FF0FF3077E706F002008B
:10313000A0B101AA02214FF4EC7001F093FE10B18E
:103140004FF0FF306AE70DF1060202214FF4947050
:1031500001F088FE10B14FF0FF305FE706F0040089
:10316000A0B101AA02214FF4EE7001F07BFE10B174
:103170004FF0FF3052E70DF1060202214FF4967036
:1031800001F070FE10B14FF0FF3047E7002045E737
:1031900000004843000040460000C0450000404594
:1031A0000000C04438B50446052094FBF0F085B219
:1031B00028128DF80000E8B28DF801006A4602215D
:1031C0004FF4EF7001F04EFE38BD38B504460520CF
:1031D00094FBF0F085B228128DF80000E8B28DF86B
:1031E00001006A4602214FF4ED7001F03BFE38BD4C
:1031F00000BF054A128802F04002002AF9D0C2B28C
:10320000014B1B1D1A807047003801402DE9F04F1B
:1032100087B005460C46914601208DF8100000202D
:103220008DF81100FE4A1268517DFD4A52681078EF
:1032300004AB022200F09FFA20B14FF0FF3007B03C
:10324000BDE8F08FC820FFF7ADF900208DF8100021
:10325000F34A1268517CF24A5268107804AB01229A
:1032600000F089FA10B14FF0FF30E8E7EC4A12683D
:103270005179EB4A5268107804AB012200F07BFAD6
:1032800010B14FF0FF30DAE7E54A1268517DE44AA9
:103290005268107804AB012200F06DFA10B14FF0C3
:1032A000FF30CCE7DE4A1268917EDD4A5268107822
:1032B00004AB012200F05FFA10B14FF0FF30BEE71F
:1032C000D74A12681179D64A5268107804AB0122A5
:1032D00000F051FA10B14FF0FF30B0E70C208DF83C
:1032E0001000CF4A12681179CD4A5268107804ABA9
:1032F000012200F040FA10B14FF0FF309FE70F209D
:10330000FFF750F9C648406B407A8DF81000C44A68
:1033100012689178C24A5268107804AB012200F01A
:103320002AFA10B14FF0FF3089E7BD48406B007AB0
:103330008DF81000BA4A12685178B94A526810786C
:1033400004AB012200F017FA10B14FF0FF3076E71E
:10335000B9F1000F07D0B248406B807A40F0E0002E
:103360008DF8100004E0AE48406B807A8DF81000B4
:10337000AB4A12689179AA4A5268107804AB0122CC
:1033800000F0F9F910B14FF0FF3058E7B9F1000F34
:1033900007D0A348406BC07A40F0E0008DF81000E1
:1033A00003E0A048C07A8DF810009D4A1268D179D8
:1033B0009B4A5268107804AB012200F0DCF910B18E
:1033C0004FF0FF303BE7B9F1000F02D0C820FFF704
:1033D000E9F840208DF81000914A12681179904A5E
:1033E0005268107804AB012200F0C5F910B14FF01B
:1033F000FF3024E778208DF81000894A126851794F
:10340000874A5268107804AB012200F0B4F910B179
:103410004FF0FF3013E783498889FFF7C3F8002096
:103420008DF810007E4A126851797D4A52681078F2
:1034300004AB012200F09FF910B14FF0FF30FEE61F
:10344000774A1268117B764A5268107804AB0222E0
:1034500000F07FF910B14FF0FF30F0E69DF8110059
:103460009DF8101040EA012B0C209BFBF0F0C6B237
:103470000020A86068602860A060606020608246CC
:1034800065E0674A1268517B654A5268107804AB60
:103490000C2200F05EF910B14FF0FF30CFE69DF83E
:1034A00011009DF8101040EA012000B2ADF80800AC
:1034B0009DF813009DF8121040EA012000B2ADF80B
:1034C0000A009DF815009DF8141040EA012000B292
:1034D000ADF80C00BDF90810206808442060BDF963
:1034E0000A10606808446060BDF90C10A0680844C8
:1034F000A0609DF817009DF8161040EA012000B268
:10350000ADF800009DF819009DF8181040EA012060
:1035100000B2ADF802009DF81B009DF81A1040EAB9
:10352000012000B2ADF80400BDF90010286808447D
:103530002860BDF90210686808446860BDF904108D
:10354000A8680844A8600AF1010000F0FF0AB2452B
:1035500097DB3448D0F800C02868C117090441EA55
:1035600010410704624600233846FCF75CFE3246F1
:103570000023CDE90201FCF756FE28602948D0F867
:1035800000C06868C117090441EA10410704624697
:1035900000233846FCF747FE32460023CDE90201FE
:1035A000FCF741FE68601F48D0F800C0A868C1174A
:1035B000090441EA10410704624600233846FCF73B
:1035C00032FE32460023CDE90201FCF72CFEA86052
:1035D0001448D0F804C02168C817000440EA114814
:1035E0000F046246002338464146FCF71CFE324673
:1035F0000023CDE90201FCF716FE20600948D0F84F
:1036000004C06068C117090441EA1041070462461A
:1036100000233846FCF707FE3246002304E0000092
:10362000600000202C650008CDE90201FCF7FBFDDD
:1036300060601148D0F804C0A068C117090441EACD
:1036400010410704624600233846FCF7ECFD324681
:103650000023CDE90201FCF7E6FDA060A068002888
:1036600004DDA068A0F58030A06003E0A06800F54C
:103670008030A0600020E2E52C6500082DE9F041D3
:1036800005460F4614461E464FF00108FEF754F853
:10369000002141EA4501C8B2FEF71AF8FEF798F892
:1036A00020B1FEF76FF80020BDE8F0813846FEF744
:1036B0000FF8FEF78DF8FEF73FF8012101EB450109
:1036C000C8B2FEF705F8FEF783F80DE00120FDF71C
:1036D000CDFF3070012C02D1FDF7A0FF01E0FDF716
:1036E00055FF761C601EC4B2002CEFD1FEF74AF8DD
:1036F0000120D9E72DE9F04105460E4617469846C8
:10370000FEF71AF8002141EA4501C8B2FDF7E0FFD3
:10371000FEF75EF820B1FEF735F80020BDE8F08135
:103720003046FDF7D5FFFEF753F800240BE018F8FC
:103730000400FDF7CDFFFEF74BF818B1FEF722F8B5
:103740000020EBE7641CBC42F1DBFEF71BF8012014
:10375000E4E72DE9F04104460D4616461F463B4678
:10376000324629462046FFF789FF10B10020BDE808
:10377000F081FF20FBE72DE9F04104460D46164697
:103780001F463B46324629462046FFF7B3FF10B19D
:103790000020BDE8F081FF20FBE770B50546284614
:1037A00000F00FF80446E81C00F00BF844EAC000F3
:1037B00084B2A81D00F005F844EA801084B22046C7
:1037C00070BD014691F90020002A01DD00201EE0B5
:1037D00091F90020002A01DA042018E091F9012073
:1037E000002A01DD012012E091F90120002A01DA0E
:1037F00005200CE091F90220002A01DD022006E0FC
:1038000091F90220002A01DA062000E00720704723
:103810008CB04FF00009FEF7A3FE4FF4E13001F049
:103820006BFDFEF707F8FDF7D9FEC820FEF7BAFEDC
:1038300000F098FC00F0FF09B9F1000F06D07EA05F
:10384000FCF716FD4FF4FA60FEF7ACFEB9F1000F7D
:103850005FD17EA0FCF70CFD782001F04FFA18B97B
:1038600083A0FCF705FD02E089A0FCF701FD7820AC
:1038700000F066FB18B991A0FCF7FAFC02E098A0F2
:10388000FCF7F6FC642001F0DFF918B9A0A0FCF702
:10389000EFFC02E0A8A0FCF7EBFCFFF745F818B935
:1038A000AEA0FCF7E5FC02E0B9A0FCF7E1FCC748DC
:1038B000FFF773FF0546FFF791FA18B9C4A0FCF7AC
:1038C000D7FC02E0CCA0FCF7D3FC40F27310FEF76B
:1038D000D3FE18B9D4A0FCF7CBFC02E0DBA0FCF7C8
:1038E000C7FC6420FFF7AAF918B9E4A0FCF7C0FCF4
:1038F00002E0EBA0FCF7BCFC01F0F4FA012001F0BF
:103900009FF818B9F1A0FCF7B3FC02E0F8A0FCF7AF
:10391000AFFCEEE2601C84B2B4F57A7F03DA0020DB
:10392000FE4908600AE0B4F5FA6F03DA0120FB49AA
:10393000086003E0B4F5FA6F00D10024F848F949B3
:10394000F94BFA4ACDE90010F949FA48FEF7F8FFB9
:10395000F448008800F480700028DAD0F349086841
:1039600002F0E0FB05464FF09D4102F0DDFAF2491E
:103970000860EE49486802F0D5FB05464FF09D41CE
:1039800002F0D2FAED490860E849886802F0CAFB03
:1039900005464FF09D4102F0C7FAE9490860E34946
:1039A000C86802F0BFFB05464FF09D4102F0BCFA2B
:1039B000E4490860E04801684FF0804002F0DEFB17
:1039C0000690DF480168069802F0D8FB0890DB48B3
:1039D00001684FF0404002F0D1FB0690D9480168E1
:1039E000069802F0CBFB0790089902F03BFA099089
:1039F00002F00CFACDE90A01FEF778FA05464FF01D
:103A00006632D14B01F028FF82460022CF4B01F0F5
:103A10001BFD074601F0E6FCCD490860C848016877
:103A20004FF0804002F0AAFB0390C548016803985C
:103A300002F0A4FB05908DE16D707520696E6974CC
:103A4000206661696C65642E2E2E0A006D707520EB
:103A5000696E697469616C697A6174696F6E2063FB
:103A60006F6D706C6574652E2E2E2E2E2E0A200022
:103A70006D70755F7365745F73656E736F722063CD
:103A80006F6D706C657465202E2E2E2E2E2E0A0002
:103A90006D70755F7365745F73656E736F722063AD
:103AA0006F6D65206163726F7373206572726F72E0
:103AB000202E2E2E2E2E2E0A000000006D70755F17
:103AC000636F6E6669677572655F6669666F2063AE
:103AD0006F6D706C657465202E2E2E2E2E2E0A00B2
:103AE0006D70755F636F6E6669677572655F666935
:103AF000666F20636F6D65206163726F73732065FD
:103B000072726F72202E2E2E2E2E2E0A00000000B2
:103B10006D70755F7365745F73616D706C655F72F6
:103B200061746520636F6D706C657465202E2E2E38
:103B30002E2E2E0A000000006D70755F7365745F95
:103B400073616D706C655F72617465206572726F10
:103B500072202E2E2E2E2E2E0A000000646D705F15
:103B60006C6F61645F6D6F74696F6E5F64726976AC
:103B700065725F6669726D7761726520636F6D70E3
:103B80006C657465202E2E2E2E2E2E0A000000004D
:103B9000646D705F6C6F61645F6D6F74696F6E5F91
:103BA0006472697665725F6669726D7761726520AD
:103BB000636F6D65206163726F7373206572726FDE
:103BC00072202E2E2E2E2E2E0A0000002D000020F8
:103BD000646D705F7365745F6F7269656E74617434
:103BE000696F6E20636F6D706C657465202E2E2E6C
:103BF0002E2E2E0A00000000646D705F7365745FE6
:103C00006F7269656E746174696F6E20636F6D6544
:103C1000206163726F7373206572726F72202E2E33
:103C20002E2E2E2E0A000000646D705F656E61629C
:103C30006C655F6665617475726520636F6D706C2D
:103C4000657465202E2E2E2E2E2E0A00646D705F58
:103C5000656E61626C655F6665617475726520632F
:103C60006F6D65206163726F7373206572726F721E
:103C7000202E2E2E2E2E2E0A00000000646D705F66
:103C80007365745F6669666F5F7261746520636FE8
:103C90006D706C657465202E2E2E2E2E2E0A00005F
:103CA000646D705F7365745F6669666F5F7261747F
:103CB0006520636F6D65206163726F737320657239
:103CC000726F72202E2E2E2E2E2E0A006D70755FB2
:103CD0007365745F646D705F737461746520636F86
:103CE0006D706C657465202E2E2E2E2E2E0A00000F
:103CF0006D70755F7365745F646D705F737461740C
:103D00006520636F6D65206163726F7373206572E8
:103D1000726F72202E2E2E2E2E2E0A00A00121420E
:103D20004A0000204800002038000020C800002081
:103D3000420000203C000020000000200400002081
:103D4000080000200C00002066A64C400000F03F58
:103D50001C000020674801684FF0404002F00EFA56
:103D6000039064480168039802F008FA04900599EA
:103D700002F0D0FA4FF07E51069002F073F80790EF
:103D800002F044F8CDE90A015B4801684FF0804039
:103D900002F0F4F9049057480168049802F0EEF933
:103DA0000690564801684FF0804002F0E7F9049011
:103DB00053480168049802F0E1F90590069902F071
:103DC00051F8079002F022F8CDE90801DDE90A2355
:103DD000FEF7D4FA07464FF066324A4B01F03CFD3D
:103DE000054600224FF0404301F02EFB824601F0D1
:103DF000F9FA4549086042480168006802F0BEF9D6
:103E000005903E480168006802F0B8F9049039480E
:103E10000168006802F0B2F9029037480168006852
:103E200002F0ACF90190029902F01CF80390049999
:103E300002F070FA8346059902F06CFA824601F0AE
:103E4000E5FF05460E462E4801682B48006802F043
:103E500095F90590294801682648006802F08EF916
:103E60000490059901F0FEFF83464FF0804102F077
:103E700085F9824601F0CAFF2A463346CDE906019C
:103E8000FEF77CFA4FF066321E4BCDE9080101F0D7
:103E9000E3FC07460022134601F0D6FACDE90A01F9
:103EA00001F0A0FA194908601948006801F0AEFF56
:103EB00005462A460B4617A0FCF7DAF912480068B7
:103EC00001F0A4FF05462A460B4615A0FCF7D0F9E1
:103ED0000E48006801F09AFF05462A460B4613A0DB
:103EE000FCF7C6F914A0FCF7C3F94FF4FA7001F01F
:103EF00049FA0FE50400002000000020080000201F
:103F00000C00002066A64C40200000202400002069
:103F10001C00002050697463683A252E3166200029
:103F2000526F6C6C3A252E31662020005961773A29
:103F3000252E3166202020000D0A00007047000069
:103F400070B50446002624F00104184890F82400B7
:103F500008B1002070BD1548807A10B94FF0FF30CD
:103F6000F8E71248057C807A20401049087408461A
:103F7000007CA04202D04FF0FF3600E0002614B9CA
:103F80000A48007D18B1012001F01EF802E000206F
:103F900001F01AF83CB100F001FB20B103480574B0
:103FA0004FF0FF30D6E73046D4E700006000002035
:103FB00001461148407A30B1012807D0022808D0C4
:103FC00003280CD108E0022008700BE004200870E0
:103FD00008E00820087005E01020087002E04FF0AB
:103FE000FF30704700BF0448C07C18B10878400615
:103FF000000E08700020F4E760000020014613481E
:10400000407A30B1012808D002280AD0032810D104
:104010000BE04FF4804008800EE041F69C70088071
:104020000AE04FF48050088006E04FF400600880FA
:1040300002E04FF0FF30704700BF0448C07C10B171
:104040000888401008800020F5E70000600000208C
:1040500001460248007C0870002070476000002084
:1040600001460F48007A30B1012807D0022809D054
:1040700003280FD10AE0FA2008800EE04FF4FA700E
:1040800008800AE04FF47A70088006E04FF4FA6086
:10409000088002E00020088000BF00BF00207047B9
:1040A0006000002001460E48007A30B1012807D098
:1040B000022808D003280CD108E00A4808600BE069
:1040C0000948086008E00948086005E008480860F9
:1040D00002E04FF0FF30704700BF0020FBE7000018
:1040E000600000200000034300008342333303429A
:1040F0003333834101461248C07A082817D2DFE8DB
:1041000000F01704070A0D101318BC20088013E0F4
:104110006220088010E02A2008800DE0142008802A
:104120000AE00A20088007E00520088004E000BFBC
:1041300000BF0020088000BF00BF002070470000C3
:10414000600000200146064890F8240010B14FF0AE
:10415000FF3070470248C08908800020F9E700005E
:10416000600000201CB580208DF80000454A1268D0
:10417000517D444A526810786B460122FFF7FBFAE2
:1041800010B14FF0FF301CBD6420FEF70BFA002089
:104190008DF800003B4A1268517D3A4A5268107807
:1041A0006B460122FFF7E7FA10B14FF0FF30EAE764
:1041B00048208DF80000334A1268117A314A52685B
:1041C00010786B460122FFF7D6FA10B14FF0FF309E
:1041D000D9E7FF212B488172FF202A490872FF216D
:1041E00028484172C1724FF6FF71C181FF210174ED
:1041F00081744FF6FF7101850121017380F822104F
:10420000002180F82310417501751630016041606E
:104210008160163880F8241080F82510C1844FF48E
:10422000FA6000F055FC10B14FF0FF30ABE7022010
:1042300000F0EEFA10B14FF0FF30A4E72A2000F0B2
:10424000C1FC10B14FF0FF309DE7322000F0FCFCC4
:1042500010B14FF0FF3096E70020FFF771FE10B16C
:104260004FF0FF308FE700F0F7FE0A2000F0B8FBB8
:1042700010B14FF0FF3086E7002000F03FFD002036
:1042800081E70000600000202DE9F04385B005467D
:104290000E4690469946294890F8250020B14FF0E7
:1042A000FF3005B0BDE8F08316B94FF0FF30F8E7F6
:1042B000002423E0281B102801DD102000E0281B2B
:1042C00087B232193946204600F0CCFD10B14FF0CC
:1042D000FF30E6E701AA3946204600F01FF910B189
:1042E0004FF0FF30DDE730193A4601A9FCF753F8EB
:1042F00010B16FF00100D4E7E01984B2AC42D9DB11
:104300004FEA28208DF8000008F0FF008DF801002A
:104310000A4A1268517F094A526810786B46022295
:10432000FFF729FA10B14FF0FF30BAE70121034837
:1043300080F82510A0F826900020B2E76000002049
:1043400038B50446282C02DD4FF0FF3038BDDCB90B
:10435000002000F001FC00208DF8000007208DF8FF
:1043600001003D4A1268517D3B4A526810786B4605
:104370000222FFF700FA10B14FF0FF30E6E700210C
:10438000354801750020E1E7012000F0E5FB012C34
:1043900003D102208DF8000033E0022C03D103206A
:1043A0008DF800002DE0052C03DC04208DF80000C2
:1043B00027E00A2C03DC05208DF8000021E0142CF6
:1043C00003DC06208DF800001BE0282C03DC07200E
:1043D0008DF8000015E0502C03DC08208DF800005B
:1043E0000FE0A02C03DC09208DF8000009E0B4F5F3
:1043F000A07F03DC0A208DF8000002E00B208DF87E
:104400000000154A1268517A134A526810786B46B8
:104410000122FFF7B0F910B14FF0FF3096E72020EE
:104420008DF800000C4A1268517D0B4A52681078D2
:104430006B460122FFF79FF910B14FF0FF3085E77F
:1044400008210548817200210173012101750020B6
:10445000FFF776FD002079E760000020F8B50446FC
:104460000F4616462C4890F8240010B94FF0FF3044
:10447000F8BD2948807A10B94FF0FF30F8E7264A96
:104480001268117B244A526810786B460222FFF7AB
:1044900060F910B14FF0FF30EAE79DF801009DF898
:1044A000001040EA0125A54203DA00203070401ECA
:1044B000DEE7194840684088B5EB600F17DD164A03
:1044C0001268D17C144A526810786B460122FFF7BB
:1044D00040F910B14FF0FF30CAE79DF8000000F03E
:1044E000100020B100F05AF86FF00100C0E7E2B20E
:1044F000094B1B68597B084B5B6818783B46FFF7F4
:1045000028F910B14FF0FF30B2E795FBF4F0401EF0
:1045100030700020ACE7000060000020F8B50446D1
:104520000D46164616B94FF0FF30F8BD1A48807A8E
:1045300010B94FF0FF30F8E720128DF80000E0B21C
:104540008DF801009DF80100284413494968498904
:10455000884202DD4FF0FF30E7E70F4A1268D17E54
:104560000D4A526810786B460222FFF704F910B129
:104570004FF0FF30D9E7EAB2074B1B68197E064BB4
:104580005B6818783346FFF7E4F810B14FF0FF305E
:10459000CBE70020C9E700006000002008B57048A4
:1045A000807A10B94FF0FF3008BD002000906C4AAF
:1045B0001268517C6A4A526810786B460122FFF7F4
:1045C000DAF810B14FF0FF30EEE7654A1268517922
:1045D000634A526810786B460122FFF7CCF810B19D
:1045E0004FF0FF30E0E75E4A126811795C4A52688A
:1045F00010786B460122FFF7BEF810B14FF0FF3084
:10460000D2E7574890F82400002853D00C2000909F
:10461000534A12681179524A526810786B46012247
:10462000FFF7A9F810B14FF0FF30BDE73220FDF7DA
:10463000B9FFC02000904A48807A00F0010020B104
:104640009DF8000040F020000090454A1268117962
:10465000434A526810786B460122FFF78CF810B17C
:104660004FF0FF30A0E73E48407C10B102200090A0
:1046700001E0002000903A4A1268517C384A5268A2
:1046800010786B460122FFF776F810B14FF0FF303B
:104690008AE700200090324A12685179304A526805
:1046A00010786B460122FFF766F8002855D04FF0CE
:1046B000FF3079E704200090294A12681179284ACE
:1046C000526810786B460122FFF755F810B14FF091
:1046D000FF3069E72248807C20B92148807A00F0C9
:1046E000010010B94020009001E0602000901C4AB9
:1046F000126811791A4A526810786B460122FFF746
:104700003AF810B14FF0FF304EE73220FDF74AFF84
:104710001348407C10B10120009001E0002000907F
:104720000F4A1268517C0E4A526810786B4601227B
:10473000FFF721F810B14FF0FF3035E7084A126853
:104740005179074A52681078054B10330122FFF760
:1047500012F810B14FF0FF3026E7002024E70000E8
:10476000600000202DE9F04186B0074688462748C2
:1047700090F8240020B1002000F062F9012400E04C
:10478000002403A8FFF76CFC05A8FFF711FC01A8A3
:10479000FFF7B0FC02A8FFF7D5FC1C48867A04A8F6
:1047A000FFF756FC002241463846FEF72FFD07254D
:1047B000FF2016490872FF2114484172C1724FF65A
:1047C000FF71C181FF218172017401210173BDF864
:1047D0000C0000F07DF99DF8140000F019F8BDF808
:1047E000040000F0EFF9BDF8080000F02DFA3046A3
:1047F00000F084FA9DF81000FFF7A2FB14B101202D
:1048000000F01EF9284606B0BDE8F08160000020E7
:1048100038B504461E48807A10B94FF0FF3038BDD5
:10482000022C06D0042C07D0082C08D0102C0CD158
:1048300008E0002000900BE00820009008E0102025
:10484000009005E01820009002E04FF0FF30E6E70E
:1048500000BF0F48407A9DF80010B0EBE10F01D186
:104860000020DCE70A4A1268D179094A52681078B8
:104870006B460122FEF77FFF10B14FF0FF30CEE70D
:104880009DF80000C110024841720020C7E70000F7
:104890006000002038B504465048807CA04201D119
:1048A000002038BD002C46D04C4A126811794B4A82
:1048B000526810786B460122FEF74BFF10B14FF0A3
:1048C000FF30EEE79DF8000020F020000090434A02
:1048D00012681179414A526810786B460122FEF73E
:1048E0004AFF10B14FF0FF30DBE70320FDF75AFE1F
:1048F00002200090394890F8220020B19DF8000075
:1049000040F080000090354890F8230020B19DF8D9
:10491000000040F030000090304A1268D17D2F4AEC
:10492000526810786B460122FEF725FF002851D00F
:104930004FF0FF30B5E7294A12681179274A5268CB
:1049400010786B460122FEF704FF10B14FF0FF30E4
:10495000A7E72248807A00F0010028B19DF8000006
:1049600040F02000009004E09DF8000020F02000BE
:1049700000901A4A12681179184A526810786B46EA
:104980000122FEF7F8FE10B14FF0FF3089E7032057
:10499000FDF708FE114890F8220010B18020009029
:1049A00001E0002000900D4890F8230020B19DF810
:1049B000000040F030000090084A1268D17D074A9C
:1049C000526810786B460122FEF7D5FE10B14FF009
:1049D000FF3066E701488474002062E76000002031
:1049E00038B504462CB11548C089A04201DB642CBF
:1049F00002DD4FF0FF3038BD1048C08990FBF4F065
:104A0000401EC0B200900D4A126892F824100B4A62
:104A1000526810786B460122FEF7ADFE10B14FF0E0
:104A2000FF30E8E70548C1899DF80000401C91FB74
:104A3000F0F081B2014801850020DCE76000002031
:104A400038B50446214890F82400A04201D1002046
:104A500038BD24B31D4890F8250010B94FF0FF3041
:104A6000F6E7002000F0B0FA0020FFF713FF174927
:104A7000C88C00F0E9F800200090144949680878D3
:104A80006B4601222321FEF776FE01210F4880F8B4
:104A90002410012000F098FAFFF780FD13E00020B9
:104AA00000F092FA0948007C0090084949680878AB
:104AB0006B4601222321FEF75EFE0021034880F8A9
:104AC0002410FFF76BFD0020C2E70000600000200B
:104AD00038B504461F48807A10B94FF0FF3038BD12
:104AE000FA2C09D0B4F5FA7F09D0B4F57A7F09D051
:104AF000B4F5FA6F0CD108E0002000900BE008201C
:104B0000009008E01020009005E01820009002E0DE
:104B10004FF0FF30E3E700BF0E48007A9DF8001029
:104B2000B0EBE10F01D10020D9E70A4A1268917970
:104B3000084A526810786B460122FEF71CFE10B13D
:104B40004FF0FF30CBE79DF80000C010014908721C
:104B50000020C4E76000002038B50446184890F8EB
:104B60002300A04201D1002038BD14B130200090B4
:104B700001E0002000901248807C20B19DF80000E8
:104B800040F0020000900E4890F8220020B19DF8FD
:104B9000000040F080000090094A1268D17D084A68
:104BA000526810786B460122FEF7E5FD10B14FF018
:104BB000FF30D9E7024880F823400020D4E7000006
:104BC0006000002038B504461E48807A10B94FF0C6
:104BD000FF3038BDBC2C02DB0120009015E0622CB8
:104BE00002DB0220009010E02A2C02DB0320009060
:104BF0000BE0142C02DB0420009006E00A2C02DB00
:104C00000520009001E0062000900E48C07A9DF833
:104C10000010884201D10020DBE70A4A126891782F
:104C2000084A526810786B460122FEF7A4FD10B1C5
:104C30004FF0FF30CDE79DF800100248C172002010
:104C4000C7E700006000002038B504462A48807A93
:104C500010B94FF0FF3038BD274890F8240010B14C
:104C60004FF0FF30F7E72448007D50B134B1282CD5
:104C700004DCE0B2FFF764FB0020ECE70020FFF764
:104C80005FFB042C01DA042404E0B4F57A7F01DD33
:104C90004FF47A744FF47A7090FBF4F0401EC0B277
:104CA0000090154A12685178134A526810786B4682
:104CB0000122FEF760FD10B14FF0FF30CBE79DF809
:104CC0000000401C4FF47A7191FBF0F081B20A4869
:104CD000C1810146098D642902DA0146098D00E08F
:104CE00064210846FFF77CFE0349C9894810FFF795
:104CF00069FF0020AFE70000600000201CB50446FB
:104D000004F0700010B10120019005E014B1002002
:104D1000019001E040200190514A1268517D504AB3
:104D20005268107801AB0122FEF725FD20B1002169
:104D30004B488172481E1CBD9DF8040020F04001C4
:104D4000474801730020019004F0400020B99DF80D
:104D5000040040F00400019004F0200020B99DF808
:104D6000040040F00200019004F0100020B99DF80A
:104D7000040040F00100019004F0080020B99DF803
:104D8000040040F038000190354A1268917D344AA1
:104D90005268107801AB0122FEF7EDFC20B1002132
:104DA0002F488172481EC6E724B1082C02D000208B
:104DB000FFF7D2FE2A4A12681179294A5268107800
:104DC0006B460122FEF7C5FC10B14FF0FF30B2E791
:104DD00004F0010038B1112001909DF8000040F06E
:104DE0002000009006E0102001909DF8000020F0C7
:104DF000200000901A4890F8240028B19DF8000087
:104E000040F08000009004E09DF8000020F0800059
:104E10000090134A126892F82610114A52681078CE
:104E200001AB0122FEF7A7FC10B14FF0FF3082E783
:104E30000B4A126811790A4A526810786B460122AF
:104E4000FEF799FC10B14FF0FF3074E7044884720C
:104E5000002101753220FDF7A5FB00206BE7000063
:104E600060000020F8B504460D46164616B94FF00E
:104E7000FF30F8BD1A48807A10B94FF0FF30F8E7DC
:104E800020128DF80000E0B28DF801009DF80100BD
:104E90002844134949684989884202DD4FF0FF30B0
:104EA000E7E70F4A1268D17E0D4A526810786B46C8
:104EB0000222FEF760FC10B14FF0FF30D9E7EAB2F2
:104EC000074B1B68197E064B5B6818783346FEF764
:104ED00052FC10B14FF0FF30CBE70020C9E70000D3
:104EE0006000002070B588B002A905A8FFF73AFC61
:104EF0000446072C3FD101A8FFF7D4F8059801F02C
:104F000011F90646019901F039F9054601F0CEF88C
:104F10000590069801F006F90646019901F02EF970
:104F2000054601F0C3F80690079801F0FBF8064625
:104F3000019901F023F9054601F0B8F8079005A89A
:104F4000FDF7B4FE6846FFF759F8BDF80010029867
:104F500048430290BDF80010039848430390BDF801
:104F6000001004984843049002A8FDF7CFFD04A068
:104F7000FBF77EF902E00BA0FBF77AF908B070BDF1
:104F800073657474696E67206269617320737563F9
:104F900063657366756C6C79202E2E2E2E2E2E0A6C
:104FA000000000006269617320686173206E6F7495
:104FB000206265656E206D6F646966696564202E88
:104FC0002E2E2E2E2E0A000038B50446214890F8C9
:104FD0002400C0B114B10220009001E00020009034
:104FE0001C4A1268517C1B4A526810786B46012299
:104FF000FEF7C1FB10B14FF0FF3038BD9DF8001037
:105000001448417423E01348807A10B94FF0FF3000
:10501000F3E724B10F48407C08B10020EDE714B15C
:105020000120009001E0002000900A4A1268517CA3
:10503000084A526810786B460122FEF79CFB10B1BB
:105040004FF0FF30D9E79DF800100248417400206E
:10505000D3E700006000002038B50120FFF71AFCFC
:105060000C240EE06B46012200212046FEF771FB66
:10507000054625B99DF80000482800D103E0601CD2
:10508000C4B20F2CEEDD00BF0F2C05DD81A0FBF7B5
:10509000EFF84FF0FF3038BD834880F82A401020E9
:1050A0008DF80000804991F82A006B4601220A2100
:1050B000FEF761FB10B14FF0FF30ECE70120FDF788
:1050C00071FA1F208DF80000774991F82A006B468D
:1050D00001220A21FEF74FFB10B14FF0FF30DAE753
:1050E0000120FDF75FFA704991F82A006B46032210
:1050F0001021FEF72EFB10B14FF0FF30CBE79DF8EB
:1051000000008030684988859DF80110803166482C
:10511000C1859DF802108031018610208DF80000B5
:10512000614991F82A006B4601220A21FEF723FB10
:1051300010B14FF0FF30AEE70120FDF733FA002049
:10514000FFF7A8FB40208DF80000574A1268917EB7
:10515000554A526810786B460122FEF70CFB10B1DD
:105160004FF0FF3097E7504890F82A0040F0800059
:105170008DF800004C4A1268917F4B4A52681078B3
:105180006B460122FEF7F7FA10B14FF0FF3082E7CD
:1051900002208DF80000444A1268D17F424A5268CA
:1051A00010786B460122FEF7E6FA10B14FF0FF309F
:1051B00071E788208DF800003B4A126892F82010B1
:1051C000394A526810786B460122FEF7D4FA10B1C2
:1051D0004FF0FF305FE7344890F82A008DF8000068
:1051E000314A126892F821102F4A526810786B46A3
:1051F0000122FEF7C0FA10B14FF0FF304BE70A2052
:105200008DF80000284A126892F82210264A526847
:1052100010786B460122FEF7AEFA10B14FF0FF3066
:1052200039E781208DF800001F4A126892F8231098
:105230001D4A526810786B460122FEF79CFA10B1A5
:105240004FF0FF3027E711208DF80000164A126852
:1052500092F82610144A526810786B460122FEF725
:105260008AFA10B14FF0FF3015E703208DF80000E7
:105270000D4A126892F827100B4A526810786B4654
:105280000122FEF778FA10B14FF0FF3003E700205B
:1052900001E70000436F6D70617373206E6F7420BF
:1052A000666F756E642E0A00600000202DE9F041E3
:1052B00006460F4600F0DAFB041E0D4618BF01201B
:1052C000284320F00040C0F17F6000F1E040C00FB3
:1052D0000ED0301C18BF0120384320F00040C0F130
:1052E0007F6000F1E040C00F04BF0120FBF707F929
:1052F00020462946BDE8F08110B586B0044601215C
:1053000044F20400FCF712FB4FF40070ADF81400F7
:1053100003208DF8160018208DF8170005A91748EE
:10532000FCF7A4F84FF48060ADF8140004208DF869
:10533000170005A91148FCF799F80120FCF7A5FA18
:1053400001940020ADF80800ADF80A00ADF80C009B
:10535000ADF810000C20ADF80E0001A90848FCF7CC
:10536000CBFC012240F225510548FCF79FFC0121AE
:105370000348FCF765FC06B010BD000000080140C2
:105380000038014010B5044603E04FF47A7000F095
:1053900005F8201EA4F10104F7D110BD014605E077
:1053A000002001E0421CD0B20A28FBDB0A1EA1F15A
:1053B0000101F5D17047000010B500290AD0087826
:1053C000002807D005487844FBF752FC002801D09C
:1053D000002010BD0248784410BD00002E1F0000C0
:1053E000261F000021F00042A2F16052B2F5801F9A
:1053F00001F0004328BFD2F17F6C0BD95FEA001C9B
:1054000043EAC20242EB507018BF704728BF20F039
:1054100001007047B2F5801FBCBF184670474FEAC5
:10542000410C1CF5001F02D2084600F06EBF70B59B
:1054300000F0BCFA00000089FFF7F6BF4FF0004013
:10544000A0F580007047000010B591EA030F48BF37
:1054500083F0004300F1F883841A71EB030C05D24A
:10546000121943EB0C03001B61EB0C01DFF824E184
:105470004FEA1154A4EB135C1EEA430F18BF9EEAD7
:10548000445F73D023EA0E03DCF1200E21EA0451BD
:1054900043F4801332D322FA0CFE10EB0E0023FAF1
:1054A0000CFE41EB0E01CCF1200E03FA0EFE10EBC8
:1054B0000E0051F10001B1F5801FCCF1200E32D267
:1054C00001EB045112FA0EF2BDE8104058BF7047CC
:1054D000401C38BF5FEA420218BF7047002814BF63
:1054E00020F0010041F100014FEA410313F5001FD4
:1054F00038BF7047A1F1C04100F0A6BA012A43EBC2
:105500000302ACF1200CDCF11F0E32BF4FF0000E95
:1055100023FA0CF310EB030041EB0451B4EB115FE1
:10552000D0D0A1EB045101F5801149085FEA3000A9
:1055300001EB04510ED350F1000038BF12FA0EFEF9
:1055400008D1BDE81040C9E7401C38BF5FEA4202FD
:10555000CAD1C3E7BDE810404FEA410313F5001F6D
:1055600038BF7047A1F1C04100F06EBA9EEA445FB7
:1055700008D011EA5E0FBDE8104004BF01F0004101
:1055800000207047BDE8104070B500F00FFA00BF72
:1055900064FBBE3E0000E0FF02494FF0000000F057
:1055A00030BF00BF0000F87F2DE9C04130B4DFF804
:1055B000A0C23CEA111418BF3CEA131400F0EC80BE
:1055C00081EA03051CEA111444EAD57418BF1CEAE9
:1055D000131500F0C780A4EB05044FF0004545EA21
:1055E000C12145EAC32341EA505143EA525304F131
:1055F0007F74994204F500344FEAC0204FEAC2227A
:1056000008BF904200F09C804FEA13650FF24016ED
:10561000765D4FEA134506FB05F7C7F1807706FB79
:1056200007F74FEAD737A7FB03687642C8F58038FB
:10563000A7FB06CE38BFA8F1010807FB08E64FF02C
:10564000000EA6FB028CE6FB03CEDCF1000CCEF1D3
:10565000004E38BFAEF1010EA6FB0C584FF000070C
:105660004FF00005E6FB0E87A1FB08C6A0FB07CEA6
:1056700016EB0E0645F10005E1FB076515F1E04E5E
:105680007EBFA4F580345FEA46066D4116F18007BF
:1056900045F100054FEA17274FEA066647EA056716
:1056A000A6F1DE46B6F1805F4FEA15251FD93846D0
:1056B00024F0010C05EBC471BCF1FE6F01EB0C1181
:1056C00002D8F0BCBDE8008124425CBF01F5801E19
:1056D0009EEAC47F02D4F0BCBDE80081244238D4E5
:1056E000F0BCA1F1C041BDE8004100F0ADB94FEA06
:1056F000D22242EA43524FEAD323A7FB02864FEA63
:10570000D02040EA415007FB03661EEA0E0F4FEA25
:10571000D12105FB026658BFA6EB0056B6EB00563A
:105720004FEA520E4EEAC37E18EB0E0E56EB530EA6
:10573000BDD518EB02085E417F1C55F10005B6E7A8
:105740004FF480154FF000074FF000064FF00008AF
:10575000ADE7F0BC4FF0000001F1C04101F00041A5
:10576000BDE8008111EA0C1F0CEA131500D00CE013
:1057700013EA0C1F00F025804FF00000F0BC81EA16
:10578000030101F00041BDE80081F0BCBDE800412B
:1057900081EA030100F058B9F0BCBDE8004170B5E2
:1057A00000F004F9097EFC3E00F007B881EA03012D
:1057B0004FF0000001F00041704781EA030100F062
:1057C00043B9F0BCBDE800414FF0000021497047EB
:1057D000FFFDFBF9F7F5F4F2F0EEEDEBE9E8E6E4B6
:1057E000E3E1E0DEDDDBDAD8D7D5D4D3D1D0CFCD3D
:1057F000CCCBCAC8C7C6C5C4C2C1C0BFBEBDBCBB76
:10580000BAB9B8B7B6B5B4B3B2B1B0AFAEADACAB70
:10581000AAA9A8A8A7A6A5A4A3A3A2A1A09F9F9E4A
:105820009D9C9C9B9A9999989797969595949393FC
:10583000929191908F8F8E8E8D8C8C8B8B8A898993
:105840008888878786858584848383828281818016
:105850000000FF070000F87FDFF848C170B51CEAC0
:10586000111E1EBF1CEA13159EEA0C0F95EA0C0FC1
:1058700000F06F8081EA030423EA4C134EEAD47EE1
:1058800021EA4C1141F4801143F48013AE44A1FB92
:10589000024CA0FB0365AEF17F7E361955EB0C057B
:1058A000A1FB034C4CF10003A0FB021C16EB0C0601
:1058B000654153F10003094218BF46F0010613F495
:1058C000007F0BD14FEA03314FEA0530340341EA40
:1058D000155140EA16506FF003020AE04FEAC32167
:1058E0004FEAC520F40241EA555140EA56506FF0A4
:1058F000020202EB2E4201EB025585EACE710AD07C
:105900005FEA440C18BF24F0004450F1000041F15C
:10591000000120EAD47040F2FE7C624500D270BDE6
:10592000A84214BF4FF080444FF04044002E08BFFF
:105930000024BEF1806FA8BFA1F1C041BDE8704056
:1059400080F282804FF0000001F1C04101F000417F
:1059500070479EEA0C0F0CEA131518BF95EA0C0F5E
:1059600006D04FF0000081EA030E0EF0004170BD3A
:1059700000F01CF88900013E00F007B800F009B8FB
:105980004FEA430C5FEA5C5C08D081EA030100F057
:105990005BB84FEA410C5FEA5C5CF6D14FF0000067
:1059A000014970470000FF070000F87F0EF1020E6A
:1059B0002EF0030E5EF8046B364205D4012A43EB49
:1059C000030515F5001F12D8012841EB010C1CF549
:1059D000001F0CD80ED14FEAD17C15F5001F0CEB3F
:1059E0004C0C0CF1020C08BF4CEBD37C04E04FF0E4
:1059F000080C01E04FEAD37C0CEB4C0526FA05F6C7
:105A000006F00706B6F1040C06D20EEB860CBDE8D4
:105A100070404CF0010C6047DFE80CF0090B02020B
:105A20004FF000414FF00000A1F5002170BD194674
:105A30001046012851EB010418BFD4F5001484BFAF
:105A4000002001F0004170BD0808A0F500114FEAE8
:105A50003101704791EA030F10B581F000413FF525
:105A6000FBAC83F0004300F0EFB800002DE9F041FB
:105A700001F5801CBCF5001FC0F2C3804FEA115C29
:105A800021EA0C510CF1FD0C41F480115FEA5C0C31
:105A90000CF5C07C01D3400049413DA4890241EA94
:105AA000905187028E0E0A0CA45D04FB04F602FBE3
:105AB00006F6C6F14046A4FB0662F60D46EA42260B
:105AC00006FB06F4A4FB01235242C3F1404338BF56
:105AD0005B1EA6FB02420024E6FB0324D20B42EA33
