:020000040800F2
:10000000906400207D5700080502000807020008E0
:100010000B0200080F020008130200080000000095
:1000200000000000000000000000000017020008AF
:1000300019020008000000001B0200089557000884
:1000400097570008975700089757000897570008D8
:1000500097570008975700089757000897570008C8
:1000600097570008E7650008C16500089757000822
:1000700097570008975700089757000897570008A8
:10008000A11700089757000897570008CF050008E8
:10009000EB05000897570008975700089757000886
:1000A0009757000897570008975700089757000878
:1000B0008F040008975700089757000897570008C3
:1000C0009757000897570008975700089757000858
:1000D000975700089757000897570008F918000825
:1000E0009757000897570008975700089757000838
:1000F0009757000897570008975700089757000828
:100100009757000897570008975700089757000817
:1001100097570008975700083504000897570008BC
:1001200097570008975700089757000897570008F7
:10013000975700089757000897570008D1080008FC
:1001400097570008ED0800089757000897570008D0
:100150006F1B00089757000897570008975700082B
:1001600097570008975700089757000897570008B7
:1001700097570008975700089757000897570008A7
:100180009757000897570008DFF80CD008F0E6FBF7
:10019000004800479D0100089064002088B002F0EC
:1001A000EFFA2BE0164801690091808AADF804004F
:1001B0001622134902A808F097F802A80FC801F008
:1001C00049FCD8B10E48408A0D4C0090237AA28891
:1001D0006188208801F041FF2246517C507A02F06C
:1001E00005FD2246117C507A02F037FD2346DA885D
:1001F000B3F90C10B3F90A0002F070FBD2E700006B
:10020000EA010020704700BFFEE700BFFEE700BF25
:10021000FEE700BFFEE77047704770471CB501213D
:10022000042003F08FFD0620009001208DF80400CB
:1002300000208DF8060003208DF805006946064869
:1002400004F0B0FC0221044804F028FD0421024817
:1002500004F024FD1CBD00000008024010B5002180
:1002600007E04AF2104200BF1300A2F10102FBD1E5
:10027000491C8142F5D310BD10B5002106E02822AB
:1002800000BF1300A2F10102FBD1491C8142F6D349
:1002900010BD000000B58BB00121084603F052FDEF
:1002A0000121082003F081FD0121080403F08EFDE7
:1002B0000720099002208DF8280003208DF82900DE
:1002C00009A9404804F06EFC022200213D4804F0D8
:1002D000F4FC022201213B4804F0EFFC032202213E
:1002E000384804F0EAFC5320ADF818000020ADF8BF
:1002F0001A0040F6C41007900020ADF8200006A9AF
:10030000314802F0F4FDA720ADF818000020ADF848
:100310001A0042F2107007900020ADF8200006A9E4
:100320002A4802F0E4FD7020ADF804000120ADF889
:1003300006000020ADF808004FF47A700390022008
:10034000ADF810000020ADF81200ADF814004FF425
:100350008070ADF8160001A91B4802F05DFE01A9EE
:10036000194802F092FE0020039001A9174802F0FC
:1003700053FE0821144802F0DCFF0821124802F065
:10038000E1FF0821114802F0D4FF01210E4802F0DC
:1003900019FE01210D4802F015FE01210A4802F064
:1003A0002FFE0121094802F02BFE4FF47A70064916
:1003B00034310860091D08600020044948630BB00F
:1003C00000BD000000000240000C00400040014061
:1003D0001FB50121102003F0E8FC36208DF8000045
:1003E00000208DF8010002208DF8020001208DF818
:1003F0000300684602F061FC2920ADF804000020EB
:10040000ADF80600ADF80C002C48029001A92C486C
:1004100002F06DFD1FBD10B50121294802F0F0FD6D
:1004200001221146264803F003FA0121244803F073
:1004300013FA10BD10B50121214803F010FA38B1AC
:1004400001211F4803F01CFA01211D4803F004FAA2
:1004500010BD0EB50121084603F0A7FC4FF0FF3098
:1004600001905320ADF800000020ADF80800ADF871
:1004700002000121880702F0A5FD69464FF0804087
:1004800002F035FD0121880702F0BAFD0EBD10B55E
:100490000121880703F0E3F958B10121880703F02F
:1004A000EFF90121880703F0D7F90421054804F08A
:1004B00000FC10BD4FF08040406A7047A0860100EC
:1004C000001000400008024000B58BB00121084632
:1004D00003F038FC0121480603F067FC09220C21D7
:1004E000B04804F0EAFB09220B21AE4804F0E5FB1A
:1004F0004FF4C050029002208DF80C0002A9A948C8
:1005000004F050FB14208DF8040000208DF8050045
:100510008DF8060001208DF8070001A802F0CDFB40
:1005200013208DF8040001208DF805008DF80600D9
:100530008DF8070001A802F0C0FB9B4803F040FDC6
:1005400008A803F061FE00208DF826008DF8270032
:100550008DF828008DF829008DF82A0001208DF8EB
:100560002B0000208DF822008DF8230008208DF844
:10057000240003208DF82500ADF8200008A98A4842
:1005800003F037FD00208DF81A008DF81B000120C4
:100590008DF81C000020ADF81000ADF81200ADF889
:1005A0001400ADF81600ADF8180001208DF81D00FC
:1005B00004A803F0A8FD012202217B4804F0A2F860
:1005C00001221146784804F09DF80BB000BD10B52B
:1005D0000121754804F0FDF830B10121724804F0A2
:1005E00092F901207149087010BD00B585B0022153
:1005F0006D4804F0EEF800287ED002216A4804F02D
:1006000082F96A460021684803F061FF0098A0F56E
:100610000071053933D19DF80C009DF80B1040EAAC
:10062000012000B26249C8809DF80E109DF80D00AF
:1006300041EA002000B25E4948819DF810109DF803
:100640000F0041EA002000B2594988810846C0885D
:1006500008810846008900F48050B0F5805F06D11B
:100660000846C088A0F5F850FF3800B2088150480D
:10067000008940F6B831081A00B24D490881009847
:10068000A0F50071063933D19DF80C009DF80B10D0
:1006900040EA012000B24749C8809DF80E109DF83D
:1006A0000D0041EA002000B2424948819DF8101037
:1006B0009DF80F0041EA002000B23E4988810846BB
:1006C000C08808810846008900F48050B0F5805F3A
:1006D00006D10846C088A0F5F850FF3800B208815E
:1006E0003448008940F6B831081A00B2314908810F
:1006F00031480088401C00E001E02F49088005B027
:1007000000BD30B585B004460D4640F2FF100090A4
:1007100000208DF808008DF8090008208DF80A00E7
:10072000200A8DF80B00E1B28DF80C10290A8DF823
:100730000D10E9B28DF80E1000218DF80F108DF814
:1007400010108DF811108DF812106946164803F03C
:10075000C9FD05B030BD00B585B040F2FF10009076
:1007600000208DF808008DF8090008208DF80A0097
:1007700000208DF80B0000218DF80C108DF80D1065
:100780008DF80E108DF80F108DF8101004218DF8D3
:10079000111000218DF812106946034803F0A2FDE4
:1007A00005B000BD000002400064004002000020CF
:1007B000A8000020C00000200000002000B58BB081
:1007C0000121022003F0BEFA0121480603F0EDFAF0
:1007D0000121880603F0E9FA09220D21FA4804F004
:1007E0006CFA09220C21F84804F067FA4FF44050E3
:1007F000029002208DF80C0002A9F34804F0D2F90F
:1008000041208DF8040000208DF8050002208DF8AD
:10081000060001208DF8070001A802F04EFA3F20E3
:100820008DF8040000208DF805008DF806000120E9
:100830008DF8070001A802F040FAE44803F0C0FB7D
:1008400008A803F0E1FC00208DF826008DF82700B1
:100850008DF828008DF829008DF82A0001208DF8E8
:100860002B0000208DF822008DF8230008208DF841
:10087000240003208DF82500ADF8200008A9D348F6
:1008800003F0B7FB0E208DF81A0000208DF81B0036
:1008900001208DF81C000020ADF81000ADF812000A
:1008A000ADF81400ADF816000120ADF818008DF871
:1008B0001D0004A803F027FC01221146C34803F0E1
:1008C00021FF01221021C14803F01CFF0BB000BD25
:1008D00010B50121BD4803F07CFF30B10121BB48B8
:1008E00004F011F80120BA49087010BD00B585B0B8
:1008F0001021B64803F06DFF002839D01021B3480D
:1009000004F001F86A460121B04803F0E0FD9DF8CB
:10091000080000282CD19DF809000028FAD19DF884
:100920000A000828F6D100981B2822D19DF80C0057
:100930009DF80B1040EA012000B2A64908809DF8FE
:100940000E109DF80D0041EA002000B2A149488038
:100950009DF80F0001069DF8100041EA00419DF846
:10096000110041EA00209DF812100843994948609F
:10097000B8E000982B2822D19DF80C009DF80B10B0
:1009800040EA012000B2944908809DF80E109DF8BD
:100990000D0041EA002000B28F4948809DF80F0009
:1009A00001069DF8100041EA00419DF8110041EA5E
:1009B00000209DF8121008438749486092E0009893
:1009C0003B2822D19DF80C009DF80B1040EA012035
:1009D00000B2824908809DF80E109DF80D0041EA92
:1009E000002000B27D4948809DF80F0001069DF867
:1009F000100041EA00419DF8110041EA00209DF8F5
:100A000012100843754948606CE000984B2822D1C9
:100A10009DF80C009DF80B1040EA012000B27049CF
:100A200008809DF80E109DF80D0041EA002000B2EC
:100A30006B4948809DF80F0001069DF8100041EABF
:100A400000419DF8110041EA00209DF81210084372
:100A50006349486046E000981F2803D101205D49A2
:100A600008723FE000982F2803D101205A490872EC
:100A700038E000983F2803D101205849087231E03E
:100A800000984F2803D10120554908722AE00098A8
:100A90001C2807D19DF80B004E4948729DF80C00A8
:100AA00088721FE000982C2807D19DF80B004A4956
:100AB00048729DF80C00887214E000983C2807D119
:100AC0009DF80B00454948729DF80C00887209E0BA
:100AD00000984C2806D19DF80B00414948729DF8BA
:100AE0000C00887205B000BDF0B585B004460D4617
:100AF00016461F464FF40070009000208DF8080045
:100B00008DF8090008208DF80A00200A8DF80B00E6
:100B1000E1B28DF80C10290A8DF80D10E9B28DF8AC
:100B20000E10310A8DF80F10F1B28DF81010390A3D
:100B30008DF81110F9B28DF812106946234803F0B0
:100B4000D1FB05B0F0BD70B586B004460D46002659
:100B500000208DF80C008DF80D0008208DF80E0097
:100B6000082C0FD2DFE804F00405060708090A0B79
:100B700000BF00BF00BF00BF00BF00BF00BF46EA0C
:100B8000042601E006B070BD00BF102D2AD2DFE8B8
:100B900005F008090A0B0C0D0E0F10111213141595
:100BA000161700BF00BF00BF00BF00BF00BF00BFDF
:100BB00000BF00BF00BF00BF00BF00BF00BF00BF3D
:100BC00046EA05160FE000000004024000680040FD
:100BD00003000020000200200C0200201802002068
:100BE00024020020CEE700BF019655208DF80F00AB
:100BF00055218DF810108DF811108DF812108DF808
:100C000013108DF814108DF815108DF816100020A3
:100C1000F949087001A9F94803F064FB00BFF648E0
:100C200000780028FBD000BFACE7F0B585B00446E3
:100C30000D461746012600208DF808008DF80900A2
:100C400008208DF80A00082C0FD2DFE804F0040514
:100C5000060708090A0B00BF00BF00BF00BF00BFA6
:100C600000BF00BF46EA042601E005B0F0BD00BFAA
:100C7000102D1BD2DFE805F008090A0B0C0D0E0F32
:100C8000101112131415161700BF00BF00BF00BFCC
:100C900000BF00BF00BF00BF00BF00BF00BF00BF5C
:100CA00000BF00BF00BF46EA051600E0DDE700BF59
:100CB00000968DF80B7055218DF80C108DF80D10E5
:100CC0008DF80E108DF80F108DF810108DF8111092
:100CD0008DF812100020C84908706946C74803F013
:100CE00001FB00BFC44800780028FBD000BFBCE770
:100CF000F0B585B005460E461446022700208DF853
:100D000008008DF8090008208DF80A00082D0FD280
:100D1000DFE805F00405060708090A0B00BF00BF5D
:100D200000BF00BF00BF00BF00BF47EA052701E0CA
:100D300005B0F0BD00BF102E1BD2DFE806F0080999
:100D40000A0B0C0D0E0F101112131415161700BFFD
:100D500000BF00BF00BF00BF00BF00BF00BF00BF9B
:100D600000BF00BF00BF00BF00BF00BF47EA0617BB
:100D700000E0DDE700BF009741F28830844201DDEA
:100D8000044603E09E48844200DA0446200A8DF8B7
:100D90000B00E1B28DF80C1055218DF80D108DF877
:100DA0000E108DF80F108DF810108DF811108DF8B1
:100DB00012100020904908706946904803F092FA9A
:100DC00000BF8D4800780028FBD000BFB0E72DE9B8
:100DD000F04186B006460F4614461D464FF0030804
:100DE00000208DF80C008DF80D0008208DF80E0005
:100DF000082E0FD2DFE806F00405060708090A0BE3
:100E000000BF00BF00BF00BF00BF00BF00BF48EA77
:100E1000062802E006B0BDE8F08100BF102F1BD20B
:100E2000DFE807F008090A0B0C0D0E0F1011121362
:100E30001415161700BF00BF00BF00BF00BF00BFE2
:100E400000BF00BF00BF00BF00BF00BF00BF00BFAA
:100E500000BF48EA071800E0DCE700BFCDF80480D7
:100E600041F28830844201DD044603E06448844254
:100E700000DA0446002C04DA01DD204600E060427E
:100E800004B2B5F5FA6F02DD4FF4FA6503E015F52B
:100E9000FA6F00DA5B4D200A8DF80F008DF81040D4
:100EA000290A8DF811108DF8125055218DF8131064
:100EB0008DF814108DF815108DF8161000204E497D
:100EC000087001A94D4803F00DFA00BF4A480078A8
:100ED0000028FBD000BF9DE72DE9F04186B0054614
:100EE0000E4614461F464FF0040800208DF80C00F3
:100EF0008DF80D0008208DF80E00082D0FD2DFE8C8
:100F000005F00405060708090A0B00BF00BF00BF73
:100F100000BF00BF00BF00BF48EA052802E006B0DE
:100F2000BDE8F08100BF102E1BD2DFE806F00809F3
:100F30000A0B0C0D0E0F101112131415161700BF0B
:100F400000BF00BF00BF00BF00BF00BF00BF00BFA9
:100F500000BF00BF00BF00BF00BF00BF48EA0618C7
:100F600000E0DCE700BFCDF8048041F28830844225
:100F700001DD044603E02248844200DA0446002CE6
:100F800004DA01DD204600E0604204B2200A8DF858
:100F90000F008DF81040390A8DF811108DF812707D
:100FA00055218DF813108DF814108DF815108DF84B
:100FB000161000201049087001A9104803F092F99A
:100FC00000BF0D4800780028FBD000BFA7E72DE93F
:100FD000F04186B006460F4614461D464FF0050800
:100FE00000208DF80C008DF80D0008208DF80E0003
:100FF000082E19D208E0000003000020006800401D
:1010000078ECFFFF30F8FFFFDFE806F00405060785
:1010100008090A0B00BF00BF00BF00BF00BF00BF30
:1010200000BF48EA062802E006B0BDE8F08100BF34
:10103000102F1BD2DFE807F008090A0B0C0D0E0F6A
:10104000101112131415161700BF00BF00BF00BF08
:1010500000BF00BF00BF00BF00BF00BF00BF00BF98
:1010600000BF00BF00BF48EA071800E0DCE700BF90
:10107000CDF8048041F28830844201DD044603E06B
:10108000FC48844200DA0446002C04DA01DD2046E4
:1010900000E0604204B2200A8DF80F008DF8104085
:1010A00055218DF811108DF81210290E8DF813109E
:1010B000290C8DF81410290A8DF815108DF816508A
:1010C0000020ED49087001A9EC4803F00BF900BFBE
:1010D000E94800780028FBD000BFA5E72DE9F043E0
:1010E00085B006460F4614461D46DDF830804FF0A9
:1010F000060900208DF808008DF8090008208DF8F9
:101100000A00082E0FD2DFE806F0040506070809DA
:101110000A0B00BF00BF00BF00BF00BF00BF00BF81
:1011200049EA062902E005B0BDE8F08300BF102FB0
:101130001BD2DFE807F008090A0B0C0D0E0F101187
:1011400012131415161700BF00BF00BF00BF00BF69
:1011500000BF00BF00BF00BF00BF00BF00BF00BF97
:1011600000BF00BF49EA071900E0DCE700BFCDF887
:10117000009041F28830844201DD044603E0BD481E
:10118000844200DA0446002C04DA01DD204600E047
:10119000604204B2002D04DA01DD284600E0684216
:1011A00005B2200A8DF80B00E1B28DF80C10290A67
:1011B0008DF80D10E9B28DF80E104FEA18618DF818
:1011C0000F104FEA18418DF810104FEA18218DF8D2
:1011D000111008F0FF018DF812100020A6490870C8
:1011E0006946A64803F07EF800BFA34800780028AF
:1011F000FBD000BF97E72DE9F04186B005460E46CB
:1012000014461F464FF0070800208DF80C008DF89B
:101210000D0008208DF80E00082D0FD2DFE805F034
:101220000405060708090A0B00BF00BF00BF00BF86
:1012300000BF00BF00BF48EA052802E006B0BDE8D5
:10124000F08100BF102E1BD2DFE806F008090A0B60
:101250000C0D0E0F101112131415161700BF00BF3E
:1012600000BF00BF00BF00BF00BF00BF00BF00BF86
:1012700000BF00BF00BF00BF00BF48EA061800E083
:10128000DCE700BFCDF80480B4F5FA6F02DD4FF45F
:10129000FA6403E014F5FA6F00DA794C002C04DAF2
:1012A00001DD204600E0604204B2200A8DF80F0004
:1012B0008DF81040390A8DF811108DF812705521F3
:1012C0008DF813108DF814108DF815108DF8161078
:1012D00000206949087001A9684803F003F800BFBD
:1012E000654800780028FBD000BFA7E72DE9F04152
:1012F00086B006460F4614461D464FF008080020EB
:101300008DF80C008DF80D0008208DF80E00082EC9
:101310000FD2DFE806F00405060708090A0B00BF34
:1013200000BF00BF00BF00BF00BF00BF48EA0628E3
:1013300002E006B0BDE8F08100BF102F1BD2DFE84D
:1013400007F008090A0B0C0D0E0F101112131415DB
:10135000161700BF00BF00BF00BF00BF00BF00BF27
:1013600000BF00BF00BF00BF00BF00BF00BF00BF85
:1013700048EA071800E0DCE700BFCDF80480B4F5C8
:10138000FA6F02DD4FF4FA6403E014F5FA6F00DA45
:101390003B4C002C04DA01DD204600E0604204B240
:1013A000200A8DF80F008DF8104055218DF811108E
:1013B0008DF81210290E8DF81310290C8DF81410C9
:1013C000290A8DF815108DF8165000202A4908704A
:1013D00001A92A4802F086FF00BF274800780028AC
:1013E000FBD000BFA5E72DE9F04385B005460E46CA
:1013F000144698460C9F4FF0090900208DF808000C
:101400008DF8090008208DF80A00082D0FD2DFE8BA
:1014100005F00405060708090A0B00BF00BF00BF5E
:1014200000BF00BF00BF00BF49EA052902E005B0C8
:10143000BDE8F08300BF102E24D2DFE806F00809D3
:101440000A0B0C0D0E0F101112131415161700BFF6
:1014500000BF00BF00BF00BF00BF00BF00BF00BF94
:1014600000BF00BF00BF00BF00BF00BF49EA0619B0
:1014700009E0000078ECFFFF030000200068004056
:1014800030F8FFFFD3E700BFCDF80090B4F5FA6F56
:1014900002DD4FF4FA6403E014F5FA6F00DA7D4CD4
:1014A000002C04DA01DD204600E0604204B2200A8C
:1014B0008DF80B00E1B28DF80C104FEA18218DF871
:1014C0000D1008F0FF018DF80E10390E8DF80F1079
:1014D000390C8DF81010390A8DF81110F9B28DF809
:1014E000121000206C49087069466C4802F0FAFE40
:1014F00000BF694800780028FBD000BF97E72DE9BE
:10150000F04186B004460D4690461E460A2700204C
:101510008DF80C008DF80D0008208DF80E00082CB9
:101520000FD2DFE804F00405060708090A0B00BF24
:1015300000BF00BF00BF00BF00BF00BF47EA0427D5
:1015400002E006B0BDE8F08100BF102D1AD2DFE83E
:1015500005F01908090A0B0C0D0E0F1011121314C7
:10156000151600BF00BF00BF00BF00BF00BF00BF17
:1015700000BF00BF00BF00BF00BF00BF00BF47EA01
:10158000051700E0DDE700BF16B1012E00D00026F0
:1015900001978DF80F808DF8106055218DF811108E
:1015A0008DF812108DF813108DF814108DF8151099
:1015B0008DF8161000203849087001A9374802F04C
:1015C00091FE00BF344800780028FBD000BFB8E788
:1015D00070B586B004460D460F2600208DF80C002D
:1015E0008DF80D0008208DF80E00082C0FD2DFE8D2
:1015F00004F00405060708090A0B00BF00BF00BF7E
:1016000000BF00BF00BF00BF46EA042601E006B0ED
:1016100070BD00BF102D1AD2DFE805F01908090AC5
:101620000B0C0D0E0F1011121314151600BF00BF76
:1016300000BF00BF00BF00BF00BF00BF00BF00BFB2
:1016400000BF00BF00BF00BF46EA051600E0DEE7AE
:1016500000BF019655208DF80F0055218DF8101010
:101660008DF811108DF812108DF813108DF81410DC
:101670008DF815108DF8161000200749087001A983
:10168000064802F02FFE00BF034800780028FBD078
:1016900000BFBCE730F8FFFF0300002000680040F7
:1016A00000B597B00121464802F04CFB01214804E7
:1016B00002F07BFB07220321424803F0FEFA0820D8
:1016C000119002208DF8480000208DF84A00032078
:1016D0008DF8490000208DF84B0011A9394803F01E
:1016E00061FA394803F0F0FC384813900020ADF857
:1016F0005000ADF852004FF48060ADF85400042063
:10170000ADF856000020ADF8580013A92E4803F09C
:1017100029FD01212C4803F0ADFD012240212A487A
:1017200003F055FE10208DF8400001208DF8410097
:101730008DF842008DF8430010A801F0BEFA24484D
:1017400003F0F0FA4FF0006001901F48001D029076
:10175000204803900020049012200590002006905D
:101760004FF4806007900020089009904FF480703B
:101770000A904FF440300B9000200C900D900E908A
:101780000F9001A9124803F06FFB012210211048AD
:1017900003F030FC01210E4803F0A0FB17B000BDA0
:1017A00010B50D490A4803F042FC38B10B4908480E
:1017B00003F00CFC0849064803F062FC10BD000071
:1017C000010020000000024000440040A08601000B
:1017D00088600240BC010020008800200008002032
:1017E00000B587B00121022002F0ACFA0121880483
:1017F00002F0DBFA07220A214E4803F05EFA0722C4
:101800000B214C4803F059FA4FF44060019002203C
:101810008DF8080000208DF80A0003208DF80900DB
:1018200000208DF80B0001A9424803F0BBF94FF4EA
:10183000E13003900020ADF81000ADF81200ADF8D3
:1018400014000C20ADF816000020ADF8180003A914
:10185000394803F087FC012240F22551364803F055
:10186000BFFD0121344803F005FD27208DF800005D
:1018700003208DF801008DF8020001208DF803008F
:10188000684601F01AFA07B000BD10B5044600BF63
:101890004021294803F0C9FD0028F9D021462648F7
:1018A00003F013FD10BD10B5044600BF40212248CF
:1018B00003F0BBFD0028F9D0A1B21F4803F005FDDD
:1018C00010BD10B5044603E02078FFF7DEFF641C6E
:1018D00020780028F8D110BD70B504460D4600BF31
:1018E0004021154803F0A1FD0028F9D0E1B21248CB
:1018F00003F0EBFC204670BD10B540F225510E48B8
:1019000003F0A9FD48B140F225510B4803F0DAFD80
:101910000948001D00880949087010BD10B5552000
:10192000FFF7B3FF5120FFF7B0FF05490878FFF735
:10193000ACFF10BD0004024000480040040000203D
:10194000CE01002002780A708278D200038842EA31
:1019500023224A7002799201438842EA63128A7014
:101960000279CA7082795200838842EAA3220A71FE
:10197000427A9201037A42EA0312C38842EAE312EE
:101980004A71827A8A714289120ACA71027B0A728A
:101990008289120A4A72827B8A72C289120ACA72C8
:1019A000027C0A73427C4A73827C8A73428A1212D6
:1019B000CA73027D0A74828A12124A7470470A78C6
:1019C0004B7842EA0322C2F30A0202804A78D2101C
:1019D0008B7842EA4312C2F30A0242808A7892115B
:1019E000CB7842EA83020B7942EA8322C2F30A02ED
:1019F00082800A7952104B7942EAC312C2F30A027A
:101A0000C2804A791211920802724A79C2F3011215
:101A100042728A79CB7942EA032212B242810A7A6F
:101A20004B7A42EA032213B283818A7ACB7A42EA62
:101A3000032213B2C3810B7B03744B7B43748A7BF9
:101A4000CB7B42EA032242820A7C4B7C42EA03229D
:101A5000828270470FB49DF8080028B19DF80900F4
:101A600010B1012004B070470020FBE700B597B02B
:101A70000121484802F066F90121102002F0A6F980
:101A800007221146444803F018F9802011900220E3
:101A90008DF8480000208DF84A0003208DF8490099
:101AA00000208DF84B0011A93B4803F07BF83B4820
:101AB00003F00AFB3A4813900020ADF85000ADF84F
:101AC00052004FF48060ADF854000420ADF8560089
:101AD0000020ADF8580013A9304803F043FB012162
:101AE0002E4803F0C7FB012240212C4803F06FFC75
:101AF00044208DF8400000208DF8410001208DF831
:101B000042008DF8430010A801F0D7F8254803F0F3
:101B100009F94FF0006001902048001D0290224812
:101B200003900020049012200590002006904FF4AE
:101B3000806007900020089009904FF480700A9010
:101B40004FF440300B9000200C900D900E900F90B1
:101B500001A9144803F088F901221021114803F06B
:101B600049FA01210F4803F0B9F917B000BD10B5CB
:101B70000E490C4803F05BFA58B10D49094803F0CF
:101B800025FA0A49074803F07BFA07490948FFF795
:101B900016FF10BD0200400000040240001001408A
:101BA000A086010088640240D8010020008800203F
:101BB00000080020EA01002010B52DED048BB0EEE6
:101BC000408AF0EE608AB0EE419AF0EE619AB3EE90
:101BD000030A28EE000ABDEEC00A10EE100A00B299
:101BE000F849C880B1EE680AF3EE030A20EE200A35
:101BF000BDEEC00A10EE100A00B2F349C880B3EE81
:101C0000030A29EE000ABDEEC00A10EE100A00B267
:101C1000EE49C880B1EE690AF3EE030A20EE200A0D
:101C2000BDEEC00A10EE100A00B2E949C880E548CE
:101C3000B0F9060001EE100AB8EEC11AF0EE410A42
:101C4000E048B0F9020001EE100AB8EEC11AB0EE99
:101C5000410A00F071FCDB4880ED030ADA48B0F974
:101C6000060001EE100AB8EEC11AF0EE410AD6489D
:101C7000B0F9020001EE100AB8EEC11AB0EE410A46
:101C800000F05AFCD04880ED030AD048B0F90600B5
:101C900001EE100AB8EEC11AF0EE410ACB48B0F9D5
:101CA000020001EE100AB8EEC11AB0EE410A00F0CF
:101CB00043FCC64880ED030AC548B0F9060001EEB2
:101CC000100AB8EEC11AF0EE410AC148B0F902009C
:101CD00001EE100AB8EEC11AB0EE410A00F02CFC79
:101CE000BB4880ED030A044694ED030ABDEEC00A2A
:101CF00010EE104A23B2B54C94ED030ABDEEC00AB3
:101D000010EE104A22B2B04C94ED030ABDEEC00AA8
:101D100010EE104A21B2AB4C94ED030ABDEEC00A9E
:101D200010EE104A20B2FEF7DFFEBDEC048B10BDB2
:101D300010B52DED048BB0EE408AF0EE608AB0EE67
:101D4000419AF0EE619ABDEEC80A10EE100A00B298
:101D50009C4988809FED9F0A30EE680ABDEEC00A5C
:101D600010EE100A00B298498880BDEEC90A10EE44
:101D7000100A00B2954988809FED960A30EE690AF4
:101D8000BDEEC00A10EE100A00B2914988808D485D
:101D9000B0F9040001EE100AB8EEC11AF0EE410AE3
:101DA0008848B0F9000001EE100AB8EEC11AB0EE92
:101DB000410A00F062FC834880ED020A90ED021AAD
:101DC000F0EE410AB0F9020001EE100AB8EEC11AB5
:101DD000B0EE410A00F0B0FB7A4880ED030A7A4881
:101DE000B0F9040001EE100AB8EEC11AF0EE410A93
:101DF0007548B0F9000001EE100AB8EEC11AB0EE55
:101E0000410A00F03AFC704880ED020A90ED021A97
:101E1000F0EE410AB0F9020001EE100AB8EEC11A64
:101E2000B0EE410A00F088FB674880ED030A67487E
:101E3000B0F9040001EE100AB8EEC11AF0EE410A42
:101E40006248B0F9000001EE100AB8EEC11AB0EE17
:101E5000410A00F012FC5D4880ED020A90ED021A82
:101E6000F0EE410AB0F9020001EE100AB8EEC11A14
:101E7000B0EE410A00F060FB544880ED030A54487C
:101E8000B0F9040001EE100AB8EEC11AF0EE410AF2
:101E90004F48B0F9000001EE100AB8EEC11AB0EEDA
:101EA000410A00F0EAFB4A4880ED020A90ED021A6E
:101EB000F0EE410AB0F9020001EE100AB8EEC11AC4
:101EC000B0EE410A00F038FB414880ED030A0446B9
:101ED00094ED030ABDEEC00A10EE104A23B23B4C4B
:101EE00094ED030ABDEEC00A10EE104A22B2364C41
:101EF00094ED030ABDEEC00A10EE104A21B2314C37
:101F000094ED030ABDEEC00A10EE104A20B2FEF7AF
:101F1000EBFDBDEC048B10BD2DE9FF5F06460C46C2
:101F20001546002C01DD204600E06042002D01DD59
:101F3000294600E06942884205DD002C01DD20468B
:101F400006E0604204E0002D01DD284600E0684222
:101F5000002E01DD314600E07142884205DA002E94
:101F600001DD304618E0704216E0002C01DD20460D
:101F700000E06042002D01DD294600E06942884210
:101F800005DD002C01DD204606E0604204E0002D66
:101F900001DD284600E06842039948434FF425716B
:101FA00090FBF1FB002E01DD304600E07042002C7A
:101FB00001DD214600E061420144002D0CDD284690
:101FC0000BE00000080000201C0000203000002072
:101FD0004400002000F8FF45684201EB000A00279A
:101FE000B846B946BAF1000F0BD004FB0BF090FBDA
:101FF000FAF706FB0BF090FBFAF805FB0BF090FBF1
:10200000FAF907EB0800484403B241F28832012193
:102010000020FEF761FFA7EB0800A0EB090003B268
:1020200041F2883202210020FEF756FFA7EB08009C
:10203000484403B241F2883203210020FEF74CFFEE
:1020400007EB0800A0EB090003B241F2883204213B
:102050000020FEF741FFBDE8FF9F2DE9F04F85B05E
:1020600006460F4690461D460E9C04F0100904F0EB
:102070002000049004F0010A04F0040B04F00200B4
:10208000039004F00800029004F04000019004F076
:1020900080000090B9F1000F01D04FF001090498C1
:1020A00008B101200490BAF1000F01D04FF0010AED
:1020B000BBF1000F01D04FF0010B039808B10120D4
:1020C0000390029808B101200290019808B1012004
:1020D0000190009808B10120009050202349086029
:1020E000012D02D1A02008600AE0032D03D15A205F
:1020F0001E49086004E0022D02D132201B4908600D
:10210000049810B1322019490860B9F1000F02D0CB
:10211000A02016490860A8F58060DDE9003CA3EB2B
:102120000C0303EB431303EB830300EB8302A7F5DC
:102130008060039BAAEB030303EB431303EB8303CE
:1021400000EB8301A6F58060029BA3EB0B0303EB7E
:10215000431303EB830300EB830E044803687046CC
:10216000FFF7DAFE05B0BDE8F08F00005800002050
:1021700010B52DED068BB0EE408AF0EE608AB2EE1F
:10218000040AB0EE40AA9FEDFE0AF0EE40AAB5EEBA
:10219000C08AF1EE10FA02DDB0EE480A01E0B1EEBD
:1021A000480A10EE101A084606F068FA41EC190BBE
:1021B0009FEDF40B53EC102B06F074FA03D29FED55
:1021C000F00AB0EE408AF14890ED010A80ED000A75
:1021D00038EEC80A80ED010A90ED010AD0ED000A40
:1021E00030EE600ADFEDE60A20EE200AD0ED010AAB
:1021F000B2EE041A00EE810AE54880ED000A00689C
:1022000006F03CFA41EC100BB0EE409AF0EE609A0A
:102210009FEDE00B53EC102B51EC190B06F056FA26
:1022200004D29FEDDE0ADA4880ED000AD848006843
:1022300006F024FA41EC100BB0EE409AF0EE609AF2
:102240009FEDD70B53EC102B51EC190B06F02AFA2B
:1022500004D29FEDD50ACE4880ED000ACC4890ED1F
:10226000000AB1EE400ABDEC068B10BD10B52DED95
:10227000088BB0EE408AF0EE608AB1EE040AB0EE50
:1022800040AA9FEDBF0AF0EE40AA9FEDBD0AB0EE56
:1022900040BAC64890ED010A80ED000A38EEC80A3F
:1022A00080ED010A90ED010AC148D0ED000A30EE40
:1022B000200A80ED000ABD4890ED010AF1EE040A03
:1022C00020EE200ABA48D0ED000A9FEDAD1A00EECC
:1022D000810AB648D0ED010A90ED001A70EEC10AED
:1022E0009FEDA71A00EE810AB24880ED000A00684F
:1022F00006F0C4F941EC100BB0EE409AF0EE609A93
:102300009FEDA40B53EC102B51EC190B06F0DEF9EA
:1023100004D29FEDA20AA74880ED000AA5480068F4
:1023200006F0ACF941EC100BB0EE409AF0EE609A7A
:102330009FED9B0B53EC102B51EC190B06F0B2F9EF
:1023400004D29FED990A9B4880ED000A994890EDD0
:10235000000AB1EE400ABDEC088B10BD10B52DEDA2
:10236000068BB0EE408AF0EE608AB3EE040AB0EE5F
:1023700040AA9FED830AF0EE40AAB5EEC08AF1EEC6
:1023800010FA02DDB0EE480A01E0B1EE480A10EEA4
:10239000101A084606F072F941EC190B9FED790B03
:1023A00053EC102B06F07EF903D29FED750AB0EEC8
:1023B000408A814890ED010A80ED000A38EEC80A93
:1023C00080ED010A90ED010AD0ED000A30EE600ABE
:1023D000DFED6B0A20EE200AD0ED010AB3EE041AFD
:1023E00000EE810A754880ED000A006806F046F9A3
:1023F00041EC100BB0EE409AF0EE609A9FED650B49
:1024000053EC102B51EC190B06F060F904D29FED40
:10241000630A6A4880ED000A6848006806F02EF9F1
:1024200041EC100BB0EE409AF0EE609A9FED5C0B21
:1024300053EC102B51EC190B06F034F904D29FED3C
:102440005A0A5E4880ED000A5C4890ED000AB1EE41
:10245000400ABDEC068B10BD10B52DED088BB0EE1B
:10246000408AF0EE608AB0EE0C0AB0EE40AA9FED12
:10247000440AF0EE40AA9FED520AB0EE40BA51482D
:1024800090ED010A80ED000A90ED020A80ED010A4C
:1024900038EEC80A80ED020A90ED020AF0EE0C0A4E
:1024A00020EE200AD0ED020A9FED351A00EE810AD7
:1024B000D0ED020A90ED011A70EEC10A9FED401AAC
:1024C00000EE810A404880ED000A006806F0D6F868
:1024D00041EC100BB0EE409AF0EE609A9FED2D0BA0
:1024E00053EC102B51EC190B06F0F0F804D29FEDD1
:1024F0002B0A354880ED000A3348006806F0BEF824
:1025000041EC100BB0EE409AF0EE609A9FED240B78
:1025100053EC102B51EC190B06F0C4F804D29FEDCC
:10252000220A294880ED000A274890ED000AB1EE02
:10253000400ABDEC088B10BD10B52DED088BB0EE38
:10254000408AF0EE608AB1EE0C0AB0EE40AA9FED30
:102550000C0AF0EE40AAB7EE080AB0EE40BA1B48EB
:1025600090ED010A80ED000A38EEC80A80ED010AFC
:1025700090ED010A1648D0ED000A30EE200A29E05D
:102580000000000000000000000000005C000020CF
:1025900064000020000000000070A74000803B4560
:1025A000000000000070A7C000803BC5680000204C
:1025B00074000020700000207800002080000020BF
:1025C000CDCCCC3D300200208400002088000020CB
:1025D0009400002080ED000A634890ED010AF1EEBE
:1025E0000C0A20EE200A6148D0ED000A1FED1C1AEB
:1025F00000EE810A5C48D0ED010A90ED001A70EE01
:10260000C10AB7EE081A00EE810A594880ED000AA7
:10261000006806F033F841EC100BB0EE409AF0EE93
:10262000609A1FED240B53EC102B51EC190B06F0A4
:102630004DF804D21FED270A4D4880ED000A4C48A2
:10264000006806F01BF841EC100BB0EE409AF0EE7B
:10265000609A1FED2D0B53EC102B51EC190B06F06B
:1026600021F804D21FED300A414880ED000A4048AD
:1026700090ED000ABDEC088B10BD10B52DED088B58
:10268000B0EE408AF0EE608AB2EE040AB0EE40AAE4
:102690001FED450AF0EE40AA1FED470AB0EE40BA22
:1026A000344890ED010A80ED000A38EEC80A80ED4A
:1026B000010A90ED010A3048D0ED000A30EE200A00
:1026C00080ED000A2B4890ED010AF2EE040A20EE9C
:1026D000200A2948D0ED000A1FED571A00EE810AA2
:1026E0002448D0ED010A90ED001A70EEC10A1FEDEA
:1026F0005C1A00EE810A214880ED000A006805F0AE
:10270000BDFF41EC100BB0EE409AF0EE609A1FED69
:102710005F0B53EC102B51EC190B05F0D7FF04D2D3
:102720001FED620A154880ED000A1448006805F0A4
:10273000A5FF41EC100BB0EE409AF0EE609A1FED51
:10274000680B53EC102B51EC190B05F0ABFF04D2C6
:102750001FED6B0A094880ED000A084890ED000A59
:10276000BDEC088B10BD0000880000209400002004
:102770009000002098000020A4000020A00000206D
:1027800010B5002402F061FF4FF4A06000F090FA51
:10279000FDF744FDFFF76AF9FFF722F8FDF759FE50
:1027A000FDF792FEFEF70AF84FF4FA70FDF756FDBA
:1027B0000BE0641C0A2C08DD06E00221154802F03B
:1027C00078FA3220FDF74AFDF7E702F0E9FFFF282B
:1027D000EFD003F055F8FF28EBD003F0A4FB03F093
:1027E0009DFEFDF757FD4FF4FA70FDF737FD002110
:1027F0000846FEF7A8F94FF47A70FDF72FFD032283
:1028000000210846FEF711FA4FF47A70FDF726FD15
:1028100010BD00000008024010B5E848B0F90E00F5
:1028200001EE100AB8EEC11AF0EE410AE348B0F921
:10283000080001EE100AB8EEC11AB0EE410AFFF727
:102840000BFEDE4880ED040A90ED041AF0EE410A1A
:10285000DB4890ED061AB1EE411AB0EE410AFFF7DF
:102860007DFDD64880ED050AD648B0F90E0001EE90
:10287000100AB8EEC11AF0EE410AD248B0F90800C9
:1028800001EE100AB8EEC11AB0EE410AFFF7EEFCF5
:10289000CC4880ED040A90ED041AF0EE410AC848D5
:1028A00090ED051AB1EE411AB0EE410AFFF760FC57
:1028B000C44880ED050A024692ED050ABDEEC00A45
:1028C00010EE102A11B2BD4A92ED050ABDEEC00A03
:1028D00010EE102A10B2FDF714FF10BD70B52DEDEB
:1028E000108B82B006460D461446B448B0F90E006F
:1028F000B249B1F90010884203DAB0480088AF4904
:10290000C881AE48B0F90E00AC49B1F90210884256
:1029100003DDAA484088A949C881022D08DDA948DD
:10292000C0891E3800B2A749C8810120A6490860A5
:1029300015F1020F08DAA348C0891E3000B2A14980
:10294000C8810120A04908609F48006801287CD008
:10295000002CFCD0B4F5806F78DB9A48B0F9020007
:10296000984AB2F90420801A00EE100AB8EEC00AA4
:1029700010EE101A084605F081FE41EC100BB0EE87
:1029800040DAF0EE60DA00EE104AB8EE400A10EEDF
:10299000100A05F073FE41EC100B8DED000B9FED5E
:1029A0008B0B53EC102B9DED000B51EC100B05F035
:1029B0004EFD41EC100BB0EE40FAF0EE60FA9FEDE8
:1029C000850B53EC102B51EC1F0B05F0B8FD41ECBF
:1029D000100BB0EE40EAF0EE60EA53EC1D2B51EC28
:1029E0001E0B05F03AFD41EC100BB0EE40BAF0EED4
:1029F00060BA7449B1F9040005F010FE41EC100B07
:102A0000B0EE40CAF0EE60CA53EC1B2B51EC1C0B2D
:102A100005F07CFC41EC100BB0EE40AAF0EE60AA91
:102A20009FED6E0B53EC102B51EC1A0B05F087FD4C
:102A300041EC100BB0EE409AF0EE609A9FED670B00
:102A400053EC102B51EC190B01E090E00EE005F077
:102A500004FD41EC100BB0EE408AF0EE608A51ECC0
:102A6000180B05F0ECFD00B25649C881B4F5806F33
:102A70007DDA5448B0F90000524AB2F90420801AB5
:102A800000EE100AB8EEC00A10EE101A084605F063
:102A9000F5FD41EC100BB0EE40DAF0EE60DA00EE3E
:102AA000104AB8EE400A10EE100A05F0E7FD41ECBE
:102AB000100B8DED000B9FED450B53EC102B9DED96
:102AC000000B51EC100B05F0C2FC41EC100BB0EE0A
:102AD00040FAF0EE60FA9FED430B53EC102B51ECF3
:102AE0001F0B05F02CFD41EC100BB0EE40EAF0EEB0
:102AF00060EA53EC1D2B51EC1E0B05F0AEFC41ECD3
:102B0000100BB0EE40BAF0EE60BA2E49B1F90400F5
:102B100005F084FD41EC100BB0EE40CAF0EE60CA47
:102B200053EC1B2B51EC1C0B05F0F0FB41EC100B94
:102B3000B0EE40AAF0EE60AA9FED280B53EC102BEC
:102B400051EC1A0B05F0FBFC41EC100BB0EE409A77
:102B5000F0EE609A9FED210B53EC102B51EC190B0A
:102B600005F07BFC41EC100BB0EE408A00E008E081
:102B7000F0EE608A51EC180B05F061FD00B21149CE
:102B8000C8811048B0F90E000E49B1F90010884212
:102B900003DA0C4800880B49C8810A48B0F90E00D6
:102BA0000849B1F90210884203DD0648408805490A
:102BB000C88102B0BDEC108B70BD0000A8000020E1
:102BC0004C020020C0000020D800002000000000BF
:102BD000000090400000000000A0844000000000C1
:102BE000000049400000000000A084C02A4A12688A
:102BF000012A15D1012803D1284A1278824205D131
:102C000001290DD1264A12788A4209D04FF47A72EE
:102C1000244B1A601B1D1A6000221F4B1A6017E01C
:102C20001D4A1268A2B9012803D11C4A12788242B7
:102C300005D101290CD11A4A12788A4208D040F2F3
:102C4000DC52184B1A601B1D1A600122124B1A60CD
:102C5000124A1070124A117070470022124B1A600B
:102C60000D4A1268012A06D1022801D0012902D199
:102C700001220D4B1A600C4A1268012A03D1052269
:102C80000A4B5A6305E0084A126812B90022074B42
:102C90005A63024A10707047E0000020DC000020F8
:102CA000DD000020340C0040E40000200040014022
:102CB00033490143334A1160704770B50021002346
:102CC0000F22C47824B32F4C246804F4E064C4F5C4
:102CD000E064C4F30721C1F10404E3B20A4144787B
:102CE0009C40E1B28478144021430C07210E264C0D
:102CF00005786155047804F01F050124AC4005787F
:102D00006D114FF0E02606EB8505C5F8004109E09E
:102D1000047804F01F040125A5401C4C06787611A8
:102D200044F8265070BD1A4A0A400243154B1B1F37
:102D30001A60704739B1134A121D12680243114BD1
:102D40001B1D1A6006E00F4A121D126882430D4BCC
:102D50001B1D1A607047042808D14FF0E021096953
:102D600041F004014FF0E022116107E04FF0E02153
:102D7000096921F004014FF0E02211617047000061
:102D80000000FA050CED00E000E400E080E100E066
:102D900080FFFF1F10B50446FE48844208D1012180
:102DA000084601F07BF80021012001F077F89DE052
:102DB000B4F1804F08D10121084601F05EF80021EE
:102DC000012001F05AF891E0F348844208D1012132
:102DD000022001F052F80021022001F04EF885E0B7
:102DE000EE48844208D10121042001F046F8002178
:102DF000042001F042F879E0E948844208D1012139
:102E0000082001F03AF80021082001F036F86DE0C2
:102E1000E448844208D10121102001F02EF800215D
:102E2000102001F02AF861E0DF48844208D1012136
:102E3000202001F022F80021202001F01EF855E0AA
:102E4000DA48844208D10121022001F027F800214C
:102E5000022001F023F849E0D548844209D101213C
:102E6000080401F01BF800214FF4803001F016F83F
:102E70003CE0D048844209D10121480401F00EF819
:102E800000214FF4003001F009F82FE0CA488442D5
:102E900009D10121880401F001F800214FF48020BC
:102EA00000F0FCFF22E0C548844208D10121402007
:102EB00000F0E3FF0021402000F0DFFF16E0C048F3
:102EC000844208D10121802000F0D7FF002180201A
:102ED00000F0D3FF0AE0BB48844207D101218015EE
:102EE00000F0CBFF0021A01500F0C7FF10BD0022AD
:102EF0000288A84B98420ED0AC4B98420BD0B0F150
:102F0000804F08D0A44B984205D0A44B984202D0E1
:102F1000A34B984204D14FF68F731A404B881A4343
:102F2000A04B984207D0A04B984204D04FF6FF43E5
:102F30001A400B891A4302804B68C3620B880385D1
:102F4000944B984202D0994B984201D18B7A0386D8
:102F50000123838270474FF0FF31416000210180DF
:102F600001814180817270470185828270470A46E3
:102F7000002101884FF68F7319401143018070477B
:102F800041627047C16270470146486A7047014616
:102F9000088D704721B1028842F00202028004E0ED
:102FA00002884FF6FD731A400280704721B10288F3
:102FB00042F00402028004E002884FF6FB731A40DC
:102FC0000280704721B1028842F08002028004E052
:102FD00002884FF67F731A400280704702884FF6CE
:102FE000F7731A40028002880A4302807047028801
:102FF0004FF6FF431A40028002880A43028070475E
:1030000021B1028842F00102028004E002884FF6FA
:10301000FE731A400280704770B50024002200231E
:10302000058C4FF6FE7635400584028C8388048B30
:103030004FF68F752C40B51E2C400D882C43751E05
:103040002A408D892A434D882A43524DA84202D0F6
:10305000564DA84213D14FF6F7752A40CD892A4321
:103060004FF6FB752A408D882A434FF6FF652B40AB
:103070004FF6FF552B400D8A2B434D8A2B438380FF
:1030800004838D684563028470BD70B500240022FE
:103090000023058C4FF6EF7635400584028C83883B
:1030A000048B48F6FF752C404FF6FF452C400D88E9
:1030B0004FF6FF7606EA05252C434FF6DF752A40CA
:1030C0008D8906EA05152A434D8806EA05152A4327
:1030D000304DA84202D0354DA8421DD14FF67F7524
:1030E0002A40CD894FF6FF7606EA05152A434FF6AA
:1030F000BF752A408D8806EA05152A434FF6FF352D
:103100002B404FF2FF752B400D8A06EA85052B43B5
:103110004D8A06EA85052B43838004838D68856389
:10312000028470BD70B5002400220023058C4FF688
:10313000FF6635400584028C8388848B4FF68F753B
:103140002C404FF6FC752C400D882C434FF6FF5554
:103150002A408D894FF6FF7606EA05252A434D88D9
:1031600006EA05252A430B4DA84202D00F4DA8427E
:1031700038D14FF2FF752A40CD894FF6FF7606EA27
:1031800005252A434FF6FF352A408D8806EA052596
:103190002A4319E0000001400004004000080040FC
:1031A000000C0040001000400014004000040140EA
:1031B0000040014000440140004801400018004028
:1031C000001C0040002000404EF6FF752B404DF6DD
:1031D000FF752B400D8A06EA05152B434D8A06EA3A
:1031E00005152B43838084838D68C563028470BD7D
:1031F00070B5002200230024058C4EF6FF76354082
:103200000584038C8488828B48F6FF752A404FF62C
:10321000FF452A400D884FF6FF7606EA05252A432A
:103220004DF6FF752B408D8906EA05352B434D88F9
:1032300006EA05352B43FE4DA84202D0FD4DA842BB
:1032400008D14BF6FF752C400D8A4FF6FF7606EA43
:1032500085152C43848082838D680564038470BD4A
:10326000002101804180818081608181C181018252
:103270004182704770B5034600200024184618307C
:1032800001258D40ACB21D8CA5431D8409B10829D0
:103290000AD100EB610005684FF68F763540056076
:1032A0000568154305600FE00D1FC5F34E05284462
:1032B000056848F6FF763540056005684FF6FF76ED
:1032C00006EA02263543056070BD4163704781639D
:1032D0007047C1637047016470470A460021018B43
:1032E0004FF68F7319401143018370470A4600213E
:1032F000018B48F6FF7319404FF6FF7303EA022370
:103300001943018370470A460021818B4FF68F7362
:1033100019401143818370470A460021818B48F68A
:10332000FF7319404FF6FF7303EA022319438183A9
:1033300070470A460021018B4FF6F773194011437D
:10334000018370470A460021018B4FF2FF73194039
:103350004FF6FF7303EA02231943018370470A46BD
:103360000021818B4FF6F773194011438183704719
:103370000A460021818B4FF2FF7319404FF6FF730D
:1033800003EA02231943818370470A460021018B17
:103390004FF6FB7319401143018370470A46002121
:1033A000018B4FF6FF3319404FF6FF7303EA0223F8
:1033B0001943018370470A460021818B4FF6FB7346
:1033C00019401143818370470A460021818B4FF6D3
:1033D000FF3319404FF6FF7303EA02231943818339
:1033E00070470A460021018B4FF67F731940114345
:1033F000018370470A460021018BC1F30E014FF68D
:10340000FF7303EA02231943018370470A46002130
:10341000818B4FF67F7319401143818370470A46B1
:103420000021818BC1F30E014FF6FF7303EA0223E3
:103430001943818370470A460021018C4FF6FD73C2
:1034400019401143018470470A460021018C4FF650
:10345000F77319401143018470470A460021018C1B
:103460004FF6DF7319404FF6FF7303EA0213194357
:10347000018470470A460021018C4FF67F73194082
:103480004FF6FF7303EA02131943018470470A469B
:103490000021018C4FF6FF5319404FF6FF7303EAEA
:1034A00002231943018470470A460021018C4FF220
:1034B000FF7319404FF6FF7303EA02231943018497
:1034C00070470A460021018C4DF6FF7319404FF6F4
:1034D000FF7303EA023319430184704730B50023B8
:1034E00001248C40A3B2048C9C430484048C02FA13
:1034F00001F5ADB22C43048430BD30B50023042463
:103500008C40A3B2048C9C430484048C02FA01F521
:10351000ADB22C43048430BD828B4FF2FF331A408E
:103520008283828B4FF6FF7303EA01231A4382835F
:103530007047F0B50C461546002100220026078C86
:103540004EF6FF7C07EA0C070784818B028C4FF64E
:10355000FF7707EA043640F6FF4739404FF6FF771A
:1035600007EA052739434FF6FF7707EA0337394360
:1035700045F6FF773A4046F480573A438183028408
:10358000F0BD828B4FF6F3731A408283828B0A431D
:1035900082837047F0B50C461546002100220026B4
:1035A000078C4FF6FF6C07EA0C070784818B028CAF
:1035B0004FF6FF7707EA04264FF60C7739404FF6AF
:1035C000FF7707EA03172F4339434FF2FF573A407B
:1035D00046F480773A4381830284F0BD028B4FF238
:1035E000FF331A400283028B4FF6FF7303EA012375
:1035F0001A4302837047F0B50C461546002100229D
:103600000026078C4FF6EF7C07EA0C070784018B36
:10361000028C4FF6FF7707EA041640F6FF47394061
:103620004FF6FF7707EA033739434FF6FF7703E09A
:10363000000001400004014007EA052739434FF626
:103640005F773A4046F010073A4301830284F0BDA9
:10365000028B4FF6F3731A400283028B0A430283F4
:103660007047F0B50C46154600210022068C4FF637
:10367000FE773E400684018B028C4FF60C7631407B
:103680007E1C06EA03162E4331434FF6F576324090
:1036900044F00106324301830284F0BD70B5054653
:1036A0000C46208850B92389A28861882846FFF7F4
:1036B000D8FFE1882846FFF7CBFF25E020880428C3
:1036C0000AD12389A28861882846FFF794FFE18800
:1036D0002846FFF783FF17E0208808280AD12389AE
:1036E000A28861882846FFF755FFE1882846FFF742
:1036F00048FF09E02389A28861882846FFF719FF5F
:10370000E1882846FFF708FF70BD00210180418055
:10371000012181800021C180018170472DE9F041A4
:1037200005460C4600260127608808B9022600E0FD
:103730000026A088012801D1022700E00127208867
:10374000A0B92389A28861882846FFF78AFFE1880B
:103750002846FFF77DFF23893A4631462846FFF782
:103760004AFFE1882846FFF739FF13E02389A28842
:1037700061882846FFF73FFFE1882846FFF72EFFC4
:1037800023893A4631462846FFF76BFFE1882846F1
:10379000FFF75EFFBDE8F0810146486B70470146C8
:1037A000886B70470146C86B70470146086C7047CC
:1037B0000A884B881A438B881A43CB881A430B8993
:1037C0001A434B891A438B891A43A0F84420704747
:1037D0000021018041808180C180018141818181FE
:1037E000704731B1B0F8442042F40042A0F84420C0
:1037F00005E0B0F84420C2F30E02A0F84420704760
:1038000021B1828842F00402828004E082884FF66F
:10381000FB731A408280704721B1828842F0010216
:10382000828004E082884FF6FE731A4082807047DF
:103830001AB183890B43838102E083898B4383819F
:1038400070478182704702460020138A0B4201D0E4
:10385000012000E000207047CA430282704730B563
:103860000246002000230024158A05EA01039589F9
:1038700005EA010413B10CB1012000E0002030BDC5
:10388000CA430282704741EA0203A0F848307047F9
:103890001AB183890B43838102E083898B4383813F
:1038A000704721B1828842F00802828004E0828859
:1038B0004FF6F7731A408280704701894FF6F8720D
:1038C0001140018170470A46002101894FF68F732C
:1038D000194011430181704730B504460D46294611
:1038E0002046FFF7F0FF208940F00700208130BD1F
:1038F0002DE9F04104460D4616461F46602D06D1BF
:103900003B46012231462046FFF775FE05E03B4667
:10391000012231462046FFF7A4FE29462046FFF744
:10392000D2FF208940F007002081BDE8F08130B54A
:103930000C4600210189C9B24FF6FF7505EA03253F
:10394000154325432943018130BD2DE9F04105464A
:103950000E4617469846002443463A4631462846C6
:10396000FFF7E5FF2C894FF6F870044044F0070498
:103970004FF68F70044044F070042C81BDE8F08154
:10398000F0B504460D4616461F463B4632462946CC
:103990002046FFF7CCFF208940F480402081F0BD15
:1039A00082884FF68F731A40828082880A43828011
:1039B000704702894FF6F8731A40028102890A4360
:1039C0000281704702894FF67F731A400281028993
:1039D0000A4302817047F0B50C4615461E46002189
:1039E000002200230189028B038C4FF6F8773940BF
:1039F00021434FF6FC473A4040F201173A434FF655
:103A0000DD773B404FF6FF7707EA06172F433B432E
:103A1000018102830384F0BD21B1828842F08002DB
:103A2000828004E082884FF67F731A40828070475C
:103A3000A0F8501070470000FA48006840F00100FC
:103A4000F84908600020F74908310860F548006827
:103A5000F5490840F3490860F448091D0860081F4B
:103A6000006820F48020091F08600020ED490C3117
:103A7000086070470021EB4A921C117011460870D3
:103A8000704710B501460022002300204A11012A88
:103A900002D1E44C236808E0022A03D1E14C7034DF
:103AA000236802E0DF4C7434236801F01F02012414
:103AB00094401C4201D0012000E0002010BD38B528
:103AC000002000900024002500BF3120FFF7D9FF1F
:103AD00005460098401C00900098B0F5A06F01D0FA
:103AE000002DF2D03120FFF7CCFF08B1012400E017
:103AF0000024204638BD01460020CA4A106820F044
:103B0000F80040EAC10010607047C949086070477A
:103B10000021C44A703211701170012802D00428AB
:103B20000AD104E00121BF4A7032117005E005217D
:103B3000BC4A7032117000E000BF00BF7047BD4941
:103B40000860704770B5049C41EA82150126C6EBF7
:103B5000530645EA0645054345EA0465B14E361D60
:103B6000356070BDB24908667047820142EA017251
:103B7000AC4B84331A607047AD4988667047AC49D6
:103B8000C864704702460020A64B0833186820F02E
:103B9000EC6042EA01031843A24B083318607047F7
:103BA000024600209F4B0833186820F0784042EA14
:103BB000010318439B4B08331860704701460020EF
:103BC000984A0832106820F00300084310607047DC
:103BD00094480830006800F00C007047014600204F
:103BE000904A0832106820F0F000084310607047D7
:103BF000014600208B4A0832106820F4E050084348
:103C00001060704701460020864A0832106820F490
:103C1000604040EAC10010607047F0B5002100220A
:103C200000240225002602237E4F08373F6807F054
:103C30000C0121B1042905D0082937D105E07E4FB8
:103C4000076036E07D4F076033E0764F3F1D3F68E9
:103C5000C7F38056734F3F1D3F6807F03F036EB1B7
:103C6000764FB7FBF3F7DFF8BCC10CF1040CDCF8BE
:103C700000C0CCF3881C07FB0CF40CE06E4FB7FBC4
:103C8000F3F7DFF8A0C10CF1040CDCF800C0CCF3B2
:103C9000881C07FB0CF4634F3F1D3F68C7F30147C7
:103CA0007F1C7D00B4FBF5F7076002E0624F076000
:103CB00000BF00BF5B4F08373F6807F0F0010909FC
:103CC0005F4F7A5C0768D7404760564F08373F68B8
:103CD00007F4E051890A5A4F7A5C4768D7408760F9
:103CE000504F08373F6807F46041490B544F7A5CE6
:103CF0004768D740C760F0BD002100F44072B2F5BC
:103D0000407F0AD1474A0832116821F4F8114D4A20
:103D100002401143434A08321160424A703212682D
:103D2000C0F30B031A433F4B70331A60704741498D
:103D30004439086070473F4940390860704742493C
:103D40000860704739B1374A303212680243354B48
:103D500030331A6006E0334A303212688243314B06
:103D600030331A60704739B12E4A34321268024338
:103D70002C4B34331A6006E02A4A343212688243EC
:103D8000284B34331A60704739B1264A38321268EA
:103D90000243244B38331A6006E0224A3832126854
:103DA0008243204B38331A60704739B11D4A403284
:103DB000126802431B4B40331A6006E0194A403236
:103DC00012688243174B40331A60704739B1154A65
:103DD000443212680243134B44331A6006E0114A1E
:103DE0004432126882430F4B44331A60704739B132
:103DF0000C4A1032126802430A4B10331A6006E074
:103E0000084A103212688243064B10331A6070471A
:103E1000E1B1044A143212680243024B14331A60AF
:103E200019E0000000380240FFFFF6FE10300024C9
:103E300000004742800E47420024F40040787D0194
:103E4000E8000020FFFCFF0F5C0147425B4A12685C
:103E500082435A4B1A60704739B1584A121D126892
:103E60000243564B1B1D1A6006E0544A121D12688D
:103E70008243524B1B1D1A60704739B14F4A0C32B6
:103E8000126802434D4B0C331A6006E04B4A0C3269
:103E900012688243494B0C331A60704739B1474A64
:103EA000103212680243454B10331A6006E0434A51
:103EB000103212688243414B10331A60704739B197
:103EC0003E4A3C32126802433C4B3C331A6006E0E7
:103ED0003A4A3C3212688243384B3C331A6070478E
:103EE00039B1364A403212680243344B40331A60CB
:103EF00006E0324A403212688243304B40331A6047
:103F0000704739B12D4A4432126802432B4B443377
:103F10001A6006E0294A443212688243274B443330
:103F20001A60704739B1254A4C3212680243234B5C
:103F30004C331A6006E0214A4C32126882431F4B10
:103F40004C331A60704739B11C4A50321268024330
:103F50001A4B50331A6006E0184A503212688243F6
:103F6000164B50331A60704739B1144AD21F127879
:103F70000243124BDB1F1A7006E0104AD21F127860
:103F800082430E4BDB1F1A7070470C48603000688C
:103F900040F0807009496031086070470146002098
:103FA000064A083A12680A4201D0012000E00020C7
:103FB00070470249891F087070470000143802409A
:103FC00010B50446FE48844209D101214806FFF796
:103FD00054FF00214FF00070FFF74FFF08E0012170
:103FE0008806FFF74AFF00214FF08060FFF745FF8A
:103FF00010BD30B5024600200023146824F00204EE
:104000001460146844F00104146000E05B1C546800
:1040100014F0010F03D1A3F57F44FF3CF6D154689F
:1040200014F0010F01D100206CE08C79012C04D137
:10403000146844F08004146003E0146824F08004E1
:104040001460CC79012C04D1146844F0400414604D
:1040500003E0146824F0400414600C7A012C04D1AD
:10406000146844F02004146003E0146824F0200471
:1040700014604C7A012C04D1146844F010041460CC
:1040800003E0146824F0100414608C7A012C04D12D
:10409000146844F00804146003E0146824F0080471
:1040A0001460CC7A012C04D1146844F00404146028
:1040B00003E0146824F0040414608C78A407CD781D
:1040C00044EA05640D7944EA05444D7944EA05540F
:1040D0000D886D1E2C43D461146824F00104146013
:1040E000002300E05B1C546814F0010F03D0A3F51B
:1040F0007F44FF3CF6D1546814F0010F01D000203A
:1041000000E0012030BD10B50021837A012202FABF
:1041100003F1AC4A126842F00102AA4B1A60A94AA4
:104120001C3212688A43A74B1C331A60027BCAB93F
:10413000A44A0C3212688A43A24B0C331A6042889C
:10414000C38842EA03439F4A4032847A42F83430BB
:104150000288838842EA03439A4A4032847A02EB17
:10416000C4025360027B012A19D1964A0C321268AC
:104170000A43944B0C331A604288038842EA034393
:10418000904A4032847A42F83430C288838842EAC6
:1041900003438C4A4032847A02EBC4025360C27AF1
:1041A0003AB9884A121D12688A43864B1B1D1A6051
:1041B00006E0844A121D12680A43824B1B1D1A60D6
:1041C000028932B97F4A143212688A437D4B143314
:1041D0001A600289012A06D17A4A143212680A4307
:1041E000784B14331A60427B012A06D1754A1C327F
:1041F00012680A43734B1C331A60724A126822F029
:104200000102704B1A6010BD00218171C1710172F1
:1042100041728172C1728170C170032101710221EA
:1042200041710121018070476649096841F001012F
:10423000644A11601146096843F60E729143614A5F
:1042400011601146096841EA0021116011460968B0
:1042500021F001011160704721B1026842F48032FF
:10426000026003E0026822F4803202607047E1B12C
:10427000026842F0800202604FF4C272125842F4A7
:1042800080734FF4C27213504FF4CA72125842F442
:1042900080734FF4CA7213504FF4D272125842F422
:1042A00080734FF4D27213501BE0026822F0800238
:1042B00002604FF4C272125822F480734FF4C2723B
:1042C00013504FF4CA72125822F480734FF4CA721A
:1042D00013504FF4D272125822F480734FF4D272FA
:1042E0001350704710B502460020936803F08063B6
:1042F000B3F1806F00D110E0936803F00063B3F175
:10430000006F01D1012008E0936803F08053B3F1FE
:10431000805F01D1022000E00420042879D002F55A
:10432000C07303EB00131B6803F0010402F5C073B4
:1043300003EB00131C600B7A7BB94B7A0C8843EAC1
:10434000445302F5C07404EB00142468234302F5BF
:10435000C07404EB0014236010E00B7A4C6843EA4D
:10436000C4034C7A234302F5C07404EB00142468A0
:10437000234302F5C07404EB001423608B7A03F02E
:104380000F038B7202F5C07303EB00135B6823F01D
:104390000F0402F5C07303EB00135C6002F5C073F9
:1043A00003EB00135B688C7A234302F5C07404EBC3
:1043B000001463608B7B1C064B7B44EA034403E0E0
:1043C00000640040006600400B7B44EA0323CC7A83
:1043D000234302F5C07404EB0014A3608B7C1C061D
:1043E0004B7C44EA03440B7C44EA0323CC7B234309
:1043F00002F5C07404EB0014E36002F5C07303EB34
:1044000000131B6843F0010402F5C07303EB0013B3
:104410001C6010BD10B50246002321B1012907D050
:1044200002290FD109E09068F84C00EA04030BE080
:104430009068F74C00EA040306E09068F54C00EA47
:10444000040301E0002300BF00BFF34C181BA3428C
:1044500016D007DC83B16FF0806018180ED00228E8
:1044600018D111E0B0F5007F10D0EC4C001909D044
:10447000B0F5003F0ED10BE002230DE000230BE06E
:10448000002309E0002307E0012305E0012303E006
:10449000012301E0002300BF00BFD8B210BD21B14D
:1044A000012907D002290FD109E0826842F0800279
:1044B00082600AE0826842F40042826005E082681D
:1044C00042F40002826000E000BF00BF704710B5F8
:1044D00000F5D87303EB01131B6803F00403137298
:1044E000137A53B900F5D87303EB01131B6840F23C
:1044F000FF7404EA5353136009E000F5D87303EB2B
:1045000001131B686FF0604404EAD303536000F5A5
:10451000D87303EB01131B6803F00203537200F519
:10452000D87303EB01135B6803F00F03937200F57C
:10453000D87303EB01135B681B0AD37400F5D873BF
:1045400003EB01139B68D37200F5D87303EB0113DF
:104550009B681C0A147300F5D87303EB01139B6866
:104560001C0C547300F5D87303EB01139B681B0EEE
:10457000937300F5D87303EB0113DB68D37300F575
:10458000D87303EB0113DB681C0A147400F5D873AD
:1045900003EB0113DB681C0C547400F5D87303EBB8
:1045A0000113DB681B0E937421B9C36843F0200329
:1045B000C36003E0036943F02003036110BD21B928
:1045C000C26842F02002C26003E0026942F02002A9
:1045D000026170470246002019B9D36803F0030056
:1045E00006E0012903D1136903F0030000E0002075
:1045F000704710B502460B4600204FF6FF71BBB95D
:10460000146824F0020444F00104146000E0491E20
:10461000546804F00304012C01D00029F7D1546838
:1046200004F00304012C01D0002032E0012030E02E
:10463000012B13D1146824F00304146000E0491E18
:10464000546814F0030F01D00029F8D1546814F015
:10465000030F01D000201CE001201AE0022B17D12B
:10466000146824F0010444F00204146000E0491EC0
:10467000546804F00304022C01D00029F7D15468D7
:1046800004F00304022C01D0002002E0012000E02D
:10469000002010BD014600200A6822F0010242F00D
:1046A00002020A604A6802F00302022A00D10120D5
:1046B000704701464FF6FF7200200B6823F002039B
:1046C0000B6000E0521E4B6803F00203022B01D185
:1046D000002AF7D14B6803F00203022B00D001201F
:1046E0007047014600208A6902F070007047014659
:1046F00000208A69100E7047014600208A69C2F3C3
:10470000074070471AB143690B43436102E04369B4
:104710008B434361704710B50246002011F4700FBF
:1047200008D09369C1F31304234201D001202DE086
:1047300000202BE011F0807F08D05368C1F31304F0
:10474000234201D0012021E000201FE011F0006F82
:1047500008D09368C1F31304234201D0012015E06F
:10476000002013E011F0007F08D0D368C1F31304D8
:10477000234201D0012009E0002007E01369C1F3C2
:104780001304234201D0012000E0002010BD0022CC
:10479000234B994202D10023836111E0C1F313023C
:1047A00011F0007F01D0C2600AE011F0806F01D0EB
:1047B000026105E011F0006F01D0826000E042600C
:1047C0007047024600200A4201D0012000E000208C
:1047D000704770B504460D4600266069284272D0C5
:1047E000B5F5807F69D01DDC082D42D006DC012D97
:1047F0002DD0022D31D0042D7FD134E0102D3ED0AC
:10480000202D42D0402D78D145E000000300000467
:104810000003000800000310000100080001FFF77A
:104820007000F030B5F5004F61D009DCB5F5007FC0
:104830004AD0B5F5806F4DD0B5F5006F5DD150E031
:10484000B5F5803F2DD0B5F5003F56D12FE0A068DB
:104850005549FFF7B6FF064651E0E0680321FFF730
:10486000B0FF06464BE0E0680821FFF7AAFF0646C6
:1048700045E0E0681021FFF7A4FF06463FE020690D
:104880000321FFF79EFF064639E020690821FFF764
:1048900098FF064633E020691021FFF792FF064695
:1048A0002DE060680821FFF78CFF064627E060686E
:1048B0001021FFF786FF064621E0A0690121FFF7DE
:1048C00080FF06461BE01BE0A0690221FFF779FF8D
:1048D000064614E0A0690421FFF773FF06460EE0C8
:1048E0000BE0A0697021FFF76CFF064607E06068E7
:1048F0000421FFF766FF064601E0002600BF00E046
:104900000026304670BDB1F5007F3AD00FDC20297B
:1049100028D006DC01291CD004291DD0082940D14B
:104920001DE0402921D0B1F5807F3AD126E0B1F5D4
:10493000004F31D006DCB1F5806F25D0B1F5006FA6
:104940002FD124E0B1F5803F12D0B1F5003F28D13E
:1049500011E0154A826025E00822C26022E01022A0
:10496000C2601FE0082202611CE01022026119E00F
:104970000822426016E01022426013E004224260E6
:1049800010E0042242600DE0042242600AE00022AE
:1049900082610422426005E00022826104224260BA
:1049A00000E000BF00BF7047010101000020444942
:1049B0000860091D0860091D0860091D086041485C
:1049C0003F4914310860704700213D498279002A2F
:1049D0003AD00A46126803689A430B461A600A1DC9
:1049E000126803689A430B1D1A60027911440A6821
:1049F00003681A430A60324A0832126803689A430D
:104A00002F4B08331A601A1D126803689A432C4B07
:104A10000C331A604279102A0ED11A1F12680368EB
:104A20001A43274B08331A601A1D126803681A4389
:104A3000234B0C331A600DE02149427911440A6876
:104A400003681A430A6005E0027911440A680368A2
:104A50009A430A6070470021016001710C21417185
:104A60000021817170471649103109680143144AC9
:104A700010321160704701460020114A143212684A
:104A80000A4201D0012000E0002070470C49143197
:104A900008607047014600200022094B1B6803EAAA
:104AA0000102074B14331B680B4202D00AB10120EC
:104AB00000E0002070470249143108607047000090
:104AC000003C0140FFFF7F0010B504468C48844243
:104AD00008D101210846FFF78AF900210120FFF7DC
:104AE00086F95EE08748844208D101210220FFF761
:104AF0007EF900210220FFF77AF952E082488442D1
:104B000008D101210420FFF772F900210420FFF7EA
:104B10006EF946E07D48844208D101210820FFF764
:104B200066F900210820FFF762F93AE078488442EC
:104B300008D101211020FFF75AF900211020FFF7BA
:104B400056F92EE07348844208D101212020FFF756
:104B50004EF900212020FFF74AF922E06E488442F6
:104B600008D101214020FFF742F900214020FFF742
:104B70003EF916E06948844208D101218020FFF700
:104B800036F900218020FFF732F90AE064488442B8
:104B900007D101218015FFF72AF90021A015FFF7A1
:104BA00026F910BDF0B50A4600210023002400BFFD
:104BB0003DE0012505FA01F3156805EA03049C426E
:104BC00034D105684F000326BE40B5430560157912
:104BD0004E00B5400668354305601579012D02D0B9
:104BE0001579022D16D185684F000326BE40B543C6
:104BF000856055794E00B5408668354385604568C7
:104C000001268E40B5434560456896798E40B6B220
:104C100035434560C5684F000326BE40B543C560B7
:104C2000D5794E00B540C6683543C560491C10298A
:104C3000BFD3F0BD4FF6FF710160002101714171DA
:104C40008171C171704708B54FF480320092009AAB
:104C50000A430092009AC261C161009AC261C269AE
:104C60000092C269009208BD0246002013690B42FF
:104C700001D0012000E0002070470146086980B2A1
:104C800070470246002053690B4201D0012000E02A
:104C9000002070470146486980B270470183704721
:104CA000418370470AB1018300E04183704741614D
:104CB000704742694A4042617047F0B500230024C2
:104CC0004D07ED0E02FA05F3CE1000F1200555F860
:104CD00026504E07F70E0F26BE40B543CF1000F109
:104CE000200646F82750CE1000F1200555F8265032
:104CF00045EA0304CE1000F1200545F82640F0BD3A
:104D0000000002400004024000080240000C024083
:104D1000001002400014024000180240001C024033
:104D200000200240016821F00101016000210160C2
:104D300041608160C160016121214161DA4988429D
:104D400004D13D21D84A103A91608CE0D6491831FF
:104D5000884205D14FF47461D34A103A916082E0E1
:104D6000D1493031884205D14FF47411CE4A103AFE
:104D7000916078E0CC494831884205D14FF07461A8
:104D8000C94A103A91606EE0C7496031884204D147
:104D9000C649C54A103AD16065E0C34978318842B6
:104DA00004D1C349C04A103AD1605CE0BE49903199
:104DB000884204D1BF49BC4A103AD16053E0BA4995
:104DC000A831884205D14FF03D51B74A103AD16021
:104DD00049E0B949884204D13D21B74A083A1160F7
:104DE00041E0B5491831884205D14FF47461B24AA7
:104DF000083A116037E0B0493031884205D14FF4AC
:104E00007411AD4A083A11602DE0AB49483188422F
:104E100005D14FF07461A84A083A116023E0A64911
:104E20006031884204D1A149A34A121F11601AE0DF
:104E3000A1497831884204D19D499F4A121F1160CF
:104E400011E09D499031884204D19A499A4A121F33
:104E5000116008E09849A831884204D14FF03D51D3
:104E6000954A121F1160704710B500220268934BDB
:104E70001A40CC680B6823434C6923438C69234355
:104E8000CC6923430C6A23434C6A23438C6A234333
:104E90004C6B23438C6B23431A430260426922F01C
:104EA0000702D1E90B3423431A4342610B69436083
:104EB0004B6883608B68C36010BD00210160416056
:104EC0008160C160016141618161C16101624162D2
:104ED0008162C162016341638163704721B10268ED
:104EE00042F00102026003E0026822F00102026067
:104EF000704721B1026842F40042026003E0026898
:104F000022F400420260704721B1026842F02002A0
:104F1000026003E0026822F02002026070474160F4
:104F200070470146486880B2704722B1036843F475
:104F30000023036003E0036823F40023036001619E
:104F4000704721B1026842F48022026003E00268E7
:104F500022F48022026070470AB1016100E0C16062
:104F60007047014600200A6812F4002F01D001208A
:104F700000E000207047014600200A6812F0010F8F
:104F800001D0012000E000207047014600204A695E
:104F900002F03800704730B503460A46002000246E
:104FA000454DAB4202D24049103901E04249103927
:104FB00012F0005F01D04C6800E00C68404D2C40BE
:104FC000144201D0012000E0002030BD02463A4BDF
:104FD0009A4202D23448103801E03748103811F0B4
:104FE000005F03D0364B0B40C36002E0344B0B40F4
:104FF0008360704710B511F0800F09D022B143696A
:1050000043F08003436103E0436923F0800343617D
:1050100080290BD02AB1036801F01E0423430360EA
:1050200004E0036801F01E04A343036010BD70B5E3
:1050300002460020002400251F4EB24202D21A4B25
:10504000103B01E01C4B103B1E4E314206D01E2689
:1050500006EAD124166806EA040502E0566906F05D
:10506000800511F0005F01D05C6800E01C68144E00
:1050700034400C4202D00DB1012000E0002070BD90
:1050800002460D4B9A4202D20748103801E00A4806
:10509000103811F0005F03D0094B0B40C36002E0F1
:1050A000074B0B4083607047106002403D000020BA
:1050B000400F002000003D20106402403F801CF0A3
:1050C0007D0F7D0F3C0F3C0F10B50446F74884421E
:1050D00008D101211020FEF7E1FE00211020FEF78B
:1050E000DDFE3EE0F248844209D101214804FEF78A
:1050F000C4FE00214FF40030FEF7BFFE31E0ED4862
:10510000844209D101218804FEF7B7FE00214FF443
:105110008020FEF7B2FE24E0E748844209D1012155
:10512000C804FEF7AAFE00214FF40020FEF7A5FEFA
:1051300017E0E248844209D101210805FEF79DFEEF
:1051400000214FF48010FEF798FE0AE0DC4884420C
:1051500007D101212020FEF7A1FE00212020FEF72B
:105160009DFE10BD2DE9FF4705460E460024A146D1
:1051700000BFA046B08900B100BF2C8A24F440547F
:10518000F08804432C82AC8941F20C608443B088DF
:1051900031890843718908430443AC81AC8A24F403
:1051A0004074B0890443AC826846FEF736FDBF48C0
:1051B000854202D0C248854202D1DDF80C9001E060
:1051C000DDF80890A88910F4004F08D009EBC90059
:1051D00000EB091031684900B0FBF1F707E009EB7B
:1051E000C90000EB091031688900B0FBF1F76420B9
:1051F000B7FBF0F004012009642101FB1078A889B5
:1052000010F4004F08D0322000EBC800B0FBF1F0E2
:1052100000F00700044308E0322000EB081064218E
:10522000B0FBF1F000F00F0004432C81BDE8FF87D4
:105230004FF41651016000218180C18001810C2151
:10524000418100218181704710B502460020108AFB
:1052500020F470600B884C8823438C882343CC88CF
:1052600023431843108210BD0021018041808180BA
:10527000C180704721B1828942F40052828104E0EA
:1052800082894DF6FF731A4082817047028B02F4C7
:105290007F420283028B0A430283704721B18289D5
:1052A00042F40042828103E08289C2F30E028281CD
:1052B000704721B1828A42F40062828204E0828ACD
:1052C0004FF2FF731A4082827047C1F30802828056
:1052D000704701468888C0F308007047028A4FF67D
:1052E000F0731A400282028A0A430282704721B197
:1052F000828942F00202828104E082894FF6FD73C6
:105300001A408281704782894FF2FF731A4082816E
:1053100082890A4382817047028A4FF6DF731A40FE
:105320000282028A0A430282704721B1028A42F451
:105330008042028204E0028A4BF6FF731A40028226
:105340007047818941F001018181704721B1828AD2
:1053500042F00802828204E0828A4FF6F7731A4014
:1053600082827047028BD2B20283028B42EA012210
:105370000283704721B1828A42F02002828204E0D7
:10538000828A4FF6DF731A408282704721B1828A87
:1053900042F01002828204E0828A4FF6EF731A40D4
:1053A00082827047828A4FF6FB731A408282828A19
:1053B0000A438282704721B1828A42F002028282CD
:1053C00004E0828A4FF6FD731A40828270471AB158
:1053D000838A0B43838202E0838A8B4383827047F4
:1053E000F0B503460024002600250020A1F5106733
:1053F0006A3F00D100BF1846C1F3421401F01F06F6
:10540000012707FA06F5012C01D10C3004E0022C2B
:1054100001D1103000E014301AB107682F43076043
:1054200002E00768AF430760F0BD02460020B1F517
:10543000007F00D100BF13880B4201D0012000E0A3
:105440000020704701F40072B2F5007F00D100BF68
:10545000CA430280704770B502460024002300252D
:105460000020A1F510666A3E00D100BFC1F34215CD
:1054700001F01F03012606FA03F3012D02D19689DC
:10548000334006E0022D02D1168A334001E0968AAD
:1054900033400C12012606FA04F41688344013B186
:1054A0000CB1012000E0002070BD000000100140A0
:1054B0000044004000480040004C004000500040C4
:1054C0000014014010B500220023A1F510646A3CCD
:1054D00000D100BF0A1201249440A3B2DC4304802F
:1054E00010BD000010B501218803FEF7D7FC002194
:1054F0004FF48040FEF7D2FC10BD1A490860704797
:1055000030B500228B071C0F0F2303FA04F2154B52
:1055100008338C1053F824309343124C08348D1008
:1055200044F8253023468C1053F824308C07240F80
:1055300000FA04F423430B4C08348D1044F8253052
:1055400030BD09490860704708490860704700206D
:1055500004492031096811F4807F01D0012000E066
:105560000020704700380140DC0027420004274239
:105570000CB50020019000907548006840F4803020
:105580007349086000BF7248006800F40030009062
:105590000198401C0190009818B90198B0F5A06FCF
:1055A000F1D16B48006810F4003F02D00120009058
:1055B00001E0002000900098012845D16448403067
:1055C000006840F0805062494031086061480068DE
:1055D00040F480405F4908605D48083000685C49DD
:1055E000083108600846006840F40040086008463A
:1055F000006840F4A05008605748091F0860081F61
:10560000006840F08070091F086000BF50480068C3
:1056100010F0007FFAD040F20560504908604C4815
:105620000830006820F00300494908310860084646
:10563000006840F00200086000BF4548083000687C
:1056400000F00C000828F8D10CBD10B544480068E3
:1056500040F47000424908603D48006840F0010095
:105660003B49086000203A49083108603848006822
:105670003C490840364908603B48091D0860081F3E
:10568000006820F48020091F0860002030490C3198
:105690000860FFF76DFF4FF0006031498039086006
:1056A00010BD70B500200022022300240221284DE5
:1056B00008352D6805F00C0020B1042806D0082814
:1056C00034D107E0294D2A4E356033E0294D284E6C
:1056D00035602FE01E4D2D1D2D68C5F380541C4DE7
:1056E0002D1D2D6805F03F0154B1224DB5FBF1F59C
:1056F000174E361D3668C6F3881605FB06F209E01C
:105700001A4DB5FBF1F5124E361D3668C6F38816F4
:1057100005FB06F20E4D2D1D2D68C5F301456D1CD0
:105720006B00B2FBF3F5124E356003E00F4D104EE7
:10573000356000BF00BF064D08352D68C5F3031561
:105740000D4E705D0A4D2D68C540094E356070BD27
:10575000003802400070004019544007003C0240ED
:1057600088ED00E0FFFFF6FE103000240024F40076
:10577000F800002040787D01FC00002006488047AA
:1057800006480047FEE7FEE7FEE7FEE7FEE7FEE726
:10579000FEE7FEE7FEE7FEE74B560008890100083A
:1057A00008B50020009000F0A9FC01236A4675218D
:1057B000D02000F0F1FD40B99DF80000682809D024
:1057C000DFA003F019F9FF2008BDE5A003F014F9EC
:1057D000FF20F9E701226B21D02000F0AFFDFF2868
:1057E00004D1E7A003F008F9FF20EDE70722192113
:1057F000D02000F0A3FDFF2804D1E9A003F0FCF8BD
:10580000FF20E1E700221A21D02000F097FDFF28B9
:1058100004D1EBA003F0F0F8FF20D5E708221B210C
:10582000D02000F08BFDFF2804D1ECA003F0E4F8B9
:10583000FF20C9E708221C21D02000F07FFDFF28AF
:1058400004D1EFA003F0D8F8FF20BDE702223721F2
:10585000D02000F073FDFF2804D1F2A003F0CCF8B3
:10586000FF20B1E701223821D02000F067FDFF289A
:1058700004D1F5A003F0C0F8FF20A5E70020A3E7BE
:1058800008B50020009001236A4675213C2000F0F5
:1058900083FD38B99DF8000048B1F3A003F0ACF8DF
:1058A000FF2008BDF8A003F0A7F8FF20F9E71422B5
:1058B00000213C2000F042FDFF2804D1FBA003F0B2
:1058C0009BF8FF20EDE7002202213C2000F036FD8E
:1058D000FF2804D1FDA003F08FF8FF20E1E70020AE
:1058E000DFE700B52DED0A8B83B0062301AA032163
:1058F0003C2000F051FDFF2807D1FBA003F07CF80D
:10590000FF2003B0BDEC0A8B00BD9DF805009DF89B
:10591000041040EA012000B2FA4908809DF807000F
:105920009DF8061040EA012000B2F64988809DF8F3
:1059300009009DF8081040EA012000B2F1494880B2
:105940000846B0F9000040F2424190FBF1F000EE51
:10595000100AB8EEC00AEC4880ED000AE948B0F938
:10596000040090FBF1F000EE100AB8EEC00AE64821
:1059700080ED020AE348B0F9020090FBF1F000EE7E
:10598000100AB8EEC00AE04880ED010A90ED000A66
:1059900010EE101A084602F071FE41EC100BB0EE4A
:1059A00040BAF0EE60BAD84890ED010A10EE101A35
:1059B000084602F063FE41EC100BB0EE40CAF0EE78
:1059C00060CAB0EE4B1AF0EE6B1A03F061FBB0EE5A
:1059D00040AAF0EE60AA9FEDCD0B53EC102B51ECDA
:1059E0001A0B02F03AFD41EC100BB0EE409AF0EECB
:1059F000609A9FEDC80B53EC102B51EC190B02F081
:105A000085FC41EC100BB0EE408AF0EE608A51EC60
:105A1000180B02F06FFEBC49C860002071E700B5AA
:105A20002DED068B85B00E2301AA3B21D02000F07E
:105A3000B3FCFF2807D1B9A002F0DEFFFF2005B0BC
:105A4000BDEC068B00BD9DF805009DF8041040EAF2
:105A5000012000B2B84908809DF807009DF80610A3
:105A600040EA012000B2B44948809DF809009DF841
:105A7000081040EA012000B2AF4988809DF80B0071
:105A80009DF80A1040EA012000B2AB49C8809DF899
:105A90000D009DF80C1040EA012000B2A6490881D3
:105AA0009DF80F009DF80E1040EA012000B2A249B7
:105AB00048819DF811009DF8101040EA012000B2C5
:105AC0009D4988810846B0F9000000EE100AB8EE42
:105AD000C00AB1EE400A10EE101A084602F0CEFDE0
